:020000040800F2
:1000000038070020450100084D4700082D3A000838
:100010004947000885080008054C0008000000005A
:10002000000000000000000000000000A54A0008D9
:100030009508000800000000854A0008A94A000849
:100040005F0100085F0100085F0100085F01000810
:100050005F0100085F0100085F0100085F01000800
:100060005F0100085F0100085F0100085F010008F0
:100070005F0100085F010008890800085F010008AF
:100080005F0100085F0100085F0100085F010008D0
:100090005F0100085F0100085F0100085F010008C0
:1000A0005F0100085F0100085F0100085F010008B0
:1000B0005F010008B14A0008BD4A00085F0100085E
:1000C0005F0100085F0100085F0100085F01000890
:1000D0005F010008F94B00085F0100085F0100089C
:1000E0005F0100085F0100085F0100085F01000870
:1000F0005F0100085F0100085F0100085F01000860
:100100005F0100085F010008C94A00085F0100089C
:100110005F0100085F010008D54A0008E14A0008B5
:100120005F0100085F0100085F0100085F0100082F
:10013000DFF80CD000F05CFB004800472D4C0008B5
:10014000380700200648804706480047FEE7FEE7DC
:10015000FEE7FEE7FEE7FEE7FEE7FEE7FEE7FEE777
:10016000AD4A00083101000880EA010210B502F032
:100170000043400022D04A001FD0010E01EB126163
:10018000C0F35600C2F3560240F4000042F40002ED
:10019000A0FB022000047F39140400D0401C50EA68
:1001A000124001D44000491EC2B20C0604EBD0102C
:1001B000401C4008802A02D003E0002010BD20F03F
:1001C0000100002900DA0020184310BD30B480EA95
:1001D000010202F0004530F0004221F0004013D04F
:1001E00090B1C30DD40DC2F31601C0F31600E41A8A
:1001F00041F4000140F400027D34914201D3641CBB
:1002000000E04900002C02DA30BC002070474FF4B7
:1002100000000023914201D3891A034340084FEAAA
:100220004101F7D151B1914202D14FF0004105E0B7
:1002300002D24FF0010101E06FF0010103EBC45065
:10024000284430BC00F0FAB82DE9FE4F81EA0304DF
:1002500004F0004421F0004100944FF0000B23F023
:10026000004350EA01045ED052EA03045BD0C3F3BA
:100270000A54C1F30A552C44A4F2F3340194A0FBB0
:100280000254C1F3130141F48011C3F3130343F487
:10029000801301FB024400FB034E840A970A44EAE0
:1002A000815447EA8357A4FB076802958D0A05FB32
:1002B00007854FEA932C04FB0C542705029D4FEA57
:1002C000065847EA1637B5EB08056EEB070C870EA4
:1002D000920E47EA811742EA8312A7FB0201B6EBAE
:1002E0000B0164EB00042B0D43EA0C335E1844EB66
:1002F0001C50DA465146E7FB0201C5F313044FEAEE
:100300000B3343EA14534FEA0432019C43EA0603D9
:10031000A4F10C040294009CCDE900B400F0D4F8E0
:1003200003B0BDE8F08F00200146F9E796230022D4
:10033000114600F08CB80EB540F233410291002115
:10034000CDE900110A460B4600F0BEF803B000BD2F
:1003500000F0004230F000400AD0C10D01F560719C
:10036000C0F3160042EA0151C2084007114370472A
:1003700000200146704701F0004330B421F00041F5
:1003800050EA010206D00A0DA2F56072C1F3130112
:10039000002A02DC30BC00207047440F44EAC1044C
:1003A000C100E01830BC00EBC25000F047B830B5D7
:1003B0000B46014600202022012409E021FA02F523
:1003C0009D4205D303FA02F5491B04FA02F52844BD
:1003D000151EA2F10102F1DC30BD2DE9F05F0546EA
:1003E000002092469B4688460646814640241BE0F4
:1003F000284641464746224600F021FA53465A46CF
:10040000C01A914110D311461846224600F008FA4E
:100410002D1A67EB01084F4622460120002100F00B
:10042000FFF917EB00094E41201EA4F10104DFDCA7
:10043000484631462A464346BDE8F09F0029A8BFFA
:100440007047401C490008BF20F00100704710B4FD
:10045000B0FA80FC00FA0CF050EA010404BF10BCB2
:10046000704749B1CCF1200421FA04F411FA0CF1DF
:1004700018BF012121430843A3EB0C01CB1D4FEA18
:1004800000614FEA102042BF002010BC704700EB13
:10049000C35010440029A4BF10BC7047401C490041
:1004A00008BF20F0010010BC704710B5141E73F196
:1004B000000408DA401C41F1000192185B411A4324
:1004C00001D120F0010010BD2DE9F04D92469B4670
:1004D00011B1B1FA81F202E0B0FA80F22032904616
:1004E00000F09EF904460F4640EA0A0041EA0B017B
:1004F00053465A46084313D0114653EA010019D017
:10050000C8F14002504600F09AF905460E465046A2
:100510005946424600F084F9084305D0012004E022
:1005200020463946BDE8F08D0020054346EAE076D6
:100530002C4337430A986305E40AA0EB0800002225
:10054000FD0A44EA47540A3002D500200146E9E793
:10055000010510196941DDE9084500196941BDE847
:10056000F04DA2E72DE9FE4F804681EA0300C00F5F
:100570000C46009021F0004123F00045B8EB02004A
:10058000A94105D24046214690461C460B460246EC
:1005900023F00040104347D0270DC7F30A00C3F3F0
:1005A0000A510290401A019040286BDAC3F31300FD
:1005B00040F4801B0098924620B10023D2EB030A3E
:1005C00063EB0B0B01985946C0F14002504600F016
:1005D00027F906460D4650465946019A00F03FF964
:1005E00010EB08006141002487EA115284EAE773A6
:1005F0001A4340D0009A62B3019A012A4FEA075287
:1006000015DC001B61EB02014FF0004202EA0752C9
:10061000CDE90042001C41F5801132462B46FFF720
:1006200053FF03B0BDE8F08F40462146F9E7001BB9
:1006300061EB0201001C41F5801300185B4120189A
:10064000A2F5001747EB030140EAD570B6196D41DA
:1006500011E06D084FEA360645EAC0754FEA0752C9
:10066000001B61EB0201001C41F5801149084FEAB3
:1006700030000019514132462B4603B0BDE8F04F1F
:10068000FFF713BF0098012240000023D0EB0202C5
:1006900063EBE073009821464FEAE074B8EB00008A
:1006A00061EB0401E9E783F000435BE781F000417F
:1006B00058E72DE9F04D81EA030404F0004B21F0E6
:1006C000004514464FF0000A23F0004150EA0502AD
:1006D00020D054EA01021DD0C5F30A570246C5F3E3
:1006E0001303C1F31300C1F30A5640F4801543F419
:1006F0008013A7EB0608101BD64608F2FD3873EBF3
:10070000050002D308F1010801E092185B41B8F13D
:10071000000F03DA00200146BDE8F08D00204FF401
:100720008011064684460EE0171B73EB050705D3C0
:10073000121B63EB050306434CEA010C49084FEA20
:10074000300092185B4150EA0107EDD152EA0300F4
:1007500012D082EA040083EA0501084305D0101B89
:10076000AB4106D20122002306E000224FF00043F5
:1007700002E06FF0010253101AEB06004CEB085137
:1007800010EB0A0041EB0B01BDE8F04DFFF78DBE09
:10079000C1F30A52C1F3130140F2FF3341F4801157
:1007A0009A4202DA00200146704740F233439A42EF
:1007B000A2F2334202DC524200F041B800F030B8FD
:1007C00030B5041E71F1000404DB4FF000444042D8
:1007D00064EB0101141E73F1000405DB1C464FF0AD
:1007E0000043524263EB0403994208BF904230BD7C
:1007F0001CB509480090094801900546009C06E098
:10080000E06840F0010394E8070098471034AC42D8
:10081000F6D3FFF791FC0000445600086456000828
:10082000202A04DB203A00FA02F1002070479140B0
:10083000C2F1200320FA03F3194390407047202AA5
:1008400004DB203A21FA02F00021704721FA02F37A
:10085000D040C2F120029140084319467047202A37
:1008600006DBCB17203A41FA02F043EAE07306E0D8
:1008700041FA02F3D040C2F12002914008431946E8
:1008800070470000FEE7000040F24800C2F200009E
:1008900000F0E4B870470000B0B540F27014C2F246
:1008A000000420463C2101F0EBFC40F20025C2F29E
:1008B000000528463C2101F0E3FC204601F0AEFA99
:1008C000284601F0ABFA40F29020C2F20000BDE8E9
:1008D000B04001F0A3BA0000EFF3108072B600BF81
:1008E000FEE70000014690F82100022816D10868B2
:1008F000D1E90FC3026822F00E020260026822F002
:1009000001020260012000FA03F2CCF8042081F811
:1009100021000020002281F82020704704208863F5
:100920000120002281F820207047000090F821105B
:10093000022927D1026840F2040C1368C4F2020CA9
:1009400023F00E03136013680CF17C018A4223F03C
:10095000010111601AD940F20841C4F202018A4231
:1009600048D040F21C41C4F202018A4246D040F213
:100970003041C4F202018A4244D14FF48073CCF872
:1009800000345CE004218163012070474321C4F2FC
:1009900002018A420EDD6B21C4F202018A421BDC95
:1009A0004421C4F202018A423CD05821C4F202011F
:1009B0008A4233E00821C4F202018A4236D01C2167
:1009C000C4F202018A4237D03021C4F202018A42C5
:1009D00024D14FF4807230E06C21C4F202018A42CB
:1009E00026D08021C4F202018A4217D14FF08072D2
:1009F00023E000BF0123CCF8003420E01023CCF822
:100A000000341CE00CF588614FF480338A4208BF43
:100A10004FF48053CCF8003411E000BF4FF4803223
:100A20000BE000BF4FF4805207E000BF012204E05A
:100A30004FF4801201E000BF1022CCF80020012109
:100A400080F82110426B002180F8201022B180B57F
:100A500090470021BDE880400846704710B5D0E9B6
:100A60000FE3D0F800C0DEF80020DCF80010DA4018
:100A700054072DD511F004042AD0DCF800108906A3
:100A800005D4DCF8001021F00401CCF80010042299
:100A9000C4F2020202F17C018C454BD940F20841BC
:100AA000C4F202018C4500F0AF8040F21C41C4F258
:100AB00002018C4500F0AC8040F23041C4F20201EA
:100AC0008C4540F0A9804FF48061C2F80014F3E037
:100AD000940745D511F0020442D0DCF800108906D5
:100AE00008D4DCF8001021F00A01CCF80010012134
:100AF00080F821100422C4F2020202F17C018C452C
:100B00004CD940F20841C4F202018C4500F0B48097
:100B100040F21C41C4F202018C4500F0AF8040F26B
:100B20003041C4F202018C4540F0AA804FF40071BC
:100B3000AEE000BF4321C4F202018C4544DD6B21CD
:100B4000C4F202018C4551DC4421C4F202018C45FF
:100B500000F0A2805821C4F202018C4568E000BF79
:100B6000120740F1C18011F0080108BF10BDDCF888
:100B7000001021F00E01CCF80010012101FA03F25F
:100B8000CEF80420816380F82110016B0022002937
:100B900080F8202040F09280A6E000BF4321C4F2FC
:100BA00002018C4548DD6B21C4F202018C4555DC05
:100BB0004421C4F202018C4500F084805821C4F223
:100BC00002018C4572E000BF0821C4F202018C458D
:100BD00066D01C21C4F202018C456BD03021C4F2D6
:100BE00002018C4524D14FF4806164E06C21C4F291
:100BF00002018C4556D08021C4F202018C4517D1E8
:100C00004FF0806157E000BF0421C2F8001453E0A8
:100C10004021C2F800144FE002F588634FF48021B0
:100C20009C4508BF4FF48041C2F8001444E000BF67
:100C30004FF480213FE000BF0821C4F202018C453F
:100C400044D01C21C4F202018C4545D03021C4F2AD
:100C500002018C452AD14FF400713EE06C21C4F2B0
:100C600002018C4534D08021C4F202018C451DD193
:100C70004FF0007131E000BF022109E0202107E0C0
:100C800002F588634FF400319C4508BF4FF40051D2
:100C9000C2F8001422E000BF4FF480410BE000BF17
:100CA000042108E04FF4800105E000BF4FF400315B
:100CB00013E000BF40211160C16AA9B1BDE8104036
:100CC000084700BF4FF4005107E000BF022104E0D5
:100CD0004FF4001101E000BF20211160816A002261
:100CE000002980F82020E9D110BD0000014600282D
:100CF0004FF0010008BF70472DE9F04740F2000CAB
:100D0000C4F2020C0A684FF6F8330CF5816ECBF68C
:100D1000FD73724538BF03F5806303EB020E4CF69A
:100D2000CD43CCF6CC43AEFB033E6FF003060CF58F
:100D3000806506EA9E06D1E901A9D1F80C803CBF86
:100D40000025C4F20205C1E90F56022681F8216090
:100D5000166843F6F075AE4346EA0A06D1E9045731
:100D600046EA090646EA0806D1E906432E43374318
:100D700027433B43136000228A6381F8210081F8F6
:100D800020200020BDE8F04770470000B0B50446C1
:100D900000F010F9054640F20400C2F200000078AD
:100DA000611C18BF044400BF00F004F9401BA042BE
:100DB000FAD3B0BD2DE9F04F82B00E68002E00F0DE
:100DC000EF80A0F18042A2F58432870547EA9222A3
:100DD00041F6004740F2004EC4F201070625C4F276
:100DE000010EB84208BF052500244FF001080F236B
:100DF0004FF0000A4FF0000B052A38BF154600954A
:100E000009E000BF0E680AF1010A36FA0AF204F19D
:100E1000040400F0C58008FA0AFC16EA0C09F1D0B7
:100E20004E684FF6FF72C1F21002964212DC122E8B
:100E300056D8DFE806F0350B4549555555555555FB
:100E4000555555555555554D510000BFD1F80CB06D
:100E500046E000BF4FF6FF72C1F2210296420FDC5E
:100E60000022C1F2110296421AD00022C1F21202EF
:100E7000964215D00022C1F22102964210D02FE0F6
:100E80000022C1F2220296420AD00022C1F23102AF
:100E9000964205D00022C1F23202964220D100BF14
:100EA0008A684AB1012A14BFC0F814C0C0F810C043
:100EB0004FF0080B14E000BF4FF0040B10E000BF30
:100EC000CA6802F1080B0BE04FF0000B08E000BF0E
:100ED000CA6802F1040B03E0CA6802F10C0B00BF00
:100EE00022460646B9F5807F24BF203A043637688B
:100EF00003FA02F5AF430BFA02F23A433260CA79C1
:100F0000D2067FF57FAF41F21807C4F202073A68B4
:100F10004FF6084342F001023A603A68CFF6FF7399
:100F200002F001020192019A2AF0030272440F2595
:100F3000D75804F00C06B540AF43009D05FA06F6FD
:100F40003743D7504E6840F20C45F202DEF80820D5
:100F500054BF22EA090242EA0902C4F20105CEF8AE
:100F600008202A68B70254BF22EA090242EA0902AD
:100F70002A60DEF80420B70354BF22EA090242EADD
:100F80000902CEF804200F23DEF80020F70354BF37
:100F900022EA090242EA0902CEF8002032E700BF45
:100FA00002B0BDE8F08F0000002A08BF090401610B
:100FB0007047000040F23030C2F200000068704715
:100FC000002804BF01207047F0B581B0044690F8B6
:100FD0003D0028B9002084F83C00204600F050F97C
:100FE000242084F83D002068016821F0010101609F
:100FF000016841F400410160016821F40041016091
:1010000000F01AFB636848F2A16CC0F2010C40F6D4
:101010000011C0F23D0163453CBF48F28041C0F27F
:101020001E01884202D2012001B0F0BD4DF683615D
:10103000C4F21B31A0FB01122168970CD1F804E027
:101040004FF496762EF03F0545EA92454D60774382
:1010500048F638160D6AC0F24106A7FB067625F061
:101060003F07634538BF960C721C3A430A62CA694F
:1010700048F2A0664CF6FF77C0F20106B34222EABE
:1010800007020BD801385B00B0FBF3F001306FF3BF
:101090001F30042898BF04201BE000BFA768013858
:1010A00057B119277B43B0FBF3F001306FF31F30CA
:1010B00070B100F5804007E003EB4303B0FBF3F0B1
:1010C00001306FF31F3018B100F5004001E000BFA0
:1010D00001201043C8610868D4E9072320F0C0004C
:1010E000104318430860886848F2FF3204F10C0787
:1010F00090438CCF18431043A6698860C86820F0DD
:10110000FF0038433043C860086840F001000860C1
:1011100000202021206484F83D10206384F83E00E4
:1011200001B0F0BD2DE9F04383B0994616460F4655
:101130000446FFF73FFF94F83D10202924D10546CF
:10114000206800BF816989071AD5FFF733FF411B6B
:1011500020681A29F6D381698907F3D50020202158
:10116000206384F83D1084F83E00216C41F020019A
:10117000216484F83C00022003B0BDE8F08300BF86
:1011800094F83C10012903D1022003B0BDE8F0839C
:10119000012284F83C200368DDE90B180A9ADB077A
:1011A00003D1036843F001030360036823F4006381
:1011B0000360212084F83D00402084F83E00002098
:1011C000206462626185608D394620850020CFF6FB
:1011D000FF70E062204632464B46CDE9008502F0C2
:1011E00027FC18B1012003B0BDE8F083208D98B929
:1011F000204641462A4602F07FFC88B3206C042832
:10120000F0D12068016841F400710160012003B051
:10121000BDE8F0830004EBD0204641462A4602F0A8
:101220001BFE0028EAD1616A2268084610F8013BDB
:101230001361238D6062581E2085678D013F67858D
:1012400057697F07E6D50704E4D048781061881C09
:101250006062981E2085618D01396185DAE700BFE3
:101260002068016841F400710160202084F83D008D
:10127000002084F83E0084F83C0003B0BDE8F08311
:1012800010B586B0006845F20042C4F200020021A9
:101290009042049102D006B010BD00BF41F2180484
:1012A000C4F20204206802A940F00800206020680F
:1012B00000F00800019001984FF440700290122055
:1012C00003900320059040F60040C4F20100FFF7B0
:1012D00071FD0420C4F20100016841F0E06141F0B9
:1012E00002010160606840F400106060606800F412
:1012F00000100190019806B010BD000040F20400FB
:1013000040F23031C2F20000C2F2000100780A68F7
:10131000104408607047000080B542F20000C4F23B
:101320000200016841F010010160032000F08CF818
:101330000F2000F005F800F027F8002080BD000025
:1013400070B540F20406C2F2000640F22401327881
:10135000C2F200014FF47A730968B3FBF2F204465B
:10136000B1FBF2F1084600F08FFB0F2C4FF00105A6
:1013700008D838B94FF0FF3021460022002500F090
:1013800037F87460284670BD82B041F21800C4F28C
:1013900002000168022241F001010160016801F0D0
:1013A000010101910199416841F08051416040681B
:1013B00000F08050009000980420C4F20100016801
:1013C00062F31A61016002B070470000002848BF54
:1013D000704700F01F01012202FA01F11C2202EA0B
:1013E000D0004EF20012CEF2000281507047000091
:1013F00010B54EF60C5CCEF2000CDCF80030C3F3F6
:10140000022E8EF00704042C28BF0424BEF103032F
:101410004FF0FF3E0EFA04F438BF0023A143994079
:101420000EFA03F39A43114300F00F0200F16043F8
:101430000901043A03F564436244002848BF02F1FD
:101440000C03197010BD00004EF60C51CEF20001D5
:101450000A684FF6FF031A4060F30A2242F08060E8
:1014600040F0FD7008607047002804BF01207047FD
:101470002DE9F04381B042F20008C4F202080446AC
:10148000D8F800000D4600F0070088420CD2D8F8CA
:10149000000020F007002843C8F80000D8F800003A
:1014A00000F00700A8426CD1206841F204098107CE
:1014B000C4F2020917D5410705D5D9F8001041F447
:1014C000E061C9F80010010705D5D9F8001041F412
:1014D0006051C9F80010D9F80010A26821F0F0019D
:1014E0001143C9F80010C00742D1D8F8000000F03D
:1014F0000700A8420CD9D8F8000020F007002843C4
:10150000C8F80000D8F8000000F00700A84238D161
:101510002068410707D5D9F80010E26821F4E0619E
:101520001143C9F80010000708D5D9F80000216957
:1015300020F4605040EAC100C9F80000D9F800204A
:1015400002F00C00082841F20020C0F27A0051D1CC
:1015500045F21463C2F38341C0F60003595CD20321
:101560003CD440F60010C0F23D00484342E000BFCA
:10157000606802280AD001282AD159F8041C89037E
:1015800008D4012001B0BDE8F08300BF59F8041C65
:101590008901F6D5D9F8001021F003010843C9F8F4
:1015A0000000FFF707FD064641F28837D9F8000032
:1015B000616800F00C00B0EB810F96D0FFF7FAFCE9
:1015C000801BB842F2D9032001B0BDE8F08300BF10
:1015D00059F8041C8907D4D5DCE700BFD9F80020EE
:1015E00045F21263C2F34042C0F600039A5C4843DE
:1015F000B0FBF2F0D9F8001045F2FA52C1F3031132
:10160000C0F60002515C40F2240220FA01F140F2DF
:101610000800C2F200000068C2F200021160FFF789
:101620008FFE002001B0BDE8F083000040F22400EE
:10163000C2F200000068704740F2240041F2040149
:10164000C2F20000C4F202010068096845F20A62B1
:10165000C1F30221C0F60002515CC840704700008F
:1016600040F2240041F20401C2F20000C4F202017F
:101670000068096845F20A62C1F3C221C0F600029F
:10168000515CC84070470000002804BF012070472B
:101690002DE9F04182B00446007841F20006C0070F
:1016A000C4F202060CD0706800F00C00042840F070
:1016B00081803068800303D56068002800F04E8187
:1016C000207880071BD5706810F00C0F09D0706867
:1016D00000F00C00082840F08B807068C00300F117
:1016E00087803068800703D52069012840F0368163
:1016F0003068616920F0F80040EAC100306020786D
:10170000000713D4207840072CD4E569002D00F0A1
:101710002081706800F00C00082840F0AF80012D97
:1017200040F00C81012002B0BDE8F081A0690028E2
:1017300000F08C800020C4F242200121C0F8801407
:10174000FFF738FC054600BF706A800700F1BA80D9
:10175000FFF730FC401B0228F6D9032002B0BDE899
:10176000F08100BFF0695FEAC00808D4F06940F07A
:101770008050F061F06900F080500090009847F2CE
:101780000007C4F200073868C0054DD4386840F43B
:1017900080703860FFF70EFC054600BF3868C00552
:1017A00042D4FFF707FC401B6428F7D9032002B09E
:1017B000BDE8F081706800F00C00082803D1706863
:1017C000C0033FF576AF6068002800F00981B0F5EE
:1017D000A02F00F01D81B0F5803F00F01D81306822
:1017E00020F480303060306820F4802017E100BFA2
:1017F0002069002840F20000C4F2422000F08C80F2
:1018000001210160FFF7D6FB054600BF3068800765
:101810003FF56EAFFFF7CEFB401B0228F6D9032041
:1018200002B0BDE8F08100BFE068002800F09A80B7
:10183000052800F0B180012800F0B280306A20F065
:1018400001003062306A20F00400ACE00020C4F2F5
:1018500042200021C0F88014FFF7ACFB054600BF12
:10186000706A80077FF54EAFFFF7A4FB401B02288C
:10187000F6D9032002B0BDE8F08100BF0027C4F212
:10188000422700203866FFF795FB022D05460DD153
:101890003068800140F1D680FFF78CFB401B0228A6
:1018A0004FF00300F4D902B0BDE8F0813068800148
:1018B0004FD5FFF77FFB401B02284FF00300F5D9FF
:1018C000F1E700BF40F22400C2F20000006844F6D5
:1018D000D351C1F26201A0FB0101480A019000BF8F
:1018E00000BF0198411E002801913FF40BAF00BFDB
:1018F0000198411E002801913FF404AF00BF0198F8
:10190000411E002801913FF4FDAE00BF0198411E29
:1019100000280191E4D1F5E600210160FFF74AFBC0
:10192000054600BF306880077FF5E9AEFFF742FB50
:10193000401B02284FF00300F4D9B4E77068216A15
:1019400000F480328A4209D1616A00F47010884242
:1019500004D1002002B0BDE8F08100BF012002B038
:10196000BDE8F081306A20F001003062306A20F07A
:1019700004003062FFF71EFB054641F2883700BFC6
:10198000306A800722D5FFF715FB401BB8424FF0A5
:101990000300F5D987E700BF306A40F004003062E9
:1019A000306A40F001003062FFF704FB054641F267
:1019B000883700BF306A800708D4FFF7FBFA401B66
:1019C000B842F7D9032002B0BDE8F081B8F1000FAA
:1019D0003FF59BAEF06920F08050F06195E600BFC6
:1019E000306820F480303060306820F4802030602F
:1019F000FFF7E0FA054600BF306880037FF560AE70
:101A0000FFF7D8FA401B64284FF00300F4D94AE7E7
:101A1000306840F480203060306840F480303060BE
:101A2000FFF7C8FA054600BF306880033FF548AEAF
:101A3000FFF7C0FA401B6428F6D9032002B0BDE8C6
:101A4000F08100BF206AB0F5803F05D17168A268BF
:101A500021F40031114371607168626A21F47411DC
:101A600011430843706001203866FFF7A3FA04466B
:101A7000306880013FF56DAFFFF79CFA001B02282C
:101A80004FF00300F4D90EE7411E0020B0EB116FB8
:101A90001CBF012070474EF21002CEF200025160CE
:101AA0004EF62351CEF20001F0230B700721906017
:101AB00011607047704700007047000090F83C20AC
:101AC000012A04BF02207047B0B501F108053CCDE2
:101AD000D1E900CE23F47C5322F470521A432EF441
:101AE000F0431A432CF4E0431A4324F4C0431A434E
:101AF0002A43C96922F480420368114359640021D2
:101B000080F83C10BDE8B0400846704790F83C2093
:101B1000012A4FF0020242D010B580F83D20026841
:101B2000D2F804E0D2F808C00C682EF0700323430A
:101B300040F6FF34C4F20004A242536010DCB2F15C
:101B4000804F1FD040F20043C4F200039A4219D0E4
:101B500040F60003C4F200039A4213D017E000BF1E
:101B600040F60043C4F200039A420BD043F2004314
:101B7000C4F201039A4205D042F60043C4F20103C5
:101B80009A4204D149682CF08003194391600121E5
:101B9000002280F83D1080F83C20BDE8104010463F
:101BA00070470000002804BF0120704710B50446AC
:101BB00090F83D0028B9002084F83C00204600F051
:101BC00085F8022084F83D00206840F6FF33026863
:101BD000C4F2000343F2004C9842C4F2010C21DC31
:101BE000B0F1804F2CD040F20041C4F20001884295
:101BF00026D040F60001C4F20001884220D098426D
:101C000024DCB0F1804F2FD040F20041C4F200013B
:101C1000884229D040F60001C4F20001884223D056
:101C200026E000BF40F60041C4F20001884207D020
:101C3000604505D042F60041C4F201018842DED180
:101C4000A16822F070020A439842DADD40F60041B2
:101C5000C4F20001884207D0604505D042F6004139
:101C6000C4F20101884203D1216922F440720A437F
:101C7000A36922F08001D4F804E0E26819436045CA
:101C80000160C262C0F828E005D042F60041C4F20B
:101C90000101884201D16169016301214161002094
:101CA00084F8461084F83E1084F83F1084F8401001
:101CB00084F8411084F8421084F8431084F84410EA
:101CC00084F8451084F83D1010BD000080B586B042
:101CD000006840F6FF72C4F20002002190420591B4
:101CE00024DD41F20001C4F20001884256D041F2E5
:101CF0000041C4F20001884268D042F60041C4F2BB
:101D00000101884248D141F21C00C4F2020050F89F
:101D1000041C41F4006140F8041C50F8040C00F469
:101D200000600190019806B080BD00BFB0F1804F07
:101D300064D040F60001C4F2000188422CD141F287
:101D40001C00C4F20200016841F004010160016856
:101D500001F004010191019950F8041C41F00801BF
:101D600040F8041C50F8040C02A900F0080001908F
:101D70000198402002900020CDE9030040F6004089
:101D8000C4F20100FFF716F81E2000210022FFF721
:101D90002FFB1E20FFF71AFB06B080BD41F21C008E
:101DA000C4F202000168002241F0100101600068E5
:101DB000002100F01000019001983620FFF718FB79
:101DC000362006B0BDE88040FFF700BB41F21C00A2
:101DD000C4F202000168002241F0200101600068A5
:101DE000002100F02000019001983720FFF700FB50
:101DF000372006B0BDE88040FFF7E8BA41F21C008A
:101E0000C4F20200016841F001010160006800F0C5
:101E100001000190019806B080BD000090F83D10CF
:101E200001291CBF01207047022180F83D10006885
:101E300040F6FF32C168C4F20002904241F0010155
:101E4000C1600FDCB0F1804F1ED040F20041C4F2FF
:101E50000001884218D040F60001C4F20001884217
:101E600012D018E040F60041C4F2000188420BD0C5
:101E700043F20041C4F20101884205D042F600411C
:101E8000C4F20101884206D1816801F007010629E8
:101E900004BF00207047016841F00101016000208B
:101EA0007047000090F83C20012A4FF0020200F039
:101EB000C58080B580F83D20D0F800C04FF677721D
:101EC000DCF8083023EA0202CCF808200B684F2B1C
:101ED00028DC1F2B44DD202B45D0302B43D0402B5A
:101EE00040F0AE80D1F804E0C968DCF82030DCF8BE
:101EF000202022F00102CCF82020DCF8182022F06B
:101F0000F00242EA011123F00A0242EA0E02CCF882
:101F10001810CCF82020DCF8081041F0470121F01F
:101F2000300180E06F2B27DDB3F5005F48D0B3F5BB
:101F3000805F7AD0702B40F08380D1E901E3C968DB
:101F4000DCF8082043EA0E0322F47F4243EA012131
:101F50001143CCF80810DCF8081041F0770162E07A
:101F60000BB1102B6CD1DCF8081021F07001194373
:101F700041F0070157E000BF502B35D0602B5FD1F7
:101F8000D1F804E0C968DCF82030DCF8202022F029
:101F90001002CCF82020DCF8182022F4704242EA2B
:101FA000013123F0A00242EA0E12CCF81810CCF84E
:101FB0002020DCF8081041F0670121F0100132E028
:101FC000D1E901E3C968DCF8082043EA0E0322F4F2
:101FD0007F4243EA01211143CCF80810DCF80810D5
:101FE00041F480411FE000BFD1F804E0C968DCF88B
:101FF0002030DCF8202022F00102CCF82020DCF890
:10200000182022F0F00242EA011123F00A0242EA0B
:102010000E02CCF81810CCF82020DCF8081041F0A3
:10202000570121F02001CCF808100022012180F88E
:102030003D10002180F83C10BDE8804010467047FC
:102040000122F3E7002804BF012070472DE9F04F7B
:1020500081B0044690F83D008B4628B9002084F8F2
:102060003C00204600F0B0F8022084F83D002068D3
:1020700044F20702816840F6FF33914381600268B1
:10208000C4F2000343F2004C9842C4F2010C21DC7C
:10209000B0F1804F2CD040F20041C4F200018842E0
:1020A00026D040F60001C4F20001884220D09842B8
:1020B00024DCB0F1804F2FD040F20041C4F2000187
:1020C000884229D040F60001C4F20001884223D0A2
:1020D00026E000BF40F60041C4F20001884207D06C
:1020E000604505D042F60041C4F201018842DED1CC
:1020F000A16822F070020A439842DADD40F60041FE
:10210000C4F20001884207D0604505D042F6004184
:10211000C4F20101884203D1216922F440720A43CA
:10212000A36922F080016268E56819436045016097
:10213000C562826205D042F60041C4F201018842C4
:1021400001D1616901630121416182688369D0F82D
:1021500020C0DBE9005EDBE9027845EA020ADBF831
:1021600018504FF6FF7923EA090347EA05254FF691
:10217000FC47BD43DBE9077643EA0803DBF81020A0
:102180002B4343EA072343EA02122CF02203DBF835
:10219000147043EA0E0342EA063243EA0713C0F81A
:1021A00008A08261036284F8461084F83E1084F827
:1021B0003F1084F8421084F8431084F83D1000204A
:1021C00001B0BDE8F08F000010B586B0006840F6A1
:1021D0000041C4F2000188424FF00001CDE9041132
:1021E000CDE902111ED040F20041C4F20001884244
:1021F00044D141F21800C4F2020041681D2441F0AC
:1022000002014160416801F00201019101990168F8
:1022100041F004010160006800F0040001900198A1
:10222000C02017E041F21800C4F2020041683224D5
:1022300041F008014160416801F0080101910199F4
:10224000016841F004010160006800F004000190A1
:10225000019803200290002003900120049040F692
:102260000000C4F2010002A9FEF7A4FD20460021EF
:102270000022FFF7BDF82046FFF7A8F806B010BD12
:1022800080B590F83E2090F83F3090F842E090F80A
:1022900043C004290AD0B9B9012A4FF0010208BF8E
:1022A000BEF1010F34D0104680BD00BF012B4FF0AE
:1022B000010208BFBCF1010FF5D1022180F83F10E7
:1022C00080F8431000681EE0012A4FF0010208BFA9
:1022D000012BE8D1BEF1010FE5D1BCF1010FE2D134
:1022E000022280F83E2080F83F2080F8422080F8CB
:1022F000432091B10068016A21F001010162016A85
:1023000041F00101016210216FF0100209E000BFED
:10231000022180F83E1080F84210006801216FF021
:102320000102036A1A400262026A114301620168F3
:10233000002241F001010160104680BD70B540F2FD
:10234000B814C2F20004A04200D070BD40F22805CB
:10235000C2F200052878012814D0002818BF70BDEB
:102360002046002100F074FE21686861086A20F0B0
:102370000A000862086A40F002000862287801300A
:10238000287070BD20460021002600F061FEA86183
:102390002046002100F022FA21684FF48070288046
:1023A0004E62D5E90501081A6860FDF7C4FF4CF2DA
:1023B0009C4246F67203CBF22002C3F69173FDF7FE
:1023C00043FFFDF7D8FFA86070BD000090F83C30D7
:1023D000012B04BF022070474FEAB202032A2BD818
:1023E000F0B5DFE802F0032F4F6D00BF0368D1E9BD
:1023F00000C5D1F80CE01C6A1A6A40F6FF3722F0DB
:1024000001021A621A4652F8186FC4F20007BB4262
:102410007ADCB3F1804F00F0898040F20047C4F2CB
:102420000007BB4200F0828040F60007C4F20007BC
:10243000BB427BD096E000BF0121002280F83C2007
:10244000084670470368D1E900E6D1E902C11C6A79
:102450001A6A360222F010021A621A4652F8185FFF
:102460004FF2FF07BE4325F4734561F30F3624F0A6
:10247000A0040EF00A0746EA050144EA07171160B6
:102480001F623AE00768D1E900C5D1E902313C6A30
:102490003A6A61F3071522F480723A623A4652F8BA
:1024A0001C6F26F0F30645EA06014FEA5C0666F368
:1024B000492411603C62116821F00C01116046E072
:1024C0000368D1E900E6D1E902C11C6A1A6A360242
:1024D00022F480521A621A4652F81C5F4FF2FF072C
:1024E000BE4325F4734561F30F364FEA5E0746EAB3
:1024F000050167F34D3411601C6211684FEA0C232B
:1025000021F44061116022E040F60047C4F2000768
:10251000BB420BD043F20047C4F20107BB4205D0D7
:1025200042F60047C4F20107BB421BD126F0030666
:10253000354324F00A070CF00A066EF307153744FA
:102540009D611F629F6927F00C079F618B6811686E
:10255000194311600021BDE8F040002280F83C20C2
:102560000846704746F00105E3E70000002804BF75
:102570000120704710B5044690F83D0028B90020AE
:1025800084F83C00204600F085F8022084F83D00E5
:10259000206840F6FF330268C4F2000343F2004CA7
:1025A0009842C4F2010C21DCB0F1804F2CD040F2F3
:1025B0000041C4F20001884226D040F60001C4F276
:1025C0000001884220D0984224DCB0F1804F2FD007
:1025D00040F20041C4F20001884229D040F60001D7
:1025E000C4F20001884223D026E000BF40F600413B
:1025F000C4F20001884207D0604505D042F6004190
:10260000C4F201018842DED1A16822F070020A43BF
:102610009842DADD40F60041C4F20001884207D05A
:10262000604505D042F60041C4F20101884203D161
:10263000216922F440720A43A36922F08001D4F890
:1026400004E0E268194360450160C262C0F828E016
:1026500005D042F60041C4F20101884201D161690E
:10266000016301214161002084F8461084F83E1086
:1026700084F83F1084F8401084F8411084F8421028
:1026800084F8431084F8441084F8451084F83D1011
:1026900010BD00007047000051B308290AD004297A
:1026A00019BF00F1410200F1450300F13F0200F1C2
:1026B000430303E000F1400200F1440312781B7869
:1026C000012A4FF0010208BF012B01D010467047CC
:1026D0000222082922D004292CD180F83F2080F83A
:1026E00043204FEAB103032B4FF00102EED82BE059
:1026F00090F83E2090F84230012A4FF0010208BFC6
:10270000012BE3D1022280F83E2080F842204FEADC
:10271000B103032B4FF00102D8D815E080F8402018
:1027200080F844204FEAB103032B4FF00102CDD8CB
:102730000AE000BF80F8412080F845204FEAB1034D
:10274000032B4FF00102C1D845F2246C0068C0F69B
:10275000000C5CF823C0C36801F01F0143EA0C03BE
:10276000C360036A02FA01F123EA01020262026A0B
:10277000114340F6FF32C4F20002904201620FDCC6
:10278000B0F1804F1ED040F20041C4F200018842F7
:1027900018D040F60001C4F20001884212D016E0C1
:1027A00040F60041C4F2000188420BD043F20041E0
:1027B000C4F20101884205D042F60041C4F2010191
:1027C000884204D1816801F00701062903D001681D
:1027D00041F0010101600022104670474FEAB1024A
:1027E000032A4FF0010C42D810B545F2346E03684D
:1027F000C0F6000E5EF822E0DA6802EA0E02DA6045
:1028000001F01F0E1C6A0CFA0EF224EA02021A6290
:102810001A6A41F211141A621A6A224208D11A6A1B
:1028200040F24444224203D11A6822F001021A60A5
:10283000BDE8104071B1082912D004294FF0010100
:1028400019BF80F8411080F8451080F83F1080F8DB
:1028500043100AE0012180F83E1080F8421004E0A5
:10286000012180F8401080F844104FF0000C6046C1
:102870007047000010B5016804460869800744BF2E
:10288000C8685FEA807039D40869400744BFC868E7
:102890005FEA40703ED40869000744BFC8685FEA39
:1028A000007045D40869C00644BFC8685FEAC060CC
:1028B0004AD40869C0071CBFC8685FEAC07051D11C
:1028C0000869000644BFC8685FEA006052D408691E
:1028D000400644BFC8685FEA406053D40869800678
:1028E00046BFC8685FEA806010BD6FF020022046D6
:1028F0000A61BDE81040FFF7DFB800BF6FF00200CB
:102900000861012020778869800743D02046FFF7BF
:1029100015FD45E06FF0040008610220207788690A
:1029200010F4407F40D02046FFF708FD42E000BF92
:102930006FF00800086104202077C86980073DD047
:102940002046FFF7FBFC3FE06FF010000861082015
:102950002077C86910F4407F3AD02046FFF7EEFC9C
:102960003CE000BF6FF001000861204600F0E6FA8D
:102970002168A5E76FF0800008612046FFF79AF80C
:102980002168A4E76FF040000861204600F07AFB60
:102990002168A3E7204600F091F8204600F05CFA99
:1029A0002168002020776FE7204600F087F8204656
:1029B00000F052FA2168002020776CE7204600F0F2
:1029C0007DF8204600F048FA21680020207769E76A
:1029D000204600F073F8204600F03EFA21680020FF
:1029E000207766E770B586B000680021B0F1804FAF
:1029F000CDE904110391029122D042F60041C4F2C4
:102A00000101884258D141F21800C4F20200016865
:102A100041F004010160006802A900F00400019087
:102A200001984FF40060029002200390032005906B
:102A300040F60000C4F20100FEF7BCF906B070BD1C
:102A400041F21800C4F20200016840F6000441F0AF
:102A5000040101600168C4F2010401F00401019164
:102A60000199016802AD41F0080101600068022689
:102A700000F008000190019848F20C0002902046F6
:102A8000294603960596FEF795F90820CDE902063A
:102A900004F5806029460596FEF78CF90420C4F2FF
:102AA000010001684FF6FF42CFF6FF02114041F0EE
:102AB000E06141F48071016006B070BD70470000B4
:102AC00090F83C30012B04BF022070474FEAB2025D
:102AD000032A00F225812DE9F041DFE802F0034BE3
:102AE00095DF00BF036843F200461D6A1A6A25F0AD
:102AF000020522F001021A621A46D3F804C052F805
:102B0000188F8F68D1F800E0C4F20106B34245EA9D
:102B1000070505D042F60047C4F20107BB4205D1C4
:102B2000CF6825F00C0527F004073D43B34205D0DC
:102B300042F60046C4F20106B34206D1D1E9056768
:102B40002CF44074264346EA070C28F0730444EA48
:102B50000E07C3F804C09F614F6809695F631D6277
:102B60009F6947F008079F619F6927F004079F61ED
:102B7000CAE000BF036843F200461D6A1A6A25F0E6
:102B8000200522F010021A621A46D3F804C052F847
:102B9000188F8F68D1F800E0C4F20106B34245EA0D
:102BA000071505D042F60047C4F20107BB4207D122
:102BB000CF686FF0400425F0C00504EA07142543F0
:102BC000B34205D042F60044C4F20104A34206D148
:102BD000D1E905462CF44067264347EA860C28F4E1
:102BE000E64444EA0E27C3F804C09F614F680969B0
:102BF0009F631D629F6947F400679F619F6927F487
:102C000080679F617FE000BF036843F200461D6A52
:102C10001A6A25F4007522F480721A621A46D3F8F3
:102C200004C052F81CEF8F68D1F80080C4F201068E
:102C3000B34245EA072505D042F60047C4F2010732
:102C4000BB4208D1CF6840F2FF443F0225F4406503
:102C500027EA04042543B34205D042F60044C4F2F7
:102C60000104A34206D1D1E905462CF4405726437E
:102C700047EA061C2EF0730747EA0807C3F804C0AA
:102C8000DF614F680969DF631D62DF6947F008078C
:102C9000DF61DF6927F00407DF6135E0036843F295
:102CA0000047D3F820C01A6AC4F2010722F4805208
:102CB0001A621A465C6852F81C5FD1F800E08E6810
:102CC000BB4205D042F60047C4F20107BB4204D123
:102CD0004F6924F4804444EA87142CF4005747EAEF
:102CE000063725F4E64646EA0E265C60DE614E684D
:102CF00009691E641F62DF6947F40067DF61DF69ED
:102D000027F48067DF61090213681943116000210D
:102D1000BDE8F041002280F83C200846704700BF23
:102D20000121002280F83C2008467047002804BF9B
:102D30000120704710B5044690F83D0028B90020E6
:102D400084F83C00204600F085F8022084F83D001D
:102D5000206840F6FF330268C4F2000343F2004CDF
:102D60009842C4F2010C21DCB0F1804F2CD040F22B
:102D70000041C4F20001884226D040F60001C4F2AE
:102D80000001884220D0984224DCB0F1804F2FD03F
:102D900040F20041C4F20001884229D040F600010F
:102DA000C4F20001884223D026E000BF40F6004173
:102DB000C4F20001884207D0604505D042F60041C8
:102DC000C4F201018842DED1A16822F070020A43F8
:102DD0009842DADD40F60041C4F20001884207D093
:102DE000604505D042F60041C4F20101884203D19A
:102DF000216922F440720A43A36922F08001D4F8C9
:102E000004E0E268194360450160C262C0F828E04E
:102E100005D042F60041C4F20101884201D1616946
:102E2000016301214161002084F8461084F83E10BE
:102E300084F83F1084F8401084F8411084F8421060
:102E400084F8431084F8441084F8451084F83D1049
:102E500010BD0000704700007047000041B1082914
:102E600010D0042914BF00F1410200F13F020BE031
:102E700090F83E20012A1CBF01207047022280F8F2
:102E80003E2013E000F140021278012A1CBF01200D
:102E900070470222082907D0042914BF80F8412076
:102EA00080F83F2002E000BF80F84020006801F079
:102EB0001F010122036A02FA01F123EA0102026200
:102EC000026A114340F6FF32C4F2000290420162EE
:102ED0000EDCB0F1804F25D040F20041C4F2000179
:102EE00088421FD040F60001C4F2000118E000BF84
:102EF00040F60041C4F20001884213D043F2004280
:102F0000C4F2010242F600419042C4F2010101D034
:102F100088420CD1436C904243F40043436401D097
:102F2000884204D1816801F00701062903D00168B5
:102F300041F0010101600020704700002DE9F041DF
:102F400040F24821C2F2000188425BD040F2902159
:102F5000C2F20001884218BFBDE8F08140F22C3077
:102F6000C2F20000017840F20022C2F200020131F8
:102F70001268017040F27011506A40F22038C2F2BB
:102F80000001C2F20008096888F800004F6A0023B7
:102F9000C0B288F8017053624B62FDF7C7F9002494
:102FA000C4F2C8242146FDF7DFF80025C4F2A015BD
:102FB0002946FDF70BF90026C4F230163146FDF71D
:102FC00005F94FF07A51FDF7CFF8C8F80400F8B2D0
:102FD000FDF7ACF92146FDF7C7F82946FDF7F6F8ED
:102FE0003146FDF7F3F84FF07A51FDF7BDF8024690
:102FF00007206FF00B01C8F80820BDE8F04100F091
:1030000089BF00BF41F20004C4F20104204601213F
:103010000022FDF7C9FF204601210122FDF7C4FF70
:10302000142001F0F1FD204601210022FDF7BCFF34
:1030300040F2B810C2F200000268116A21F00A01E1
:103040001162136A00211362BDE8F041FFF724BB4F
:103050004FEAB101032984BF00207047DFE801F087
:10306000020E060A006834300068704700683C3081
:10307000006870470068403000687047006838306A
:1030800000687047704700007047000070470000FC
:10309000B0B582B0044600680168C368426901F0B7
:1030A0002F05202D03F0200506D12DB1204602B0BA
:1030B000BDE8B04001F020BD5FEA017C1EBF02F018
:1030C000010E03F4907212EB0E0243D1226BCD0677
:1030D00018D5012A16D113F0100213D00021019146
:1030E00001680191416801910199406940063BD412
:1030F000A08DE18DE28D002A18BF884240F0F28158
:1031000002B0B0BD0A0640F1E78013F0800200F083
:10311000E38094F841102129F2D1A168B1F5805FD4
:1031200003D12169002900F06382216A4A1C2262CE
:1031300009784160E18C01390A04E184E0D1C16879
:1031400021F08001C160C16841F04001C16002B05E
:10315000B0BD00BFCA0718BF13F4807240F0D08022
:103160004A0700F1D380D8E0E06B016849688AB271
:10317000002AC5D0A38D9A42C2D2E1858069202859
:1031800000F09E80206850E8030F216820F48070D2
:1031900041E80302DAB1206850E8030F216820F407
:1031A000807041E8030292B1206850E8030F216863
:1031B00020F4807041E803024AB1206850E8030F10
:1031C000216820F4807041E80302002ADAD12068E7
:1031D00050E8050F216820F0010041E80502C2B364
:1031E000206850E8050F216820F0010041E8050241
:1031F0007AB3206850E8050F216820F0010041E80B
:10320000050232B3206850E8050F216820F0010064
:1032100041E80502002ADAD11BE000BF206850E82F
:10322000050F216820F0400041E80502DAB120686E
:1032300050E8050F216820F0400041E8050292B1F6
:10324000206850E8050F216820F0400041E80502A1
:103250004AB1206850E8050F216820F0400041E89D
:103260000502002ADAD1202084F8420000202063E1
:10327000206850E8030F216820F0100041E80302A5
:10328000DAB1206850E8030F216820F0100041E80F
:10329000030292B1206850E8030F216820F010006B
:1032A00041E803024AB1206850E8030F216820F08A
:1032B000100041E80302002ADAD1E06BFDF712FBAF
:1032C00002206063A08DE18D401A81B2204602B0D9
:1032D000BDE8B040FFF7D8BE49067FF511AF13F047
:1032E00040013FF40DAFC16821F04001C1602021D1
:1032F000204684F8411002B0BDE8B04000F094BB15
:10330000626C42F0010262644A0706D5BEF1000F0A
:1033100003D0626C42F0020262648A0706D5BEF1F5
:10332000000F03D0626C42F004026264BCF1000F33
:1033300006D55EEA050203D0626C42F008026264C0
:10334000626C002A3FF4DCAE890604D51DB120462C
:1033500001F0D2FB20684069616C00F0400001F090
:103360000801401800F0B680206850E8030F21687B
:1033700020F4907041E80302BAB3206850E8030FCC
:10338000216820F4907041E8030272B3206850E88D
:10339000030F216820F4907041E803022AB32068EB
:1033A00050E8030F216820F4907041E80302002ADE
:1033B000DAD11AE0206850E8050F216820F00100FA
:1033C00041E80502DAB1206850E8050F216820F0D5
:1033D000010041E8050292B1206850E8050F21681C
:1033E00020F0010041E805024AB1206850E8050FCD
:1033F000216820F0010041E80502002ADAD1206BA3
:10340000012824D1206850E8030F216820F0100023
:1034100041E80302DAB1206850E8030F216820F088
:10342000100041E8030292B1206850E8030F2168C0
:1034300020F0100041E803024AB1206850E8030F71
:10344000216820F0100041E80302002ADAD1202090
:1034500084F842000020206320684069400640F163
:10346000C180206850E8050F216820F0400041E845
:103470000502DAB1206850E8050F216820F040000D
:1034800041E8050292B1206850E8050F216820F05C
:10349000400041E805024AB1206850E8050F216864
:1034A00020F0400041E80502002ADAD1E06B002854
:1034B00000F0988044F6ED21C0F600014163FDF76D
:1034C00035FA00283FF41CAEE06B416B02B0BDE85A
:1034D000B04008472046FFF7D9FD0020606402B0E5
:1034E000B0BD00BF401A00BF216851E8031F226829
:1034F00021F4907142E80313BBB3216851E8031F24
:10350000226821F4907142E8031373B3216851E8F3
:10351000031F226821F4907142E803132BB3216842
:1035200051E8031F226821F4907142E80313002B35
:10353000DAD11AE0216851E8051F226821F0010163
:1035400042E80513DBB1216851E8051F226821F02C
:10355000010142E8051393B1216851E8051F226873
:1035600021F0010142E805134BB1216851E8051F24
:10357000226821F0010142E80513002BDAD1202155
:1035800084F8421000212163216851E8031F22685A
:1035900021F0100142E80313DBB1216851E8031F59
:1035A000226821F0100142E8031393B1216851E829
:1035B000031F226821F0100142E803134BB1216878
:1035C00051E8031F226821F0100142E80313002B89
:1035D000DAD1022281B22046626302B0BDE8B04077
:1035E000FFF752BD204602B0BDE8B040FFF74EBD28
:1035F000216A31F8022B6FF35F224260216299E564
:10360000002804BF0120704710B5044690F841001F
:1036100028B9002084F84000204600F063F82420F8
:1036200084F841002068D4E90212C36823F40053EF
:10363000C360036923F440531A430261D4E90423AD
:103640001143C268194341F20C639A431143C160AC
:103650004169A26921F44071114343F60002C4F2AA
:1036600001029042416103D0FDF7E6FF02E000BF96
:10367000FDF7F6FFD4E90023192148439900B0FB78
:10368000F1F048F21F5CC5F2EB1CA0FB0C314FF6C9
:103690009C734909C0F6FF7301FB0300322303EB5F
:1036A0000010A0FB0C03F02000EA531000EB011007
:1036B000C3F34311084490601069202120F4904026
:1036C0001061506920F02A005061D06840F4005029
:1036D000D0600020606484F8411084F84210606378
:1036E00010BD00002DE9F04186B040F6000504460B
:1036F000C4F20105006805F540510027884204978F
:1037000002D006B0BDE8F08141F21800C4F2020018
:10371000016802AE41F48041016001684FF4007815
:1037200001F4804101910199016841F004010160B7
:103730000068314600F004000190019802200390D7
:10374000032005902846CDF80880FDF733FB4FF4A1
:103750008060CDE90207284631460497FDF72AFB31
:1037600040F248054420C2F20005C4F202001021D4
:103770004FF4006285E883002846C5E90378C5E96F
:103780000527EF61FDF7B2FA002818BFFDF7A4F88E
:10379000252000210022A5636C62FDF729FE25206B
:1037A000FDF714FE06B0BDE8F08100007047000090
:1037B0002DE9F04381B0044690F84100202840F004
:1037C000B180884600294FF0010000F0D6801646EF
:1037D000002A00F0D2800020606421201D4684F879
:1037E0004100FDF7E7FBA684E684A1680646B1F533
:1037F000805F03D12069002800F0988047464FF091
:103800000008E18C2068002900F0968005F101098C
:103810000BE000BF47B317F8011B4160E18C013991
:10382000E184E18C002900F0878001680906F1D469
:10383000B9F1000F0AD0EDB1FDF7BCFB801BA84227
:1038400018D8206801680906F6D5E3E7016809067B
:10385000E0D4016809065CBF01685FEA0161D9D460
:1038600001680906F2D5D5E738F8021B00276FF387
:103870005F21D2E7206850E8030F216820F4D07060
:1038800041E80302BAB3206850E8030F216820F42E
:10389000D07041E8030272B3206850E8030F21683A
:1038A00020F4D07041E803022AB3206850E8030FE7
:1038B000216820F4D07041E80302002ADAD11AE02E
:1038C000206850E8050F216820F0010041E805025A
:1038D000DAB1206850E8050F216820F0010041E8C6
:1038E000050292B1206850E8050F216820F0010020
:1038F00041E805024AB1206850E8050F216820F030
:10390000010041E80502002ADAD1202084F84100B4
:1039100084F84200002084F84000032001B0BDE894
:10392000F08300BF022001B0BDE8F0830027E18CE6
:10393000206800297FF46AAF0168490619D4FDB1F7
:10394000691C0DD10168490613D4016849065CBFA2
:1039500001685FEA41610CD401684906F2D508E0CC
:10396000FDF728FB801BA8420AD8206800684006A3
:10397000F6D5202084F84100002001B0BDE8F08396
:10398000206850E8030F216820F4D07041E803025A
:10399000002A3ED0206850E8030F216820F4D07040
:1039A00041E80302AAB3206850E8030F216820F41D
:1039B000D07041E8030262B3206850E8030F216829
:1039C00020F4D07041E80302002AD9D121E000BFE1
:1039D000206850E8050F216820F0010041E8050249
:1039E000002A3FF492AF206850E8050F216820F0CC
:1039F000010041E80502002A3FF487AF206850E843
:103A0000050F216820F0010041E80502002A3FF47B
:103A10007CAF206850E8050F216820F0010041E8E4
:103A20000502002AD4D170E770470000FEE70000CD
:103A30002DE9F04383B0044600680D4601680A9FF3
:103A40000B9E41F4807199469046016020464FF0EC
:103A5000011100223B46009600F0ACF850B12068FE
:103A60000068C00544BF4FF400702064032003B019
:103A7000BDE8F083206805F0FE0101610221C0F27B
:103A8000010120463A46334600F07AF920B1012080
:103A900003B0BDE8F08300BF0020029020683246EA
:103AA000416902918069394602900298204600F0EF
:103AB000D3F958B1206C0428E9D12068016841F499
:103AC00000710160012003B0BDE8F0832068B9F106
:103AD000010F0AD04FEA18210161204639463246CB
:103AE00000F0BAF90028E5D120685FFA88F1016199
:103AF000002003B0BDE8F08370B50368044653F8B6
:103B0000140F400711D40E46481C29D086BB00BFB5
:103B10001868400527D4FDF74DFA236853F8140FB1
:103B2000400737D518684007F2D5002070BD00BFA8
:103B300018684007F9D41868400514D4186840077D
:103B4000F3D4186840050ED418684007EDD41868FF
:103B5000400508D4186840074FF0000048BF70BD0A
:103B600018684005E4D56FF480601860042012E006
:103B7000154603E053F8140F4007D6D418684005E3
:103B8000F1D4FDF717FA401B2368B042F2D9586907
:103B90004007EFD4202000212022216384F83D201B
:103BA00084F83E10226C10432064012084F83C10FD
:103BB00070BD00002DE9F041054600681E46144620
:103BC00001F47F0201338FB242D0DDF81880B2F5E4
:103BD000803F40F0878040693840C01BB0FA80F0D9
:103BE0004009A04240F0C8804EB924E04069384006
:103BF000C01BB0FA80F04009A04240F0BD80FDF744
:103C0000D9F9A0EB08012868B142EFD941693940E0
:103C1000C91BB1FA81F14909A142E7D19BE000BF7C
:103C200040693840C01BB0FA80F04009A0424FF014
:103C3000000040F0A280FDF7BDF9286841693940D5
:103C4000C91BB1FA81F14909A142E9D183E000BF62
:103C5000B2F5803F24D100BF41693940C91BB1FA98
:103C600081F14909A14240F0878041693940C91B6F
:103C7000B1FA81F14909A14240F07E8041693940A1
:103C8000C91BB1FA81F14909A14275D14169394095
:103C9000C91BB1FA81F14909A142DDD06CE000BF36
:103CA00081693940C91BB1FA81F14909A14263D147
:103CB00081693940C91BB1FA81F14909A1425BD13F
:103CC00081693940C91BB1FA81F14909A14253D137
:103CD00081693940C91BB1FA81F14909A142DFD09C
:103CE0004AE000BF80693840C01BB0FA80F040094C
:103CF000A04241D146B923E080693840C01BB0FAE8
:103D000080F04009A04237D1FDF754F9A0EB08013B
:103D10002868B142F0D981693940C91BB1FA81F1F3
:103D20004909A142E8D116E080693840C01BB0FAC9
:103D300080F04009A0424FF0000018BFBDE8F081BC
:103D4000FDF738F9286881693940C91BB1FA81F15A
:103D50004909A142E8D100202021286385F83D10BF
:103D600085F83E00296C41F02001296485F83C006B
:103D70000120BDE8F08100BF0020BDE8F081000017
:103D8000F0B581B0044600681D4643698FB203EA6E
:103D90000701B94202D1002001B0F0BD41691646C9
:103DA00001323FD049053FD4CEB100BFFDF702F943
:103DB000411B2068B14203D941693940B94215D14C
:103DC00041693940B942E6D041694905EED52BE059
:103DD00041693940B942DED04169490524D4FDF733
:103DE000E9F8206841693940B942F1D0202023E048
:103DF00041693940B942CED04169490514D441697D
:103E00003940B942C7D0416949050DD441693940AB
:103E1000B942C0D04169490506D441693940B94227
:103E2000B9D041694905E3D5016841F400710160E9
:103E30006FF480614161042000212022216384F815
:103E40003D2084F83E10226C1043206484F83C101E
:103E5000012001B0F0BD000070B50368044653F8BE
:103E6000140F000611D40E46481C29D086BB00BF93
:103E70001868400527D4FDF79DF8236853F8140F00
:103E8000000637D518680006F2D5002070BD00BFC7
:103E900018680006F9D41868400514D4186800069C
:103EA000F3D4186840050ED418680006EDD41868DD
:103EB000400508D4186800064FF0000048BF70BDE8
:103EC00018684005E4D56FF480601860042012E0A3
:103ED000154603E053F8140F0006D6D418684005C1
:103EE000F1D4FDF767F8401B2368B042F2D9586956
:103EF0000006EFD4202000212022216384F83D20F9
:103F000084F83E10226C10432064012084F83C1099
:103F100070BD000070B541F200060C460546012850
:103F2000C4F20106A8BF012C08DA04EA0500B0F1CA
:103F3000FF3F3FDD012D78DAB2E000BF304640217F
:103F40000122FDF731F8304680210022FDF72CF8E0
:103F500030464FF480710122FDF726F830464FF4C9
:103F600000710022FDF720F830464FF480610122F5
:103F7000FDF71AF830464FF400610022FDF714F8FF
:103F800030464FF480510122FDF70EF806F58060AF
:103F900004210022FDF708F840F22810C2F20000C8
:103FA000006845638563C463046404EA0500B0F1F6
:103FB000FF3FBFDC304640210022FCF7F5FF3046D2
:103FC00080210122FCF7F0FF30464FF4807100227F
:103FD000FCF7EAFF30464FF400710122FCF7E4FFE2
:103FE00030464FF480610022FCF7DEFF30464FF48C
:103FF00000610122FCF7D8FF30464FF480510022C7
:10400000FCF7D2FF06F5806004210122FCF7CCFF0B
:1040100040F22810C2F200000068694241638163E7
:104020006142C1630164012D3ADBB4F1FF3F37DC2B
:10403000304640210122FCF7B7FF304680210022A4
:10404000FCF7B2FF30464FF480710122FCF7ACFF61
:1040500030464FF400710022FCF7A6FF30464FF4C3
:1040600080610022FCF7A0FF30464FF4006101227E
:10407000FCF79AFF30464FF480510022FCF794FF82
:1040800006F5806004210122FCF78EFF40F2281023
:10409000C2F2000000686442456385633CE000BFF3
:1040A000B5F1FF3F3ADC012CB8BF70BD304640216E
:1040B0000022FCF779FF304680210122FCF774FFD3
:1040C00030464FF480710022FCF76EFF30464FF40B
:1040D00000710122FCF768FF30464FF48061012235
:1040E000FCF762FF30464FF400610022FCF75CFFF2
:1040F00030464FF480510122FCF756FF06F58060F0
:1041000004210022FCF750FF40F22810C2F2000008
:104110000068694241638163C463046470BD000048
:1041200010B540F22814C2F2000420460021FEF728
:1041300095FE20460421FEF791FE20460821FEF759
:104140008DFE20460C21BDE81040FEF787BE000022
:1041500080B582B041F21400C4F20200016800226E
:1041600041F0010101600068002100F001000190B0
:1041700001980E20FDF73CF90E2002B0BDE880400A
:10418000FDF724B92DE9F04F85B041F21800C4F2D3
:104190000200016841F2000441F010010160016871
:1041A000C4F2010401F0100101910199016801229A
:1041B00041F02001016001684FF0010A01F0200187
:1041C00001910199016841F004010160016801F069
:1041D000040101910199016841F008010160006842
:1041E000012100F00800019001982046FCF7DCFE58
:1041F00020464FF4FE5100224FF4FE584FF0000BC2
:10420000FCF7D2FE04F580652846042100224FF019
:104210000409FCF7C9FE032001AE022704902046E2
:104220003146CDE901AA0397FCF7C4FD3E20CDE954
:10423000010B204631460397FCF7BCFD2046314672
:10424000CDE9018ACDE90377FCF7B4FD2846314674
:10425000CDE9019ACDE90377FCF7ACFD05B0BDE8E7
:10426000F08F000080B540F28C0045F20041C2F2B0
:104270000000C4F2000141F6802200234FF4804C7C
:10428000C0F2060280E80E00C0E9033CC0E9053335
:10429000C0E90733FCF794FE002808BF80BDBDE8E5
:1042A0008040FCF719BB000010B596B040F2E0006A
:1042B00042F600420021C2F20000C4F20102C7230C
:1042C00041F61F444FF0800C1591CDE91311119167
:1042D000CDE90F11CDE90D11CDE90B11CDE9091192
:1042E000CDE90711CDE90511CDE90311CDE90111A2
:1042F000C0E90023C0E90214C0E90411C0F818C0E5
:10430000FDF750FC002818BFFCF7E6FA4FF4805088
:10431000129040F2E000C2F2000012A9FDF7C2FDC7
:10432000002818BFFCF7D8FA40F2E000C2F2000003
:10433000FEF7FCFC002818BFFCF7CEFA40F2E000C4
:104340000024C2F2000010A9CDE91044FDF7DEFB05
:10435000002818BFFCF7C0FA6020CDE9090440F23C
:10436000E000C2F2000009A90C220B94CDE90D4433
:104370000F94FEF7A5FB002818BFFCF7ADFA00204C
:104380000590CDE90300CDE901004FF400510890FC
:1043900040F2E0000691C2F2000001A9FDF78EFB99
:1043A000002818BFFCF798FA40F2E000C2F20000C3
:1043B000FEF718FB16B010BD10B58EB040F22810F5
:1043C0000021C2F2000040F2E7340D91CDE90B115B
:1043D0000991CDE90711CDE90511CDE90311CDE929
:1043E00001114FF080424723C0E90214016180218E
:1043F000C0E900238161FDF7D5FB002818BFFCF759
:104400006BFA4FF480500A9040F22810C2F200007C
:104410000AA9FDF747FD002818BFFCF75DFA40F236
:104420002810C2F20000FEF781FC002818BFFCF73C
:1044300053FA40F228100024C2F2000008A9CDE986
:104440000844FDF763FB002818BFFCF745FA60201D
:10445000CDE9010440F22810C2F2000001A90022B7
:1044600003940594FEF72CFB002818BFFCF734FAE0
:1044700040F22810C2F2000001A90422FEF720FB3E
:10448000002818BFFCF728FA40F22810C2F20000FA
:1044900001A90822FEF714FB002818BFFCF71CFA3C
:1044A00040F22810C2F2000001A90C22FEF708FB1E
:1044B000002818BFFCF710FA40F22810C2F20000E2
:1044C000FEF790FA0EB010BD80B58CB040F27010BF
:1044D00040F200420021C2F20000C4F20002C0E932
:1044E000002180224FF6FF7382610322C0E902138C
:1044F000CDE9032101220623CDE900110161CDE9B7
:104500000521CDE90731CDE9092103A90B93FDF779
:1045100099FD002818BFFCF7DFF940F27010C2F2D5
:1045200000006946FDF7F2FA002818BFFCF7D4F93D
:104530000CB080BD10B58AB040F2B8100021C2F2B4
:10454000000040F600024FF6FF740991CDE9071113
:10455000CDE90411CDE90211CDE90011C4F2000248
:104560004723C0E9021401618021C0E90023816171
:10457000FDF718FB002818BFFCF7AEF94FF4805088
:10458000069040F2B810C2F2000006A9FDF78AFCBE
:10459000002818BFFCF7A0F940F2B810C2F20000E2
:1045A000FDF7E4FF002818BFFCF796F940F2B810B9
:1045B0000024C2F2000004A9CDE90444FDF7A6FAE4
:1045C000002818BFFCF788F90120CDE9010440F26A
:1045D000B810C2F200006946002200940394FDF76F
:1045E000F5FE002818BFFCF777F90AB010BD0000EF
:1045F00080B58CB040F2002040F600420021C2F2AB
:104600000000C4F20002C0E9002180224FF6FF73CF
:1046100082610322C0E90213CDE9032101220623AE
:10462000CDE900110161CDE90521CDE90731CDE9E1
:10463000092103A90B93FDF705FD002818BFFCF71E
:104640004BF940F20020C2F200006946FDF75EFA25
:10465000002818BFFCF740F90CB080BD80B582B0CF
:104660002020009040F248200021C2F2000041F2D8
:10467000000242F20F7C0191C4F2000241F61F4396
:10468000C0E9021C8021C0E900238161FDF78AFA9C
:10469000002818BFFCF720F940F24820C2F20000C1
:1046A0006946FDF733FA002818BFFCF715F902B088
:1046B00080BD000080B582B02020009040F29020A4
:1046C0000021C2F2000041F2004240F2E73C0191B9
:1046D000C4F2000240F2CF23C0E9021C8021C0E9ED
:1046E00000238161FDF75EFA002818BFFCF7F4F89B
:1046F00040F29020C2F200006946FDF707FA002858
:1047000018BFFCF7E9F802B080BD000080B540F2A8
:10471000D82043F60001C2F20000C4F201010023D8
:104720004FF00C0C4FF4165280E80E00C0E9033332
:10473000C0E905C3C361FEF763FF002808BF80BD61
:10474000BDE88040FCF7C8B8FEE70000FEE70000C7
:104750002DE9F04F85B040F244050024C2F2000577
:104760004FF4807601270DF1120B0DF113084FF075
:10477000000900BF09F1B00128688DF8101004A9E4
:10478000CDE900177821002201230296FCF7CAFC2C
:1047900028680DF11101CDE90017782100220123CD
:1047A0008DF811400296FCF7BDFC286810218DF8A9
:1047B0001210782100220123CDE900B70296FCF700
:1047C000B1FC4FF0000A00BF286878214022012385
:1047D0008DF81340CDE900870296FCF7A3FC0AF19F
:1047E00001004FFA80FABAF1FF3FEDDCB9F1070F93
:1047F00009F10109BED305B0BDE8F08F70B584B0F2
:1048000040F244058D21C2F2000528688DF80D1094
:1048100001260DF10D014FF48074CDE900167821C9
:10482000002201230294FCF77DFC142128688DF8F6
:104830000E100DF10E01CDE90016782100220123A2
:104840000294FCF76FFCAF2128688DF80F100DF172
:104850000F01CDE900167821002201230294FCF714
:1048600061FC04B070BD0000F0B583B040F24405B7
:10487000C2F2000528600A20FCF788FA286840F296
:104880000C074FF480740126C2F200077821002241
:104890000123CDE900760294FCF744FC2868791CDA
:1048A000CDE900167821002201230294FCF73AFC9E
:1048B0002868B91CCDE90016782100220123029452
:1048C000FCF730FC2868F91CCDE90016782100229D
:1048D00001230294FCF726FC2868391DCDE9001657
:1048E0007821002201230294FCF71CFC2868791D22
:1048F000CDE900167821002201230294FCF712FC76
:104900002868B91DCDE90016782100220123029400
:10491000FCF708FC2868F91DCDE900167821002273
:1049200001230294FCF7FEFB286807F10801CDE99A
:1049300000167821002201230294FCF7F3FB28687B
:1049400007F10901CDE90016782100220123029424
:10495000FCF7E8FB286807F10A01CDE90016782189
:10496000002201230294FCF7DDFB286807F10B010C
:10497000CDE900167821002201230294FCF7D2FB36
:10498000286807F10C01CDE90016782100220123E7
:104990000294FCF7C7FB286807F10D01CDE900166A
:1049A0007821002201230294FCF7BCFB286807F160
:1049B0000E01CDE900167821002201230294FCF7B4
:1049C000B1FB286807F10F01CDE90016782100221C
:1049D00001230294FCF7A6FB286807F11001CDE93A
:1049E00000167821002201230294FCF79BFB286823
:1049F00007F11101CDE9001678210022012302946C
:104A0000FCF790FB286807F11201CDE90016782128
:104A1000002201230294FCF785FB286807F11301AB
:104A2000CDE900167821002201230294FCF77AFBDD
:104A3000286807F11401CDE900167821002201232E
:104A40000294FCF76FFB286807F11501CDE9001609
:104A50007821002201230294FCF764FB286807F107
:104A60001601CDE900167821002201230294FCF7FB
:104A700059FB0A20FCF78AF903B0BDE8F040FFF7C4
:104A800067BE00007047000010B540F2E004C2F2BB
:104A9000000420460C21FEF7E1F920684FF407716D
:104AA000016410BD70470000FCF728BC704700008F
:104AB00040F27010C2F20000FDF7DCBE40F2B81008
:104AC000C2F20000FDF7D6BE40F20020C2F20000A4
:104AD000FDF7D0BE40F24820C2F20000FDF7CABE8A
:104AE00040F29020C2F20000FDF7C4BE406A0021EF
:104AF000C185C184FEF7CABA81B090F8421022295C
:104B000021D183680246B3F5805F09D152F8281F8E
:104B100052F8183C002B63D003685B680AE000BFC2
:104B200052F8281F13B90369002BF5D003685B689E
:104B300003F07F030B70116801311160C18D0139E1
:104B40000A04C18502D001B0704700BF0168CA687D
:104B500022F02002CA60CA6822F48072CA604A69E0
:104B600022F001024A61202180F8421000214163B5
:104B7000026B012A3CD10163016851E8031F0268FE
:104B800021F0100142E80313DBB1016851E8031F73
:104B9000026821F0100142E8031393B1016851E863
:104BA000031F026821F0100142E803134BB10168B2
:104BB00051E8031F026821F0100142E80313002BA3
:104BC000DAD101680A68D20606D5002200920A6886
:104BD0000092496800910099818D01B0FEF754BAA6
:104BE000026852686FF35F2221F8022B8162A5E709
:104BF00001B0FEF7DBBD000040F2D820C2F2000099
:104C0000FEF746BAFEE70000FCF710BD80B582B0A3
:104C1000019040F2D820C2F2000001A901224FF613
:104C2000FF73FEF7C5FD019802B080BD90B0FCF7A0
:104C300073FB40F28C00C2F20000FFF715FE002467
:104C40000120CDE90B44CDE9094406900A904FF4C8
:104C5000E0104FF4803102250F9006A8CDE907142B
:104C6000CDE90D51FCF710FD20B1EFF3108072B6C5
:104C7000FEE700BF0F20CDE901054FF48060CDE9CC
:104C8000040401A802210394FCF7EEFB20B1EFF32A
:104C9000108072B6FEE700BFFFF774FAFFF758FA0C
:104CA000FFF7E0FAFFF746FCFFF7D8FCFFF784FBBD
:104CB000FFF70AFCFFF79CFCFFF7FCFCFFF726FD63
:104CC000FFF7F2FAFFF744FDFFF798FD40F24820A6
:104CD000C2F20000FDF7A2F8FFF722FAFBF7DCFDB5
:104CE000FFF7D2FE40F22035C2F2000505A400BF56
:104CF000A868FBF72DFB024620460B4600F004F89F
:104D0000F6E700BF25660A000FB4054B10B503A9EE
:104D1000044A029800F0DAF810BC5DF814FB0000B9
:104D20000D4C00080000002002E008C8121F08C156
:104D3000002AFAD170477047002001E001C1121F1C
:104D4000002AFBD1704700002DE9FF5F82B00021EF
:104D5000DDE90430020DDDF840B0034318D044F61D
:104D60001050A2F2FF3242431514119801281FD0AF
:104D7000A5EB0B00401C5FEA000A4FF000064E4F07
:104D8000DFF83891B046504615D5CAF1000413E05B
:104D9000119801244AA3012801D16FEA0B0102985E
:104DA000119AC0E90031C0E9024206B0BDE8F09FA7
:104DB000CBF10000DFE704460021404A491842EBEE
:104DC0000450CDE9001012E0E00707D032463B4620
:104DD00040464946FBF738FA8046894632463B460C
:104DE00010461946FBF730FA06460F466410002CB1
:104DF000EAD1DDE90401DDE90023BAF1000F06DAAA
:104E0000FBF722FA42464B46FBF71EFA05E0FBF79A
:104E100050FC42464B46FBF74CFC04460E46002233
:104E2000284BFBF7CDFC03D84FF0FF30014607E0DD
:104E30000022254B20463146FBF794FBFBF7A8FCEC
:104E4000102409E0002C0ADB0A220023FBF7C5FA34
:104E5000039B30321A55641E50EA0102F2D1641CE1
:104E6000039AC4F111031444119A012A03D00122B8
:104E700008430DD10AE0084304D000204FF0110B85
:104E8000119072E7A3EB0B056D1E0DE05B4504DD91
:104E90004FF0000205F1010504E003DA4FF00002D3
:104EA000A5F10105002AECD002981199C0E9023160
:104EB000C0E9004579E70000000014400000F03F21
:104EC000300000000000F0430000E03F2DE9FF4FFC
:104ED00095B09B468946064600250FE2252877D1E6
:104EE00000242746F84A0121059400E0044316F8FF
:104EF000013F203B01FA03F01042F7D130782A2815
:104F000011D06FF02F033078A0F13002092A16D8A3
:104F1000059A44F0020402EB820203EB42021044C1
:104F2000761C0590EFE759F8042B0592002A03DA66
:104F3000504244F40054059044F00204761C30784A
:104F40002E2816D116F8010F44F004042A280DD09B
:104F50006FF02F023078A0F13003092B09D807EB4E
:104F6000870302EB4303C718761CF3E759F8047B69
:104F7000761C30786C280FD006DC4C2817D06828B7
:104F80000DD06A2814D104E0742810D07A280FD1EB
:104F90000DE044F400140AE044F4801401E044F409
:104FA00040147278824202D104F58014761C761C7B
:104FB000307866280BD013DC582877D009DC00281D
:104FC00075D04528F6D04628F4D047281AD19DE15F
:104FD00018E0632835D0642879D0652812D195E18E
:104FE000702873D008DC6728F1D069286FD06E284C
:104FF0000DD06F2806D1B5E073282CD0752875D058
:10500000782874D05A46179990476D1C75E1C4F3FF
:105010000250022809D003280DD0D9F80010042826
:105020000DD00D6009F1040967E1D9F80010EA1705
:10503000C1E90052F6E7D9F800100D80F2E70D70D3
:10504000F0E719F8041B8DF8001000208DF801001E
:10505000EA46012003E059F804AB4FF0FF30610746
:105060004FF0000102D40DE008F101018846B94279
:105070000FDA8045F8DB1AF808100029F4D108E0AF
:1050800008F1010188468142FADB1AF8081000296C
:10509000F6D105985B46A0EB080721463846179ADB
:1050A00000F094FA284400EB080507E04DE029E100
:1050B0000DE01AF8010B5A4617999047B8F101080C
:1050C000F7D25B4621463846179A13E142E00A229E
:1050D0000092C4F302524FF0000A022A08D059F895
:1050E00004CB032A4FEAEC710AD00DE029E02AE054
:1050F00009F1070121F00702F2E802C1914609E037
:105100000FFA8CFC4FEAEC71042A03D14FFA8CFCA5
:105110004FEAEC71002907DA0A460021DCF1000CA5
:1051200061EB02012D2202E0220504D52B228DF82D
:105130000420012203E0E20701D02022F7E7904695
:1051400059E00A2102E010220DE010214FF0000A80
:1051500000910BE010224FF0000A44F004040827ED
:10516000009203E008224FF0000A0092C4F30252BA
:10517000022A05D059F804CB0021032A08D009E0FF
:1051800009F1070121F00702F2E802C1914605E0AA
:105190001FFA8CFC042A01D10CF0FF0C4FF0000820
:1051A000220728D5702806D0009B83F0100353EA0D
:1051B0000A0305D00EE040228DF80420012208E009
:1051C0005CEA010206D030228DF804208DF805003B
:1051D00002229046009B83F0080353EA0A030AD197
:1051E0005CEA010201D1620705D530228DF8042066
:1051F0004FF001087F1E582804D034A003900EA859
:1052000002900DE036A0F9E753466046009AFBF79E
:10521000E4F884460398825C0298401E0290027073
:105220005CEA0100F0D1029806A9081A00F1200AF0
:10523000600702D524F4803400E00127574502DDE1
:10524000A7EB0A0000E0002000EB0A01009005989F
:105250004144401A0590E00306D45B462146179A64
:10526000059800F0B3F90544002706E001A85A4666
:10527000C05D179990476D1C7F1C4745F6DBE00326
:105280000CD55B462146179A059800F09FF9054416
:1052900004E030205A46179990476D1C0099481E2B
:1052A00000900029F5DC08E0029802995A4600783F
:1052B000491C0291179990476D1CBAF10001AAF19F
:1052C000010AF1DC65E100000928010030313233C8
:1052D0003435363738396162636465660000000032
:1052E000303132333435363738394142434445461C
:1052F0000000000000F058F90544761C30780028C2
:105300007FF4ECAD19B02846BDE8F08F620700D4F9
:10531000062709F1070222F0070CFCE80223E14608
:1053200003F000485FEA080C02D00FF2702C0DE089
:105330005FEA045C02D50FF2682C07E05FEAC47CE8
:1053400002D00FF2602C01E0AFF2700C4FF0FF388A
:1053500023F00043CDF850C065280CD006DC45286A
:1053600009D046281DD047283DD13DE0662818D0F9
:1053700067287ED138E00021112F01DB112000E0E9
:10538000781CCDE9000106A90EA8FFF7DDFCDDE9D8
:105390000F010E9A03910021009207F1010A049176
:1053A0004DE04FF000400097CDE9011006A90EA88E
:1053B000FFF7CAFCDDE90F0203920E9B1199002250
:1053C000DDF80CA00093049211B9791C00EB010ADE
:1053D000B7EB0A0004D4C0F1FF3007F1010A0490D2
:1053E000AAEB0700019044E0012F00DA0127002119
:1053F000112F01DD112000E03846CDE9000106A99A
:105400000EA8FFF7A1FCDDE90F010E9A0391002120
:1054100004910092BA4621070CD40399514500DA51
:105420008A46BAF1010F05DD009AAAF10101515C2B
:10543000302908D0B84202DA10F1040F06DA01214F
:10544000CDE9011015E0AAF10101E9E7002805DC2A
:10545000049901440491AAEB000102E0411C51456A
:1054600000DD8A460499401A401C01904FF000402C
:105470000290200704D40198504501DBCDF8048048
:1054800000208DF84F0002980DF14F07B0F1004F4A
:1054900025D02B200E9002984FF0020800280CDA3D
:1054A000404202902D200E9007E00A210298FAF760
:1054B0007EFF3031029007F8011DB8F10001A8F11C
:1054C0000108F2DC02980028EFD1791E0E980870CE
:1054D000307800F0200040F0450007F8020D12A8D7
:1054E000C01B00F107081498007800B1012000EB00
:1054F0000A01019801EBE07105984144401A401EF1
:105500000590E00306D45B462146179A059800F003
:105510005DF805441498007818B15A4617999047D9
:105520006D1CE00324D55B462146179A059800F0D0
:105530004DF805441CE00498002807DBDDE9030171
:10554000884203DD0098405C179901E017993020EC
:105550005A469047049805F10105401C04900198B3
:10556000401E019004D12E205A46179990476D1C79
:10557000BAF10001AAF1010ADDDC05E017F8010B20
:105580005A46179990476D1CB8F10001A8F101081F
:10559000F4DC5B462146179A0598ABE62D00000027
:1055A0002B000000200000002DE9F04104460025FA
:1055B0001E461746880404D405E039462020B0472B
:1055C0006D1C641EF9D52846BDE8F0812DE9F04137
:1055D000044600251E469046C80301D5302700E04A
:1055E0002027880404D505E041463846B0476D1CA5
:1055F000641EF9D52846BDE8F081000000000000D7
:10560000000001020304060708090000000001026F
:105610000304010202030405060708090A0B0C0D26
:105620000E0F10100200000004000000080000002F
:1056300010000000FDFFFFFFFBFFFFFFF7FFFFFF74
:10564000EFFFFFFF68560008000000202800000060
:10565000284D000890560008280000201007000080
:10566000384D0008000000000000000001000000AC
:1056700010000000AED580A83FD30040A1C8DA12C8
:1056800081CFD9F1DB40A4A68D14AF000024F40033
:0400000508000131BD
:00000001FF
