:020000040800F2
:1000000078070020450100082157000839480008FA
:100010001D570008690600087D6700080000000001
:100020000000000000000000000000007D5A0008F1
:100030007D06000800000000195A0008D55A000883
:100040005F0100085F0100085F0100085F01000810
:100050005F0100085F0100085F0100085F01000800
:100060005F0100085F0100085F0100085F010008F0
:100070005F0100085F0100086D0600085F010008CD
:100080005F0100085F0100085F0100085F010008D0
:100090005F0100085F0100085F0100085F010008C0
:1000A0005F0100085F0100085F0100085F010008B0
:1000B0005F0100084D5B00085D5B00085F01000800
:1000C0005F0100085F0100085F0100085F01000890
:1000D0005F0100086D6700085F0100085F0100080C
:1000E0005F0100085F0100085F0100085F01000870
:1000F0005F0100085F0100085F0100085F01000860
:100100005F0100085F0100086D5B00085F010008E7
:100110005F0100085F0100087D5B00088D5B00083F
:100120005F0100085F0100085F0100085F0100082F
:10013000DFF80CD000F060FA004800477168000852
:10014000780700200648804706480047FEE7FEE79C
:10015000FEE7FEE7FEE7FEE7FEE7FEE7FEE7FEE777
:10016000495B000831010008D2B201E000F8012B20
:10017000491EFBD270470022F6E710B513460A4627
:1001800004461946FFF7F0FF204610BDF0B480EAA0
:100190000102D40F4200B2EB410F02D202460846E0
:1001A00011464A0042D0C30DDDB2C1F3C752AD1AA9
:1001B000202D35DAC1F3160141F4000204B1524298
:1001C000C5F1200602FA06F12A411044B3EBD05FD4
:1001D00023D0C4B1012DA0EBC35009DCF0BC4FF01B
:1001E000004202EAC352DBB200F5000000F078B929
:1001F000400000F1807000EBC350A0F1807040EA35
:10020000D170490009E0490841EAC071A0EBC35030
:1002100000F50000400800EBC350F0BC00F057B9F7
:100220006142012202EB4101001BF6E7F0BC70477E
:1002300081F00041AAE780F00040A7E780EA0102D0
:1002400010B502F00043400022D04A001FD0010E3A
:1002500001EB1261C0F35600C2F3560240F40000F5
:1002600042F40002A0FB022000047F39140400D0F5
:10027000401C50EA124001D44000491EC2B20C0694
:1002800004EBD010401C4008802A02D003E000207C
:1002900010BD20F00100002900DA0020184310BD35
:1002A00030B480EA010202F0004530F0004221F053
:1002B000004013D090B1C30DD40DC2F31601C0F3AA
:1002C0001600E41A41F4000140F400027D3491422A
:1002D00001D3641C00E04900002C02DA30BC00208D
:1002E00070474FF400000023914201D3891A034361
:1002F00040084FEA4101F7D151B1914202D14FF08C
:10030000004105E002D24FF0010101E06FF0010170
:1003100003EBC450284430BC00F0D9B82DE9FE4F9F
:1003200081EA030404F0004421F0004100944FF0FE
:10033000000B23F0004350EA01045ED052EA0304AC
:100340005BD0C3F30A54C1F30A552C44A4F2F3342E
:100350000194A0FB0254C1F3130141F48011C3F3D3
:10036000130343F4801301FB024400FB034E840A91
:10037000970A44EA815447EA8357A4FB0768029529
:100380008D0A05FB07854FEA932C04FB0C542705C7
:10039000029D4FEA065847EA1637B5EB08056EEBA3
:1003A000070C870E920E47EA811742EA8312A7FBD9
:1003B0000201B6EB0B0164EB00042B0D43EA0C3396
:1003C0005E1844EB1C50DA465146E7FB0201C5F3C8
:1003D00013044FEA0B3343EA14534FEA0432019CEF
:1003E00043EA0603A4F10C040294009CCDE900B496
:1003F00000F0B3F803B0BDE8F08F00200146F9E744
:10040000002801DBC0F10040002901DBC1F10041FF
:10041000814201D80120704700207047002801DB8D
:10042000C0F10040002901DBC1F10041814201D34C
:100430000120704700207047C10F80EAE070084437
:10044000CA079623002100F04BB80EB540F23341A5
:1004500002910021CDE900110A460B4600F07DF81B
:1004600003B000BD00F0004220F00040C10DC0F319
:10047000160040F400007F2901DA00207047962919
:1004800003DCC1F19601C84001E096398840002A9A
:10049000F4D04042704701F0004330B421F00041F5
:1004A00050EA010206D00A0DA2F56072C1F31301F1
:1004B000002A02DC30BC00207047440F44EAC1042B
:1004C000C100E01830BC00EBC250AFF3008000293F
:1004D000A8BF7047401C490008BF20F001007047CA
:1004E00010B4B0FA80FC00FA0CF050EA010404BF2A
:1004F00010BC704749B1CCF1200421FA04F411FA80
:100500000CF118BF012121430843A3EB0C01CB1DC3
:100510004FEA00614FEA102042BF002010BC704734
:1005200000EBC35010440029A4BF10BC7047401C0E
:10053000490008BF20F0010010BC704710B5141E20
:1005400073F1000408DA401C41F1000192185B418C
:100550001A4301D120F0010010BD2DE9F04D924663
:100560009B4611B1B1FA81F202E0B0FA80F220327A
:10057000904600F059F804460F4640EA0A0041EA66
:100580000B0153465A46084313D0114653EA010063
:1005900019D0C8F14002504600F055F805460E4605
:1005A00050465946424600F03FF8084305D0012026
:1005B00004E020463946BDE8F08D0020054346EAB8
:1005C000E0762C4337430A986305E40AA0EB080061
:1005D0000022FD0A44EA47540A3002D500200146B1
:1005E000E9E7010510196941DDE90845001969418C
:1005F000BDE8F04DA2E700001CB50948009009488D
:1006000001900546009C06E0E06840F0010394E894
:10061000070098471034AC42F6D3FFF78DFD000079
:100620003469000854690008202A04DB203A00FAE3
:1006300002F1002070479140C2F1200320FA03F339
:10064000194390407047202A04DB203A21FA02F037
:100650000021704721FA02F3D040C2F120029140FC
:100660000843194670470000FFE7FEE780B540F2F7
:100670003400C2F2000000F015FB80BD704700009E
:1006800080B584B040F26410C2F2000002903C21B8
:10069000019102F05FFD019940F2F410C2F20000F6
:1006A000039002F057FD029802F00AFB039802F053
:1006B00007FB40F28420C2F2000002F001FB04B00C
:1006C00080BD000081B0EFF3108072B60090FFE7AC
:1006D000FEE7000080B582B0019041F20000C4F254
:1006E00001000090022101F067F801460098019A8C
:1006F0001170042101F060F801460098019A5170D0
:10070000082101F059F801460098019A91701021D2
:1007100001F052F80199C87001980078E8B9FFE734
:1007200001984078C8B1FFE701988078A8B1FFE749
:100730000198C07888B9FFE740F21431C2F2000195
:100740000020C4F2A000086040F25C31C2F2000157
:1007500008600199002008718FE001980078F8B9CD
:10076000FFE701984078D8B9FFE701988078B8B1E1
:10077000FFE70198C07898B9FFE740F21431C2F260
:1007800000010020C4F2A000086040F25C31C2F217
:1007900000014FF0814008600199012008716BE071
:1007A00001980078F8B9FFE701984078D8B9FFE7D9
:1007B00001988078B8B9FFE70198C07898B1FFE751
:1007C00040F21431C2F200010020C4F2A00008601F
:1007D00040F25C31C2F200014FF0804008600199A4
:1007E0000220087147E001980078F8B9FFE7019806
:1007F0004078D8B1FFE701988078B8B9FFE7019851
:10080000C07898B9FFE740F21431C2F200014FF00E
:100810008140086040F25C31C2F200010020C4F265
:10082000A000086001990320087123E00198007876
:10083000F8B1FFE701984078D8B9FFE701988078D0
:10084000B8B9FFE70198C07898B9FFE740F21431D2
:10085000C2F200014FF08040086040F25C31C2F209
:1008600000010020C4F2A000086001990420087172
:10087000FFE7FFE7FFE7FFE7FFE7019800780028C1
:1008800040D1FFE701984078E0BBFFE7019880780E
:10089000C0B3FFE70198C078A0BBFFE7019840799B
:1008A000012814D1FFE740F21431C2F20001002008
:1008B000C4F2A000086040F25C31C2F200010020E6
:1008C000C4F24000086001990520087119E0019800
:1008D0004079032814D1FFE740F21431C2F200013D
:1008E0000020C4F24000086040F25C31C2F2000116
:1008F0000020C4F2A0000860019906200871FFE7FB
:10090000FFE7FFE701990879487102B080BD000058
:1009100083B0019000208DF80300019890F8210029
:1009200002280DD0FFE7019904208863FFE70199B1
:10093000002081F82000FFE701208DF80B0021E066
:1009400001980168086820F00E00086001980168AD
:10095000086820F0010008600198C16B026C01205A
:1009600090404860FFE70199012081F82100FFE7EE
:100970000199002081F82000FFE79DF803008DF821
:100980000B00FFE79DF80B0003B0704780B596B0F1
:10099000159000208DF85300159890F8210002283A
:1009A00007D0FFE715990420886301208DF85300D4
:1009B00074E115980168086820F00E000860159829
:1009C0000168086820F0010008601598006881211E
:1009D000C4F202018842C0F0A880FFE715980068C1
:1009E0000821C4F20201884203D1FFE701201390DD
:1009F00094E0159800681C21C4F20201884203D1DA
:100A0000FFE71020129086E0159800683021C4F2AC
:100A10000201884204D1FFE74FF48070119077E023
:100A2000159800684421C4F20201884204D1FFE70E
:100A30004FF48050109068E0159800685821C4F277
:100A40000201884204D1FFE74FF480300F9059E053
:100A5000159800686C21C4F20201884204D1FFE7B6
:100A60004FF480100E904AE0159800688021C4F27F
:100A70000201884204D1FFE74FF080700D903BE007
:100A80001598006840F20841C4F20201884203D17F
:100A9000FFE701200C902CE01598006840F21C4103
:100AA000C4F20201884203D1FFE710200B901DE041
:100AB0001598006840F23041C4F20201884204D126
:100AC000FFE74FF480700A900DE01598016840F23E
:100AD0004442C4F202024FF48030914208BF4FF406
:100AE00080500A90FFE70A980B90FFE70B980C9054
:100AF000FFE70C980D90FFE70D980E90FFE70E981A
:100B00000F90FFE70F981090FFE710981190FFE704
:100B100011981290FFE712981390FFE7139840F294
:100B20000441C4F202010860A5E01598006808219C
:100B3000C4F20201884203D1FFE70120099094E04A
:100B4000159800681C21C4F20201884203D1FFE716
:100B50001020089086E0159800683021C4F2020148
:100B6000884204D1FFE74FF48070079077E0159832
:100B700000684421C4F20201884204D1FFE74FF427
:100B80008050069068E0159800685821C4F2020170
:100B9000884204D1FFE74FF48030059059E0159862
:100BA00000686C21C4F20201884204D1FFE74FF4CF
:100BB000801004904AE0159800688021C4F2020178
:100BC000884204D1FFE74FF0807003903BE0159816
:100BD000006840F20841C4F20201884203D1FFE7F5
:100BE000012002902CE01598006840F21C41C4F2EC
:100BF0000201884203D1FFE7102001901DE0159803
:100C0000006840F23041C4F20201884204D1FFE79B
:100C10004FF4807000900DE01598016840F2444256
:100C2000C4F202024FF48030914208BF4FF480506A
:100C30000090FFE700980190FFE701980290FFE71E
:100C400002980390FFE703980490FFE7049805904B
:100C5000FFE705980690FFE706980790FFE70798DB
:100C60000890FFE708980990FFE709980421C4F26B
:100C700002010860FFE71599012081F82100FFE7D4
:100C80001599002081F82000FFE71598406B20B1EE
:100C9000FFE71598416B8847FFE7FFE79DF8530092
:100CA00016B080BD80B5ACB02B902B98C06B00689F
:100CB0002A902B980068006829902A982B99096C33
:100CC000C8404007002840F17581FFE79DF8A40067
:100CD0004007002840F16E81FFE72B98006800680C
:100CE0008006002807D4FFE72B980168086820F0E9
:100CF00004000860FFE72B9800688121C4F202011C
:100D00008842C0F0A880FFE72B9800680821C4F251
:100D10000201884203D1FFE70420289094E02B9839
:100D200000681C21C4F20201884203D1FFE7402081
:100D3000279086E02B9800683021C4F20201884297
:100D400004D1FFE74FF48060269077E02B9800688D
:100D50004421C4F20201884204D1FFE74FF48040ED
:100D6000259068E02B9800685821C4F2020188425F
:100D700004D1FFE74FF48020249059E02B980068BD
:100D80006C21C4F20201884204D1FFE74FF48000D5
:100D900023904AE02B9800688021C4F20201884227
:100DA00004D1FFE74FF0806022903BE02B98006871
:100DB00040F20841C4F20201884203D1FFE7042057
:100DC00021902CE02B98006840F21C41C4F20201F3
:100DD000884203D1FFE7402020901DE02B98006857
:100DE00040F23041C4F20201884204D1FFE74FF4DF
:100DF00080601F900DE02B98016840F24442C4F2DD
:100E000002024FF48020914208BF4FF480401F90AF
:100E1000FFE71F982090FFE720982190FFE7219897
:100E20002290FFE722982390FFE723982490FFE782
:100E300024982590FFE725982690FFE7269827908D
:100E4000FFE727982890FFE7289840F20441C4F272
:100E500002010860A5E02B9800680821C4F2020195
:100E6000884203D1FFE704201E9094E02B9800688D
:100E70001C21C4F20201884203D1FFE740201D90EB
:100E800086E02B9800683021C4F20201884204D128
:100E9000FFE74FF480601C9077E02B9800684421B6
:100EA000C4F20201884204D1FFE74FF480401B9056
:100EB00068E02B9800685821C4F20201884204D1EE
:100EC000FFE74FF480201A9059E02B9800686C21BE
:100ED000C4F20201884204D1FFE74FF48000199068
:100EE0004AE02B9800688021C4F20201884204D1B4
:100EF000FFE74FF0806018903BE02B98006840F2CD
:100F00000841C4F20201884203D1FFE70420179090
:100F10002CE02B98006840F21C41C4F20201884288
:100F200003D1FFE7402016901DE02B98006840F2A7
:100F30003041C4F20201884204D1FFE74FF48060DF
:100F400015900DE02B98016840F24442C4F2020271
:100F50004FF48020914208BF4FF480401590FFE786
:100F600015981690FFE716981790FFE717981890B6
:100F7000FFE718981990FFE719981A90FFE71A9859
:100F80001B90FFE71B981C90FFE71C981D90FFE744
:100F90001D981E90FFE71E980421C4F2020108600C
:100FA000FFE72B98C06A20B1FFE72B98C16A8847FA
:100FB000FFE7B7E12A982B99096CC8408007002801
:100FC00040F17F81FFE79DF8A4008007002840F1F1
:100FD0007881FFE72B9800680068800600280BD412
:100FE000FFE72B980168086820F00A0008602B9939
:100FF000012081F82100FFE72B9800688121C4F2CD
:1010000002018842C0F0A880FFE72B980068082101
:10101000C4F20201884203D1FFE70220149094E059
:101020002B9800681C21C4F20201884203D1FFE71B
:101030002020139086E02B9800683021C4F2020132
:10104000884204D1FFE74FF40070129077E02B98AC
:1010500000684421C4F20201884204D1FFE74FF442
:101060000050119068E02B9800685821C4F20201EA
:10107000884204D1FFE74FF40030109059E02B98DC
:1010800000686C21C4F20201884204D1FFE74FF4EA
:1010900000100F904AE02B9800688021C4F20201F2
:1010A000884204D1FFE74FF000700E903BE02B9890
:1010B000006840F20841C4F20201884203D1FFE710
:1010C00002200D902CE02B98006840F21C41C4F2E5
:1010D0000201884203D1FFE720200C901DE02B98ED
:1010E000006840F23041C4F20201884204D1FFE7B7
:1010F0004FF400700B900DE02B98016840F24442D1
:10110000C4F202024FF40030914208BF4FF4005085
:101110000B90FFE70B980C90FFE70C980D90FFE702
:101120000D980E90FFE70E980F90FFE70F98109024
:10113000FFE710981190FFE711981290FFE71298BF
:101140001390FFE713981490FFE7149840F20441BE
:10115000C4F202010860A5E02B9800680821C4F2DF
:101160000201884203D1FFE702200A9094E02B9805
:1011700000681C21C4F20201884203D1FFE720204D
:10118000099086E02B9800683021C4F20201884261
:1011900004D1FFE74FF40070089077E02B980068C7
:1011A0004421C4F20201884204D1FFE74FF4005009
:1011B000079068E02B9800685821C4F20201884229
:1011C00004D1FFE74FF40030069059E02B980068F7
:1011D0006C21C4F20201884204D1FFE74FF40010F1
:1011E00005904AE02B9800688021C4F202018842F1
:1011F00004D1FFE74FF0007004903BE02B980068AB
:1012000040F20841C4F20201884203D1FFE7022004
:1012100003902CE02B98006840F21C41C4F20201BC
:10122000884203D1FFE7202002901DE02B98006840
:1012300040F23041C4F20201884204D1FFE74FF48A
:10124000007001900DE02B98016840F24442C4F216
:1012500002024FF40030914208BF4FF40050019059
:10126000FFE701980290FFE702980390FFE70398D9
:101270000490FFE704980590FFE705980690FFE7C4
:1012800006980790FFE707980890FFE708980990ED
:10129000FFE709980A90FFE70A980421C4F20201C7
:1012A0000860FFE7FFE72B99002081F82000FFE7A7
:1012B0002B98806A20B1FFE72B98816A8847FFE767
:1012C0002FE02A982B99096CC8400007002827D5E1
:1012D000FFE79DF8A4000007002821D5FFE72B9821
:1012E0000168086820F00E0008602B98C26B016C42
:1012F000012000FA01F151602B9988632B9981F844
:101300002100FFE72B99002081F82000FFE72B98B0
:10131000006B20B1FFE72B98016B8847FFE7FFE7E1
:10132000FFE7FFE72CB080BD83B001900020009064
:10133000019820B9FFE701208DF80B006AE00198C1
:10134000006840F20741C4F20201884218D8FFE762
:10135000019908684FF6F872CBF6FD7210444CF60E
:10136000CD42CCF6CC42A0FB02026FF0030000EAB3
:101370009200086401990020C4F20200C86318E0DA
:10138000019908684FF6F832CBF6FD7210444CF61E
:10139000CD42CCF6CC42A0FB02026FF0030000EA83
:1013A00092000864019940F20040C4F20200C86350
:1013B000FFE70199022081F8210001980068006888
:1013C0000090009843F6F0718843009001994868B6
:1013D000D1F808C0CB680A6940EA0C0018431043F2
:1013E0004A6910438A691043C96901430098084358
:1013F00000900098019909680860019900208863AD
:10140000019A012182F82110019981F820008DF8BC
:101410000B00FFE79DF80B0003B0704780B584B068
:10142000039000F0F9F902900398019001980130BF
:1014300048B1FFE740F21C00C2F2000001780198B9
:1014400008440190FFE7FFE700F0E6F90299401A2F
:101450000199884201D2FFE7F6E704B080BD0000A1
:1014600092B01190109100200F900B90FFE7109810
:1014700000680F99C840002800F09B81FFE70F9992
:10148000012088400E90109800680E9908400D9039
:101490000D980E99884240F08881FFE710984068C7
:1014A0000790002851D0FFE7079801283AD0FFE7BE
:1014B000079802283FD0FFE7079803285FD0FFE78F
:1014C0000798112832D0FFE70798122838D0FFE795
:1014D00007980021C1F21101884236D0FFE7079832
:1014E0000021C1F2120188422FD0FFE707980021A6
:1014F000C1F22101884228D0FFE707980021C1F2FC
:101500002201884221D0FFE707980021C1F2310172
:1015100088421AD0FFE707980021C1F232018842C1
:1015200013D02FE01098C0680B902CE01098C06882
:1015300004300B9027E01098C06808300B9022E030
:101540001098C0680C300B901DE01098806818B996
:10155000FFE704200B9011E010988068012806D165
:10156000FFE708200B900E981199086105E008200C
:101570000B900E9811994861FFE7FFE703E0002008
:101580000B9000E0FFE70D98FF2803D8FFE71198C4
:10159000069003E0119804300690FFE706980A9041
:1015A0000D98FF2804D8FFE70F988000059006E00B
:1015B0000F996FF01F0000EB81000590FFE7059881
:1015C00009900A980068099A0F21914088430B9965
:1015D000914008430A9908601098C079C006002815
:1015E00040F1E280FFE7FFE741F21800C4F2020099
:1015F000016841F001010160006800F001000890FD
:101600000898FFE70F9820F003000821C4F20101B9
:1016100040580C900F9800F0030081000F2000FA52
:1016200001F10C9888430C90119840F60001C4F227
:101630000101884203D1FFE70020049042E01198A5
:1016400040F60041C4F20101884203D1FFE70120C6
:10165000039034E0119841F20001C4F20101884284
:1016600003D1FFE70220029026E0119841F20041E9
:10167000C4F20101884203D1FFE70320019018E082
:10168000119841F60001C4F20101884203D1FFE73D
:10169000042000900AE0119941F60042C4F20102D0
:1016A0000620914208BF05200090FFE700980190B6
:1016B000FFE701980290FFE702980390FFE7039885
:1016C0000490FFE704980F9901F00301890000FAE4
:1016D00001F10C9808430C900C980F9921F003012C
:1016E0000822C4F20102885010988079C0060028B0
:1016F00009D5FFE70D9A40F20841C4F201010868DC
:101700001043086008E00D9A40F20841C4F201015C
:10171000086890430860FFE71098807980060028E9
:1017200009D5FFE70D9A40F20C41C4F201010868A7
:101730001043086008E00D9A40F20C41C4F2010128
:10174000086890430860FFE71098807980070028B8
:1017500009D5FFE70D9A40F20441C4F2010108687F
:101760001043086008E00D9A40F20441C4F2010100
:10177000086890430860FFE710988079C00748B177
:10178000FFE70D9A40F20041C4F2010108681043DE
:10179000086008E00D9A40F20041C4F201010868B7
:1017A00090430860FFE7FFE7FFE70F9801300F90D5
:1017B0005DE612B07047000082B00190ADF80210F3
:1017C00001988068BDF80210084204D0FFE70120AC
:1017D0008DF8010003E000208DF80100FFE79DF87F
:1017E000010002B07047000082B00190ADF8021015
:1017F0008DF801209DF8010028B1FFE7BDF8020037
:101800000199086105E0BDF8020000040199086132
:10181000FFE702B07047000040F27430C2F20000EF
:101820000068704780B58EB00C900C9820B9FFE727
:1018300001208DF8370043E10C9890F83D0040B945
:10184000FFE70C99002081F83C000C9800F044FA66
:10185000FFE70C99242081F83D000C980168086886
:1018600020F0010008600C980168086840F400400E
:1018700008600C980168086820F40040086000F0D7
:1018800067FC0A900C98406848F2A061C0F2010120
:1018900088420BD8FFE70A9948F28042C0F21E0244
:1018A0000020914238BF012009900AE00A9940F6D1
:1018B0000012C0F23D020020914238BF0120099081
:1018C000FFE70998012804D1FFE701208DF83700D0
:1018D000F6E00A984DF68361C4F21B31A0FB0110BB
:1018E000800C0B900C980068406820F03F000B992A
:1018F00008430C99096848600C980068006A20F059
:101900003F0008900C98406848F2A061C0F20101C5
:10191000884204D8FFE70B98013007900EE00B983F
:101920004FF49671484344F6D351C1F26201A0FBD3
:101930000101012000EB91100790FFE7089807993B
:1019400008430C99096808620C980068C0694CF655
:10195000FF71884306900C98406848F2A061C0F27D
:10196000010188421FD8FFE70A9801380C9949689D
:101970004900B0FBF1F001306FF31F30032803D8AA
:10198000FFE7042005900BE00A9801380C9949689C
:101990004900B0FBF1F001306FF31F300590FFE715
:1019A000059804904CE00C98806868B9FFE70A98A5
:1019B00001380C99496801EB4101B0FBF1F00130AD
:1019C0006FF31F3003900DE00A9801380C994968B5
:1019D00019225143B0FBF1F00130042161F31F30B3
:1019E0000390FFE70398000518B9FFE70120029074
:1019F00023E00C98806868B9FFE70A9801380C99D1
:101A0000496801EB4101B0FBF1F001306FF31F3089
:101A100001900DE00A9801380C9949681922514348
:101A2000B0FBF1F00130042161F31F300190FFE7BA
:101A3000019840F400400290FFE702980490FFE70D
:101A40000698049908430C990968C8610C980068C5
:101A5000006820F0C0000C9B1968DA691B6A1A4301
:101A6000104308600C980068806848F2FF31884392
:101A70000C9A1168D36812691A43104388600C9855
:101A80000068C06820F0FF000C9B19685A699B69C8
:101A90001A431043C8600C980168086840F00100C0
:101AA00008600C99002008640C9A202182F83D10EF
:101AB0000C9908630C9981F83E008DF83700FFE718
:101AC0009DF837000EB080BD10B588B084460C98E4
:101AD0000B98DDF828E0CDF818C0ADF81610ADF879
:101AE0001420ADF81230ADF81000FFF795FE03900A
:101AF000069890F83D00202840F0E680FFE7069821
:101B000003996A4611600221C0F2100101221923D3
:101B100002F0BAFF20B1FFE702208DF81F00D7E0E6
:101B2000FFE7069890F83C00012804D1FFE7022067
:101B30008DF81F00CCE00699012081F83C00FFE7FA
:101B4000FFE7069800680068C00738B9FFE7069805
:101B50000168086840F001000860FFE70698016826
:101B6000086820F4006008600699212081F83D0093
:101B70000699402081F83E000699002008640A98E2
:101B800006994862BDF81000069948850698408D70
:101B90000699088506990020CFF6FF70C86206985E
:101BA000BDF81610BDF81420BDF81230DDF830C0B5
:101BB000039CEE46CEF80440CEF800C002F070FE62
:101BC00020B1FFE701208DF81F0081E0FFE70698B4
:101BD000008D002849D0FFE706980C99039A03F07E
:101BE00081F880B1FFE70698006C042807D1FFE771
:101BF00006980168086840F400700860FFE701205B
:101C00008DF81F0064E006980168406A007808615A
:101C10000699486A013048620699088D013808859E
:101C20000699488D0138488506980068406900F09B
:101C300004010120B0EB910F16D1FFE70698008D4B
:101C400090B1FFE706980168406A0078086106993C
:101C5000486A013048620699088D0138088506995E
:101C6000488D01384885FFE7B1E706980C99039A3B
:101C700002F0B4FE80B1FFE70698006C042807D19B
:101C8000FFE706980168086840F400700860FFE705
:101C900001208DF81F001BE006980168086840F4D9
:101CA000007008600699202081F83D000699002008
:101CB00081F83E00FFE70699002081F83C00FFE72D
:101CC00000208DF81F0003E002208DF81F00FFE7C1
:101CD0009DF81F0008B010BD80B588B007900020A7
:101CE00006900590049003900798006845F2004123
:101CF000C4F2000188423ED1FFE7FFE741F218003D
:101D0000C4F20200016841F008010160006800F0BF
:101D1000080002900298FFE74FF4407003901220F1
:101D200004900320069040F60040C4F2010003A98D
:101D3000FFF796FBFFE70421C4F201010868019058
:101D4000019840F0E0600190019840F0020001909D
:101D500001980860FFE7FFE741F21C00C4F20200AF
:101D6000016841F400110160006800F40010009067
:101D70000098FFE7FFE708B080BD000040F21C00BC
:101D8000C2F20000027840F27431C2F20001086829
:101D9000104408607047000080B542F20001C4F2B0
:101DA0000201086840F010000860032000F096F877
:101DB0000F2000F005F800F03BF8002080BD000087
:101DC00080B582B0009040F21800C2F200000068B6
:101DD00040F21C01C2F200010A784FF47A71B1FBA3
:101DE000F2F1B0FBF1F000F073FD20B1FFE701204C
:101DF0008DF8070018E000980F280DD8FFE700992C
:101E00004FF0FF30002200F04FF8009840F2200120
:101E1000C2F20001086003E001208DF8070003E032
:101E200000208DF80700FFE79DF8070002B080BD95
:101E300083B0FFE741F21800C4F20200016841F0EC
:101E400001010160006800F0010002900298FFE7C4
:101E5000FFE741F21C00C4F20200016841F080512A
:101E60000160006800F0805001900198FFE7FFE7F3
:101E70000421C4F2010108680090009820F0E0609D
:101E80000090009840F00070009000980860FFE714
:101E900003B0704780B582B08DF807009DF9070048
:101EA00004F06EFC02B080BD80B586B08DF81700DE
:101EB000049103920020029004F07AFC02909DF9B4
:101EC0001700019002980499039A03F02BFC014635
:101ED000019804F075FC06B080BD000080B582B0AA
:101EE0000190019804F08EFC02B080BD80B584B0F2
:101EF00002900191029820B9FFE701208DF80F00B0
:101F00001BE1019842F20001C4F20201096801F0EC
:101F10000701884216D9FFE742F20000C4F202002E
:101F2000016821F00701019A11430160006800F087
:101F300007000199884204D0FFE701208DF80F00C7
:101F4000FBE0FFE702980078800700282AD5FFE72A
:101F5000029800784007002809D5FFE741F2040104
:101F6000C4F20201086840F4E0600860FFE70298EC
:101F700000780007002809D5FFE741F20401C4F208
:101F80000201086840F460500860FFE741F2040174
:101F9000C4F20201086820F0F000029A926810432F
:101FA0000860FFE702980078C007002860D0FFE7CC
:101FB0000298406801280ED1FFE741F20000C4F208
:101FC000020000688003002804D4FFE701208DF898
:101FD0000F00B2E021E00298406802280ED1FFE72E
:101FE00041F20000C4F2020000688001002804D41D
:101FF000FFE701208DF80F009FE00DE041F20000A7
:10200000C4F2020000688007002804D4FFE7012022
:102010008DF80F0091E0FFE7FFE741F20401C4F201
:102020000201086820F00300029A52681043086019
:10203000FFF7F2FB0090FFE741F20400C4F2020058
:10204000006800F00C0002994968B0EB810F0ED0D7
:10205000FFE7FFF7E1FB0099401A41F2893188421E
:1020600004D3FFE703208DF80F0066E0E4E7FFE705
:10207000019842F20001C4F20201096801F007016F
:10208000884216D2FFE742F20000C4F20200016863
:1020900021F00701019A11430160006800F0070078
:1020A0000199884204D0FFE701208DF80F0044E039
:1020B000FFE702980078400700280CD5FFE741F2BF
:1020C0000401C4F20201086820F4E060029AD268B8
:1020D00010430860FFE702980078000700280DD53C
:1020E000FFE741F20401C4F20201086820F46050E5
:1020F000029A126940EAC2000860FFE700F04CF85B
:1021000041F20401C4F202010968C9B20A0946F6A3
:102110000A11C0F60001895CC84040F21801C2F201
:102120000001086040F22000C2F200000068FFF7E2
:1021300047FE00208DF80F00FFE79DF80F0004B068
:1021400080BD000040F21800C2F200000068704735
:1021500080B5FFF7F7FF41F20401C4F202010968FC
:10216000C1F3022246F61A11C0F60001895CC8408C
:1021700080BD000080B5FFF7E5FF41F20401C4F225
:1021800002010968C1F3C22246F61A11C0F6000125
:10219000895CC84080BD000086B000200590049096
:1021A00003900290019041F20400C4F20200006822
:1021B0000590059800F00C000146009100283FD0E2
:1021C000FFE70098042804D0FFE70098082806D00D
:1021D00037E041F20020C0F27A00019037E0059824
:1021E000C0F3834146F62210C0F60000405C029026
:1021F0009DF81600C007C0B1FFE741F20400C4F229
:1022000002000068C0F3404146F63210C0F60000FC
:10221000405C0490029841F20021C0F27A014843E8
:102220000499B0FBF1F0039007E0029840F600112A
:10223000C0F23D0148430390FFE70398019006E098
:10224000FFE741F20020C0F27A000190FFE7019819
:1022500006B0704780B586B00490049820B9FFE7B7
:1022600001208DF817002EE304980078C00700289D
:1022700000F0AE80FFE741F20400C4F20200006803
:1022800000F00C00042813D0FFE741F20400C4F270
:102290000200006800F00C0008281BD1FFE741F2A3
:1022A0000400C4F202000068C003002812D5FFE752
:1022B00041F20000C4F2020000688003002808D543
:1022C000FFE70498406820B9FFE701208DF8170068
:1022D000F9E27CE0FFE704984068B0F5803F09D15F
:1022E000FFE741F20001C4F20201086840F48030C7
:1022F000086032E00498406868B9FFE741F20001E5
:10230000C4F20201086820F480300860086820F4F4
:102310008020086020E004984068B0F5A02F0DD11F
:10232000FFE741F20001C4F20201086840F4802096
:102330000860086840F4803008600CE041F2000159
:10234000C4F20201086820F480300860086820F4B4
:1023500080200860FFE7FFE7FFE7FFE70498406899
:10236000D0B1FFE7FFF758FA0390FFE741F2000012
:10237000C4F202000068800300280CD4FFE7FFF7D6
:102380004BFA0399401A652804D3FFE703208DF820
:10239000170098E2EAE719E0FFF73EFA0390FFE73B
:1023A00041F20000C4F202000068800300280CD54E
:1023B000FFE7FFF731FA0399401A652804D3FFE7D6
:1023C00003208DF817007EE2EAE7FFE7FFE7FFE76B
:1023D000049800788007002840F18D80FFE741F2E3
:1023E0000400C4F20200006810F00C0F13D0FFE7E5
:1023F00041F20400C4F20200006800F00C0008285A
:1024000029D1FFE741F20400C4F202000068C003D2
:10241000002820D4FFE741F20000C4F20200006867
:102420008007002809D5FFE704980069012804D037
:10243000FFE701208DF8170045E241F20001C4F2E8
:102440000201086820F0F800049A526940EAC200CC
:102450000860FFE74EE00498006958B3FFE70021E9
:10246000C4F2422101200860FFF7D6F90390FFE78C
:1024700041F20000C4F202000068800700280CD47A
:10248000FFE7FFF7C9F90399401A032804D3FFE7D0
:1024900003208DF8170016E2EAE741F20001C4F2CA
:1024A0000201086820F0F800049A526940EAC2006C
:1024B00008601EE00021C4F2422100200860FFF7FE
:1024C000ABF90390FFE741F20000C4F2020000689C
:1024D000800700280CD5FFE7FFF79EF90399401A03
:1024E000032804D3FFE703208DF81700EBE1EAE7A8
:1024F000FFE7FFE7FFE7049800780007002848D5CA
:10250000FFE70498806918B3FFE740F28041C4F206
:10251000422101200860FFF77FF90390FFE741F2B5
:102520002400C4F202000068800700280CD4FFE7F2
:10253000FFF772F90399401A032804D3FFE7032039
:102540008DF81700BFE1EAE7012003F067FA1FE00A
:1025500040F28041C4F2422100200860FFF75CF99C
:102560000390FFE741F22400C4F2020000688007F4
:1025700000280CD5FFE7FFF74FF90399401A03280D
:1025800004D3FFE703208DF817009CE1EAE7FFE79B
:10259000FFE7049800784007002840F1D880FFE763
:1025A00000208DF8070041F21C00C4F20200006810
:1025B000C000002813D4FFE7FFE741F21C00C4F27B
:1025C0000200016841F080510160006800F0805015
:1025D00000900098FFE701208DF80700FFE747F221
:1025E0000000C4F200000068C005002822D4FFE704
:1025F00047F20001C4F20001086840F480700860EE
:10260000FFF70AF90390FFE747F20000C4F2000069
:102610000068C00500280CD4FFE7FFF7FDF8039918
:10262000401A652804D3FFE703208DF817004AE11C
:10263000EAE7FFE7FFE70498C068012809D1FFE750
:1026400041F22001C4F20201086840F00100086074
:1026500031E00498C06868B9FFE741F22001C4F294
:102660000201086820F001000860086820F00400FA
:1026700008601FE00498C06805280DD1FFE741F20B
:102680002001C4F20201086840F0040008600868F4
:1026900040F0010008600CE041F22001C4F20201A8
:1026A000086820F001000860086820F00400086055
:1026B000FFE7FFE7FFE7FFE70498C068E0B1FFE747
:1026C000FFF7AAF80390FFE741F22000C4F20200EE
:1026D0000068800700280ED4FFE7FFF79DF80399F4
:1026E000401A41F28931884204D3FFE703208DF874
:1026F0001700E8E0E8E71BE0FFF78EF80390FFE73C
:1027000041F22000C4F202000068800700280ED5C4
:10271000FFE7FFF781F80399401A41F289318842B7
:1027200004D3FFE703208DF81700CCE0E8E7FFE7CC
:102730009DF80700012809D1FFE741F21C01C4F20E
:102740000201086820F080500860FFE7FFE7049866
:10275000C069002800F0B380FFE741F20400C4F232
:102760000200006800F00C00082800F08280FFE7FB
:102770000498C06902285CD1FFE76021C4F24221BD
:1027800000200860FFF748F80390FFE741F20000DF
:10279000C4F202000068800100280CD5FFE7FFF7B3
:1027A0003BF80399401A032804D3FFE703208DF870
:1027B000170088E0EAE70498006AB0F5803F0CD182
:1027C000FFE741F20401C4F20201086820F400307E
:1027D000049A926810430860FFE741F20401C4F2D2
:1027E0000201086820F47410049B1A6A5B6A1A4399
:1027F000104308606021C4F2422101200860FFF705
:102800000BF80390FFE741F20000C4F202000068F9
:10281000800100280CD4FFE7FEF7FEFF0399401A61
:10282000032804D3FFE703208DF817004BE0EAE705
:102830001EE06021C4F2422100200860FEF7ECFF98
:102840000390FFE741F20000C4F20200006880013B
:1028500000280CD5FFE7FEF7DFFF0399401A032895
:1028600004D3FFE703208DF817002CE0EAE7FFE729
:1028700024E00498C069012804D1FFE701208DF805
:10288000170020E041F20400C4F202000068029048
:10289000029800F480300499096A884208D1FFE761
:1028A000029800F470100499496A884204D0FFE746
:1028B00001208DF8170006E0FFE7FFE7FFE70020A3
:1028C0008DF81700FFE79DF8170006B080BD0000E7
:1028D00080B582B00190019803F0D2F802B080BDBB
:1028E00081B0009001B0704781B0009001B0704796
:1028F00084B00290019100200090FFE7029890F8C8
:102900003C00012804D1FFE702208DF80F0044E0CD
:102910000299012081F83C00FFE7FFE7009820F0D2
:10292000FF000199C96808430090009820F44070A6
:102930000199896808430090009820F4806001990B
:10294000496808430090009820F4006001990968E4
:1029500008430090009820F48050019909690843C9
:102960000090009820F400500199496908430090B4
:10297000009820F480400199C969084300900098AC
:10298000029909684864FFE70299002081F83C0039
:10299000FFE700208DF80F00FFE79DF80F0004B05F
:1029A0007047000085B003900291FFE7039890F80C
:1029B0003C00012804D1FFE702208DF813006DE0F0
:1029C0000399012081F83C00FFE7FFE7039902200B
:1029D00081F83D0003980068406801900398006802
:1029E00080680090019820F07000019002980168C2
:1029F0000198084301900198039909684860039879
:102A0000006842F60041C4F2010188422AD0FFE783
:102A10000398006843F20041C4F20101884221D0CA
:102A2000FFE703980068B0F1804F1BD0FFE70398E1
:102A3000006840F20041C4F20001884212D0FFE772
:102A40000398006840F60001C4F20001884209D0F2
:102A5000FFE70398006840F60041C4F20001884295
:102A60000ED1FFE7009820F08000009002984168A6
:102A70000098084300900098039909688860FFE770
:102A80000399012081F83D00FFE70399002081F8B8
:102A90003C00FFE700208DF81300FFE79DF81300CE
:102AA00005B0704780B582B00090009820B9FFE76C
:102AB00001208DF807003FE0009890F83D0040B9F4
:102AC000FFE70099002081F83C00009800F038F8FA
:102AD000FFE70099022081F83D00009951F8040BAE
:102AE00003F05CF80099012081F84600FFE70099A7
:102AF000012081F83E00009981F83F00009981F89B
:102B00004000009981F84100FFE7FFE700990120AC
:102B100081F84200009981F84300009981F844004F
:102B2000009981F84500FFE70099012081F83D00F8
:102B300000208DF80700FFE79DF8070002B080BD78
:102B400080B590B00F9000200E900D900C900B90DF
:102B50000F98006842F60041C4F20101884210D18A
:102B6000FFE7FFE741F21800C4F20200016841F4F8
:102B700000610160006800F400600A900A98FFE7B5
:102B80009BE00F980068B0F1804F10D1FFE7FFE79E
:102B900041F21C00C4F20200016841F00101016031
:102BA000006800F0010009900998FFE784E00F98A1
:102BB000006840F60001C4F20001884235D1FFE709
:102BC000FFE741F21C00C4F20200016841F0040179
:102BD0000160006800F0040008900898FFE7FFE734
:102BE00041F21800C4F20200016841F008010160DE
:102BF000006800F0080007900798FFE740200B905E
:102C0000002003900C900D9040F60040C4F20100AB
:102C10000BA9FEF725FC039A1E2004901146FFF72E
:102C200043F90498FFF736F945E00F98006841F240
:102C30000001C4F20001884219D1FFE7FFE741F229
:102C40001C00C4F20200016841F01001016000683C
:102C500000F0100006900698FFE736200290002250
:102C60001146FFF721F90298FFF714F922E00F98B7
:102C7000006841F20041C4F20001884219D1FFE727
:102C8000FFE741F21C00C4F20200016841F020019C
:102C90000160006800F0200005900598FFE73720EC
:102CA000019000221146FFF7FFF80198FFF7F2F8B4
:102CB000FFE7FFE7FFE7FFE7FFE710B080BD000099
:102CC00083B00190019890F83D00012804D0FFE7FF
:102CD00001208DF80B0059E00199022081F83D0098
:102CE00001980168C86840F00100C8600198006858
:102CF00042F60041C4F2010188422AD0FFE7019860
:102D0000006843F20041C4F20101884221D0FFE78C
:102D100001980068B0F1804F1BD0FFE70198006870
:102D200040F20041C4F20001884212D0FFE701984E
:102D3000006840F60001C4F20001884209D0FFE7B4
:102D40000198006840F60041C4F20001884212D1A7
:102D5000FFE701980068806800F007000090009885
:102D6000062807D0FFE701980168086840F00100D5
:102D70000860FFE706E001980168086840F001007C
:102D80000860FFE700208DF80B00FFE79DF80B00BF
:102D900003B0704780B586B00490039100208DF891
:102DA0000B00FFE7049890F83C00012804D1FFE7EE
:102DB00002208DF81700ABE00499012081F83C0057
:102DC000FFE7FFE70499022081F83D0004980068BE
:102DD00080680190019820F077000190019820F41C
:102DE0007F40019001980499096888600398006801
:102DF0000090002872D0FFE7009810286ED0FFE7FF
:102E0000009820286AD0FFE70098302866D0FFE7B6
:102E10000098402855D0FFE70098502837D0FFE7AA
:102E20000098602840D0FFE7009870280BD0FFE79B
:102E30000098B0F5805F05D0FFE70098B0F5005F1F
:102E400016D052E055E004980068039B5A689968D0
:102E5000DB6802F05FFF04980068806801900198C9
:102E600040F077000190019804990968886040E07B
:102E700004980068039B5A689968DB6802F04AFF6F
:102E800004980168886840F48040886031E00498C4
:102E90000068039A5168D26803F030F9049800681A
:102EA000502102F051FF24E004980068039A516811
:102EB000D26803F0C3F904980068602102F044FF6F
:102EC00017E004980068039A5168D26803F016F975
:102ED00004980068402102F037FF0AE00498006877
:102EE0000399096802F030FF03E001208DF80B0020
:102EF000FFE70499012081F83D00FFE704990020D5
:102F000081F83C00FFE79DF80B008DF81700FFE704
:102F10009DF8170006B080BD80B586B0049003917F
:102F2000049820B9FFE701208DF8170084E0049889
:102F300090F83D0040B9FFE70499002081F83C007B
:102F4000049800F07DF8FFE70499022081F83D0025
:102F500004980168886844F20702904388600499E5
:102F600051F8040B02F01AFE049800688068029081
:102F7000049800688069019004980068006A0090D5
:102F800003980168029808430290019840F20331C7
:102F90008843019003998868896940EA0121019872
:102FA00008430190019840F60C4188430190019834
:102FB0004FF2F001884301900399C868C96940EA5B
:102FC000012101980843019003990869096A0001E9
:102FD00040EA0131019808430190009820F0220056
:102FE000009003994868496940EA01110098084334
:102FF000009002980499096888600198049909680A
:10300000886100980499096808620499012081F890
:103010004600049981F83E00049981F83F00049924
:1030200081F84200049981F84300049981F83D0039
:1030300000208DF81700FFE79DF8170006B080BD4F
:1030400080B58EB00D9000200C900B900A900990E6
:103050000D98006840F20041C4F20001884236D168
:10306000FFE7FFE741F21C00C4F20200016841F0F3
:1030700002010160006800F0020008900898FFE774
:10308000FFE741F21800C4F20200016841F00401B8
:103090000160006800F0040007900798FFE7C02077
:1030A0000990002003900A9001200B9040F6000048
:1030B000C4F2010009A9FEF7D3F9039A1D20049078
:1030C0001146FEF7F1FE0498FEF7E4FE3FE00D988E
:1030D000006840F60041C4F20001884236D1FFE7A3
:1030E000FFE741F21C00C4F20200016841F0080150
:1030F0000160006800F0080006900698FFE7FFE70F
:1031000041F21800C4F20200016841F004010160BC
:10311000006800F0040005900598FFE7032009907F
:10312000002001900A9001200B9040F60000C4F2AC
:10313000010009A9FEF794F9019A32200290114684
:10314000FEF7B2FE0298FEF7A5FEFFE7FFE70EB01E
:1031500080BD000080B586B004900391049890F87B
:103160003E008DF80B00049890F83F008DF80A009F
:10317000049890F842008DF80900049890F84300F4
:103180008DF808000398B8B9FFE79DF80B000128F7
:1031900005D1FFE79DF80900012804D0FFE70120D1
:1031A0008DF8170079E00499022081F83E00049917
:1031B00081F84200FFE742E00398042817D1FFE7B7
:1031C0009DF80A00012805D1FFE79DF808000128B5
:1031D00004D0FFE701208DF817005EE0049902207B
:1031E00081F83F00049981F84300FFE726E09DF84D
:1031F0000B0001280FD1FFE79DF80A0001280AD132
:10320000FFE79DF80900012805D1FFE79DF80800B8
:10321000012804D0FFE701208DF817003DE0049954
:10322000022081F83E00049981F83F00049981F85A
:103230004200049981F84300FFE7FFE7FFE70398A6
:10324000019020B1FFE70198042807D00DE0049811
:1032500000680021012202F041FD14E0049800689A
:103260000421012202F03AFD0DE0049800680021DB
:103270000122009202F032FD009A049800680421B5
:1032800002F02CFDFFE704980168086840F0010097
:10329000086000208DF81700FFE79DF8170006B0C2
:1032A00080BD000080B586B00590059840F2AC1155
:1032B000C2F20001884274D1FFE740F22C00C2F252
:1032C000000000780146049120B1FFE7049801282E
:1032D00024D064E040F2AC10C2F20000002100F003
:1032E00085FF40F2CC01C2F200010860FFE740F226
:1032F000AC10C2F200000268116A21F00A011162EA
:103300000168086A40F002000862FFE740F22C0101
:10331000C2F2000108780130087041E040F2AC10C0
:10332000C2F2000001900021029100F05FFF0299BB
:103330000246019840F2CC03C2F2000303935A60A4
:1033400000F05EFA019A0299039840F22C03C2F24F
:10335000000319701268516201684068411A40F216
:103360007030C2F2000001600068FDF76EF84CF2A8
:103370009C42CBF2200246F67203C3F69173FCF72F
:10338000CDFFFDF788F840F23001C2F2000108607D
:1033900040F22D01C2F200010120087000E0FFE7B9
:1033A000FFE706B080BD000080B586B004900391B1
:1033B000029200208DF80700FFE7049890F83C0087
:1033C000012804D1FFE702208DF8170080E004995E
:1033D000012081F83C00FFE7FFE70298B0B9FFE762
:1033E00004980068039B19685A68DB6802F0AEFE17
:1033F00004980168886920F00C008861039882684D
:103400000498016888691043886156E0029804288E
:1034100017D1FFE704980068039B19685A68DB68B6
:1034200002F036FF04980168886920F440608861E2
:103430000398826804980168886940EA02208861DC
:103440003AE00298082816D1FFE704980068039B29
:1034500019685A68DB6802F051FF04980168C8696E
:1034600020F00C00C8610398826804980168C8695C
:103470001043C8611FE002980C2817D1FFE7049899
:103480000068039B19685A68DB6802F06DFF0498B6
:103490000168C86920F44060C86103988268049894
:1034A0000168C86940EA0220C86103E001208DF884
:1034B0000700FFE7FFE7FFE7FFE7FFE704990020CA
:1034C00081F83C00FFE79DF807008DF81700FFE743
:1034D0009DF8170006B080BD80B582B000900098BE
:1034E00020B9FFE701208DF807003FE0009890F831
:1034F0003D0040B9FFE70099002081F83C000098AA
:1035000000F038F8FFE70099022081F83D000099AB
:1035100051F8040B02F042FB0099012081F84600AB
:10352000FFE70099012081F83E00009981F83F00F3
:10353000009981F84000009981F84100FFE7FFE71A
:103540000099012081F84200009981F84300009918
:1035500081F84400009981F84500FFE700990120B7
:1035600081F83D0000208DF80700FFE79DF8070077
:1035700002B080BD81B0009001B0704780B592B0BC
:1035800010900F9100208DF83B000F9828B9FFE7AD
:10359000109890F83E000B901CE00F98042805D17D
:1035A000FFE7109890F83F000A9010E00F98082865
:1035B00005D1FFE7109890F84000099004E01098BA
:1035C00090F841000990FFE709980A90FFE70A98F0
:1035D0000B90FFE70B988DF833000F9828B9FFE7A1
:1035E000109890F8420008901CE00F98042805D12C
:1035F000FFE7109890F84300079010E00F98082814
:1036000005D1FFE7109890F84400069004E0109868
:1036100090F845000690FFE706980790FFE70798A7
:103620000890FFE708988DF832009DF833000128D4
:1036300005D1FFE79DF83200012804D0FFE7012003
:103640008DF84700D8E00F9828B9FFE710990220BD
:1036500081F83E001EE00F98042806D1FFE710997C
:10366000022081F83F00059012E00F98082806D14B
:10367000FFE71099022081F84000049005E01099BE
:10368000022081F841000490FFE704980590FFE7CD
:103690000598FFE70F9828B9FFE71099022081F8F5
:1036A00042001EE00F98042806D1FFE7109902207F
:1036B00081F84300039012E00F98082806D1FFE735
:1036C0001099022081F84400029005E01099022030
:1036D00081F845000290FFE702980390FFE7039806
:1036E000FFE70F9801900C2825D80199DFE801F039
:1036F000072323230E232323152323231C001098A1
:103700000168C86840F00200C86018E010980168BD
:10371000C86840F00400C86011E010980168C868EB
:1037200040F00800C8600AE010980168C86840F0DE
:103730001000C86003E001208DF83B00FFE79DF812
:103740003B00002853D1FFE7109800680F99012231
:1037500002F0C4FA1098006842F60041C4F2010178
:1037600088422AD0FFE71098006843F20041C4F273
:103770000101884221D0FFE710980068B0F1804F26
:103780001BD0FFE71098006840F20041C4F200012E
:10379000884212D0FFE71098006840F60001C4F29A
:1037A0000001884209D0FFE71098006840F6004108
:1037B000C4F20001884212D1FFE7109800688068C7
:1037C00000F007000D900D98062807D0FFE710982D
:1037D0000168086840F001000860FFE706E0109803
:1037E0000168086840F001000860FFE7FFE79DF806
:1037F0003B008DF84700FFE79DF8470012B080BD01
:1038000080B588B00790069100208DF817000698C3
:1038100004900C2825D80499DFE801F0072323231E
:103820000E232323152323231C0007980168C8684F
:1038300020F00200C86018E007980168C86820F00E
:103840000400C86011E007980168C86820F008000B
:10385000C8600AE007980168C86820F01000C860D6
:1038600003E001208DF81700FFE79DF817000028FE
:103870006FD1FFE7079800680699002202F02EFA40
:10388000FFE707980068006A41F21111084210D161
:10389000FFE707980068006A40F24441084207D1F8
:1038A000FFE707980168086820F001000860FFE75B
:1038B000FFE7FFE7069828B9FFE70799012081F89D
:1038C0003E001EE00698042806D1FFE70799012074
:1038D00081F83F00039012E00698082806D1FFE720
:1038E0000799012081F84000029005E00799012026
:1038F00081F841000290FFE702980390FFE70398E8
:10390000FFE7069828B9FFE70799012081F84200F0
:103910001EE00698042806D1FFE70799012081F8E8
:103920004300019012E00698082806D1FFE70799A6
:10393000012081F84400009005E00799012081F8FA
:1039400045000090FFE700980190FFE70198FFE72E
:10395000FFE79DF8170008B080BD000080B582B079
:10396000019001980068006900F002010020B0EBAE
:10397000510F28D0FFE701980068C06800F00201ED
:103980000020B0EB510F1DD0FFE7019801686FF0E8
:103990000200086101990120087701980068806998
:1039A000800720B1FFE70198FFF77CFC06E0019853
:1039B00000F09AF9019800F08FFAFFE701990020D2
:1039C0000877FFE7FFE701980068006900F004014D
:1039D0000020B0EB910F29D0FFE701980068C06884
:1039E00000F004010020B0EB910F1ED0FFE701981A
:1039F00001686FF0040008610199022008770198BE
:103A00000068806910F4407F04D0FFE70198FFF759
:103A100049FC06E0019800F067F9019800F05CFAB3
:103A2000FFE7019900200877FFE7FFE701980068AA
:103A3000006900F008010020B0EBD10F28D0FFE7AB
:103A400001980068C06800F008010020B0EBD10FB9
:103A50001DD0FFE7019801686FF008000861019927
:103A60000420087701980068C069800720B1FFE74B
:103A70000198FFF717FC06E0019800F035F901986E
:103A800000F02AFAFFE7019900200877FFE7FFE737
:103A900001980068006900F010010020B0EB111FD0
:103AA00029D0FFE701980068C06800F010010020ED
:103AB000B0EB111F1ED0FFE7019801686FF01000F6
:103AC000086101990820087701980068C06910F41E
:103AD000407F04D0FFE70198FFF7E4FB06E0019880
:103AE00000F002F9019800F0F7F9FFE701990020D2
:103AF0000877FFE7FFE7019800680069C00780B119
:103B0000FFE701980068C068C00748B1FFE7019867
:103B100001686FF001000861019800F0B7FAFFE753
:103B2000FFE7019800680069C1B20020B0EBD11F27
:103B300013D0FFE701980068C068C1B20020B0EB65
:103B4000D11F09D0FFE7019801686FF0800008617C
:103B50000198FEF7C5FEFFE7FFE7019800680069DE
:103B600000F040010020B0EB911F14D0FFE7019856
:103B70000068C06800F040010020B0EB911F09D040
:103B8000FFE7019801686FF040000861019800F0BC
:103B900059FBFFE7FFE701980068006900F020018A
:103BA0000020B0EB511F14D0FFE701980068C068F7
:103BB00000F020010020B0EB511F09D0FFE7019871
:103BC00001686FF0200008610198FEF78DFEFFE7A5
:103BD000FFE702B080BD000080B58CB00B900020E4
:103BE0000A900990089007900B98006842F60041EF
:103BF000C4F2010188421ED1FFE7FFE741F218003D
:103C0000C4F20200016841F004010160006800F0A4
:103C1000040006900698FFE74FF40060079002202A
:103C2000089003200A9040F60000C4F2010007A9A2
:103C3000FDF716FC55E00B980068B0F1804F4FD1AE
:103C4000FFE7FFE741F21800C4F20200016841F00B
:103C500004010160006800F0040005900598FFE78A
:103C6000FFE741F21800C4F20200016841F00801C8
:103C70000160006800F0080004900498FFE748F233
:103C80000C0007900220019008900A9040F6000076
:103C9000C4F2010007A90291FDF7E2FB0198029925
:103CA0000822079208900A9040F60040C4F20100F2
:103CB000FDF7D6FBFFE70421C4F201010868039079
:103CC000039820F440700390039840F0E060039064
:103CD000039840F48070039003980860FFE7FFE7C3
:103CE000FFE70CB080BD000081B0009001B07047CC
:103CF00080B586B004900391029200208DF80700F1
:103D0000FFE7049890F83C00012804D1FFE7022067
:103D10008DF8170089E00499012081F83C00FFE745
:103D2000FFE7029800900C2800F270800099DFE80D
:103D300001F0076D6D6D206D6D6D3A6D6D6D530009
:103D400004980068039902F015F8049801688869DE
:103D500040F00800886104980168886920F0040038
:103D60008861039802690498016888691043886132
:103D700050E004980068039902F074F80498016810
:103D8000886940F40060886104980168886920F4BB
:103D9000806088610398026904980168886940EA34
:103DA0000220886136E004980068039902F0D6F892
:103DB00004980168C86940F00800C8610498016867
:103DC000C86920F00400C86103980269049801687A
:103DD000C8691043C8611DE004980068039902F0A7
:103DE00039F904980168C86940F40060C861049812
:103DF0000168C86920F48060C8610398026904986A
:103E00000168C86940EA0220C86103E001208DF81A
:103E10000700FFE7FFE70499002081F83C00FFE777
:103E20009DF807008DF81700FFE79DF8170006B012
:103E300080BD000080B582B00090009820B9FFE7F7
:103E400001208DF807003FE0009890F83D0040B950
:103E5000FFE70099002081F83C00009800F038F856
:103E6000FFE70099022081F83D00009951F8040B0A
:103E700001F094FE0099012081F84600FFE70099C7
:103E8000012081F83E00009981F83F00009981F8F7
:103E90004000009981F84100FFE7FFE70099012009
:103EA00081F84200009981F84300009981F84400AC
:103EB000009981F84500FFE70099012081F83D0055
:103EC00000208DF80700FFE79DF8070002B080BDD5
:103ED00081B0009001B0704781B0009001B0704790
:103EE00080B58CB00A900991099828B9FFE70A9823
:103EF00090F83E0007901CE00998042805D1FFE7E0
:103F00000A9890F83F00069010E00998082805D11B
:103F1000FFE70A9890F84000059004E00A9890F8AE
:103F200041000590FFE705980690FFE70698079087
:103F3000FFE70798012804D0FFE701208DF82F0044
:103F40009FE0099828B9FFE70A99022081F83E000E
:103F50001EE00998042806D1FFE70A99022081F89B
:103F60003F00049012E00998082806D1FFE70A995B
:103F7000022081F84000039005E00A99022081F8B0
:103F800041000390FFE703980490FFE70498FFE7E0
:103F90000A98006809990122019201F09FFE019898
:103FA0000A99096842F60042C4F201029142029065
:103FB0000CD0FFE70A9800684CF60041CBF6FE7182
:103FC0000844B0FA80F040090290FFE70298C00769
:103FD00038B1FFE70A980168486C40F40040486433
:103FE000FFE70A98006842F60041C4F201018842E6
:103FF0002AD0FFE70A98006843F20041C4F20101A9
:10400000884221D0FFE70A980068B0F1804F1BD0AA
:10401000FFE70A98006840F20041C4F200018842BC
:1040200012D0FFE70A98006840F60001C4F20001D0
:10403000884209D0FFE70A98006840F60041C4F2C0
:104040000001884212D1FFE70A980068806800F0FA
:10405000070008900898062807D0FFE70A9801682B
:10406000086840F001000860FFE706E00A98016870
:10407000086840F001000860FFE700208DF82F007D
:10408000FFE79DF82F000CB080BD000080B58CB01C
:104090000B900B9840F23C21C2F2000188422ED1D5
:1040A000FFE741F20000C4F20100089001210991EC
:1040B00000220A92FDF798FB0898099A1146FDF72D
:1040C00093FB142002F0BCFB089809990A9AFDF7AB
:1040D0008BFBFFE740F2AC10C2F200000268116AED
:1040E00021F00A0111620168086A0862FFE740F2E4
:1040F000AC10C2F200000021FFF740FAFFE70B9876
:1041000040F28421C2F2000188426DD1FFE740F203
:10411000F411C2F200010868426A40F21830C2F29B
:1041200000000590028040F26412C2F2000213689F
:104130005B6A438043885B4243800B68002159627D
:1041400012685162B0F90000FCF776F90021C4F260
:10415000C8210191FCF772F80021C4F2A01102916C
:10416000FCF79EF80021C4F230110391FCF798F897
:104170004FF081410491FCF793F8014605984160A6
:10418000B0F90200FCF758F90199FCF757F80299C9
:10419000FCF786F80399FCF783F80499FCF780F89C
:1041A0000599886040F21430C2F200004A68016844
:1041B00040F22430C2F20000069001F0B9FBFCF797
:1041C00051F9059A01460698079140F25C31C2F216
:1041D00000019268096801F0ABFBFCF743F9014666
:1041E000079800F0D3FDFFE70CB080BD84B00390CA
:1041F000029100200190029800900C281DD800998F
:10420000DFE801F0071B1B1B0C1B1B1B111B1B1BDF
:10421000160003980068406B01900FE00398006857
:10422000806B01900AE003980068C06B019005E084
:1042300003980068006C019000E0FFE7019804B06B
:104240007047000081B0009001B0704782B00190CB
:10425000ADF8021002B0704781B0009001B0704715
:1042600080B592B011901198006800681090119874
:104270000068C0680F901198006840690E90002097
:104280000D900C90109800F00F000D900D9888B9CB
:10429000FFE79DF84000800600280AD5FFE79DF85B
:1042A0003C008006002804D5FFE7119802F000F9D1
:1042B000E9E1FFE70D98002800F0C280FFE79DF8D4
:1042C0003800C00738B9FFE7BDF83C0010F4907F14
:1042D00000F0B680FFE79DF84000C00758B1FFE747
:1042E0009DF83D00C00730B1FFE71199486C40F0E0
:1042F00001004864FFE79DF84000400700280BD507
:10430000FFE79DF83800C00730B1FFE71199486C0E
:1043100040F002004864FFE79DF840008007002855
:104320000BD5FFE79DF83800C00730B1FFE71199C2
:10433000486C40F004004864FFE79DF84000000727
:10434000002811D5FFE79DF83C008006002805D421
:10435000FFE79DF83800C00730B1FFE71199486CBE
:1043600040F008004864FFE71198406C002866D0D0
:10437000FFE79DF84000800600280AD5FFE79DF87A
:104380003C008006002804D5FFE7119802F090F861
:10439000FFE7119800684069C0F380100C901198F5
:1043A000406C0007002804D4FFE70C9800283ED09A
:1043B000FFE7119802F01EF8119800684069400666
:1043C00000282FD5FFE7FFE7FFE71198006850E8C6
:1043D000050F20F040000B90FFE70B991198026841
:1043E00042E805100028F0D1FFE7FFE71198C06B05
:1043F00098B1FFE71198C16B46F2D530C0F60000C6
:1044000048631198C06BFCF7C1FA28B1FFE7119817
:10441000C06B416B8847FFE703E01198FFF71CFF73
:10442000FFE703E01198FFF717FFFFE706E0119899
:10443000FFF712FF119900204864FFE7FFE722E130
:104440001198006B012840F0FE80FFE79DF84000C6
:10445000C006002840F1F780FFE79DF83C00C00649
:10446000002840F1F080FFE7FFE700200A90119854
:10447000006800680A901198006840680A900A98DD
:10448000FFE71198006840694006002840F18180EC
:10449000FFE71198C06B00684068ADF82600BDF8D2
:1044A0002600002874D0FFE7BDF826001199898DF9
:1044B00088426DDAFFE7BDF826001199C88511988A
:1044C000C06B8069202858D0FFE7FFE7FFE711980D
:1044D000006850E8030F20F480700890FFE7089907
:1044E0001198026842E803100028F0D1FFE7FFE7C7
:1044F000FFE7FFE71198006850E8050F20F0010082
:104500000790FFE707991198026842E80510002814
:10451000F0D1FFE7FFE7FFE7FFE71198006850E8F9
:10452000050F20F040000690FFE7069911980268F9
:1045300042E805100028F0D1FFE7FFE7119920209D
:1045400081F84200119900200863FFE7FFE7119806
:10455000006850E8030F20F010000590FFE7059970
:104560001198026842E803100028F0D1FFE7FFE746
:104570001198C06BFCF7CCF9FFE711990220486352
:104580001198818DC28D891A89B2FFF75FFEFFE70E
:1045900079E01199888DC98D401AADF812001198F3
:1045A000C08D00284ED0FFE7BDF81200002849D08A
:1045B000FFE7FFE7FFE71198006850E8030F20F4DA
:1045C00090700390FFE703991198026842E8031086
:1045D0000028F0D1FFE7FFE7FFE7FFE71198006849
:1045E00050E8050F20F001000290FFE702991198B2
:1045F000026842E805100028F0D1FFE7FFE71199B3
:10460000202081F84200119900200863FFE7FFE7AE
:104610001198006850E8030F20F010000190FFE7A8
:1046200001991198026842E803100028F0D1FFE7D1
:10463000FFE71199022048631198BDF81210FFF7A7
:1046400005FEFFE71FE09DF84000000600280AD5A0
:10465000FFE79DF83C000006002804D5FFE711980D
:1046600002F03AF80FE09DF84000400600280AD515
:10467000FFE79DF83C004006002804D5FFE71198AD
:1046800001F002FFFFE712B080BD000080B582B0EC
:104690000090009820B9FFE701208DF8070040E066
:1046A0000098806908B1FFE700E0FFE7009890F804
:1046B000410040B9FFE70099002081F840000098D0
:1046C00000F034F8FFE70099242081F841000098B9
:1046D0000168C86820F40050C860009801F09EFF8F
:1046E00000980168086920F490400861009801680A
:1046F000486920F02A00486100980168C86840F4C1
:104700000050C860009900204864009A202182F877
:104710004110009A82F84210009948638DF8070012
:10472000FFE79DF8070002B080BD000080B58EB0A5
:104730000D9000200C900B900A9009900D98006845
:1047400043F60001C4F2010188426AD1FFE7FFE7A6
:1047500041F21800C4F20200016841F48041016096
:10476000006800F4804008900898FFE7FFE741F2F6
:104770001800C4F20200016841F004010160006801
:1047800000F0040007900798FFE74FF400700490D2
:10479000099002200A9003200C9040F60000C4F219
:1047A0000100029009A90391FCF75AFE02980399AF
:1047B0004FF480620992002205920A920B92FCF754
:1047C0004FFE049A059940F23400C2F200000690B0
:1047D0004423C4F202030360102343608160C1607C
:1047E00002614FF4006242618161C161FCF79CFD8E
:1047F00018B1FFE7FBF766FFFFE7FFE70D9840F210
:104800003401C2F2000181630D984862FFE7252060
:10481000019000221146FDF747FB0198FDF73AFB96
:10482000FFE70EB080BD000081B0009001B070477E
:1048300081B0009001B07047FFE7FEE782B00090C2
:1048400000980068406900F480610120B0EB912F6E
:104850001ED1FFE7009801686FF4806048610099FD
:1048600000200863009A202182F83D10009981F809
:104870003E000099086C40F004000864FFE70099CE
:10488000002081F83C00FFE701208DF8070003E0DD
:1048900000208DF80700FFE79DF8070002B0704781
:1048A00080B586B0DDF824C0DDF820C00490ADF8F6
:1048B0000E10ADF80C20ADF80A30049801680868B5
:1048C00040F4807008600498089B09996A4611605A
:1048D0004FF00111002200F0D7F880B1FFE70498F3
:1048E00000680068C005002805D5FFE704994FF46B
:1048F00000700864FFE703208DF8170069E0BDF839
:104900000E0000F0FE000499096808610498089AF6
:10491000099B0221C0F2010100F03AF920B1FFE742
:1049200001208DF8170054E0FFE700200190049863
:1049300000684069019004980068806901900198BE
:10494000FFE704980899099A00F0CCF980B1FFE7D5
:104950000498006C042807D1FFE7049801680868F0
:1049600040F400700860FFE701208DF8170030E088
:10497000BDF80A00012806D1FFE79DF80C00049954
:104980000968086121E09DF80D0004990968086133
:1049900004980899099A00F0A5F980B1FFE70498F6
:1049A000006C042807D1FFE704980168086840F408
:1049B00000700860FFE701208DF8170009E09DF8FE
:1049C0000C00049909680861FFE700208DF81700C2
:1049D000FFE79DF8170006B080BD000080B584B0E9
:1049E000029001910092FFE702980068406900F090
:1049F00004010020B0EB910F3ED1FFE70298FFF7D2
:104A00001DFF20B1FFE701208DF80F0038E001986D
:104A1000013080B3FFE7FCF7FFFE0099401A0199CF
:104A2000884203D8FFE7019820BBFFE7029800689F
:104A3000406900F004010020B0EB910F19D1FFE7AD
:104A4000029900200863029A202182F83D10029901
:104A500081F83E000299086C40F020000864FFE7EE
:104A60000299002081F83C00FFE701208DF80F003B
:104A700006E0FFE7FFE7B7E700208DF80F00FFE74C
:104A80009DF80F0004B080BD80B588B0DDF828C067
:104A9000069005918DF813200393FFE79DF816000B
:104AA00001280CD1FFE7069800684069BDF8141092
:104AB0000840401AB0FA80F0400902900BE00698D6
:104AC00000688069BDF814100840401AB0FA80F000
:104AD00040090290FFE702989DF8131088424FD1D9
:104AE000FFE703980130002849D0FFE7FCF794FE68
:104AF0000A99401A0399884203D8FFE70398E8BB54
:104B0000FFE79DF8160001280CD1FFE70698006822
:104B10004069BDF814100840401AB0FA80F040090E
:104B200001900BE0069800688069BDF814100840F9
:104B3000401AB0FA80F040090190FFE701989DF813
:104B40001310884219D1FFE7069900200863069ADE
:104B5000202182F83D10069981F83E000699086CE4
:104B600040F020000864FFE70699002081F83C002F
:104B7000FFE701208DF81F0006E0FFE7FFE78DE764
:104B800000208DF81F00FFE79DF81F0008B080BDD2
:104B900080B588B00690059104920393FFE79DF8D5
:104BA000160001280CD1FFE7069800684069BDF89F
:104BB00014100840401AB0FA80F0400902900BE04F
:104BC000069800688069BDF814100840401AB0FAD1
:104BD00080F040090290FFE7029800287AD1FFE7B1
:104BE00006980068406900F480610120B0EB912FC5
:104BF00024D1FFE706980168086840F40070086057
:104C0000069801686FF48060486106990020086387
:104C1000069A202182F83D10069981F83E000699F7
:104C2000086C40F004000864FFE70699002081F852
:104C30003C00FFE701208DF81F004FE00498013091
:104C4000002846D0FFE7FCF7E7FD0399401A0499D6
:104C5000884203D8FFE70498D0BBFFE79DF8160011
:104C600001280CD1FFE7069800684069BDF81410D0
:104C70000840401AB0FA80F0400901900BE0069815
:104C800000688069BDF814100840401AB0FA80F03E
:104C900040090190FFE70198C8B9FFE70699002095
:104CA0000863069A202182F83D10069981F83E009B
:104CB0000699086C40F020000864FFE70699002080
:104CC00081F83C00FFE701208DF81F0006E0FFE7B8
:104CD000FFE764E700208DF81F00FFE79DF81F0045
:104CE00008B080BD80B584B0029001910092FFE7CA
:104CF000029800684069C1B20020B0EBD11F3DD1DD
:104D0000FFE70298FFF79AFD20B1FFE701208DF839
:104D10000F0037E00198013078B3FFE7FCF77CFD26
:104D20000099401A0199884203D8FFE7019818BBFF
:104D3000FFE7029800684069C1B20020B0EBD11FC4
:104D400019D1FFE7029900200863029A202182F816
:104D50003D10029981F83E000299086C40F0200055
:104D60000864FFE70299002081F83C00FFE701207A
:104D70008DF80F0006E0FFE7FFE7B9E700208DF8A8
:104D80000F00FFE79DF80F0004B080BD80B58EB026
:104D90000D900C910D9801284BDBFFE70C98012832
:104DA00047DBFFE741F20000C4F201000990402117
:104DB00000220A92FCF718FD0998802101220B922B
:104DC000FCF712FD09980A9A4FF48071FCF70CFD6C
:104DD00009980B9A4FF40071FCF706FD09980A9A9E
:104DE0004FF48061FCF700FD09980B9A4FF40061C5
:104DF000FCF7FAFC09980A9A4FF48051FCF7F4FC8E
:104E00000B9A41F20040C4F201000421FCF7ECFCD3
:104E10000D9840F21C11C2F200010A6850630D980F
:104E20000A6890630C980A68D0630C980968086453
:104E3000FFE70D98B0F1FF3F50DCFFE70C98B0F1B1
:104E4000FF3F4BDCFFE741F20000C4F20100069097
:104E5000402101220792FCF7C7FC0698802100221E
:104E60000892FCF7C1FC0698079A4FF48071FCF792
:104E7000BBFC0698089A4FF40071FCF7B5FC069845
:104E8000079A4FF48061FCF7AFFC0698089A4FF43C
:104E90000061FCF7A9FC0698079A4FF48051FCF7D3
:104EA000A3FC089A41F20040C4F201000421FCF77F
:104EB0009BFC0D98404240F21C11C2F200010A68AE
:104EC00050630D9840420A6890630C9840420A680B
:104ED000D0630C98404209680864FFE70D980128E8
:104EE0004EDBFFE70C98B0F1FF3F49DCFFE741F2F2
:104EF0000000C4F201000390402100220592FCF75B
:104F000073FC0398802101220492FCF76DFC039846
:104F1000059A4FF48071FCF767FC0398049A4FF4EC
:104F20000071FCF761FC0398049A4FF48061FCF770
:104F30005BFC0398059A4FF40061FCF755FC03985D
:104F4000049A4FF48051FCF74FFC059A41F200405F
:104F5000C4F201000421FCF747FC0D9840F21C113B
:104F6000C2F200010A6850630D980A6890630C98B9
:104F700040420A68D0630C98404209680864FFE721
:104F80000D98B0F1FF3F4DDCFFE70C98012849DB9D
:104F9000FFE741F20000C4F201000090402101222D
:104FA0000292FCF721FC0098802100220192FCF77C
:104FB0001BFC0098029A4FF48071FCF715FC0098D6
:104FC000019A4FF40071FCF70FFC0098019A4FF41E
:104FD0008061FCF709FC0098029A4FF40061FCF72D
:104FE00003FC0098019A4FF48051FCF7FDFB029AF4
:104FF00041F20040C4F201000421FCF7F5FB0D98DA
:10500000404240F21C11C2F200010A6850630D9840
:1050100040420A6890630C980A68D0630C9809684B
:105020000864FFE70EB080BD80B582B040F21C106E
:10503000C2F2000001900021FEF752FF0198042106
:10504000FEF74EFF01980821FEF74AFF01980C2158
:10505000FEF746FF02B080BD80B582B0FFE741F2A7
:105060001400C4F20200016841F00101016000680F
:1050700000F0010001900198FFE70E20009000224F
:105080001146FCF711FF0098FCF704FF02B080BD49
:1050900080B590B000200F900E900D900C90FFE71F
:1050A00041F21800C4F20200016841F010010160F1
:1050B000006800F010000B900B98FFE7FFE741F24B
:1050C0001800C4F20200016841F02001016000688C
:1050D00000F020000A900A98FFE7FFE741F218006D
:1050E000C4F20200016841F004010160006800F0B0
:1050F000040009900998FFE7FFE741F21800C4F2A5
:105100000200016841F008010160006800F0080039
:1051100008900898FFE741F20000C4F201000290F5
:10512000012204921146FCF75FFB02984FF4FE51F6
:10513000019100220092FCF757FB009A41F20040D7
:10514000C4F20100069004210391FCF74DFB029884
:1051500004990C910D91022105910E9103210F915B
:105160000CA90791FCF77CF9009B0298059A079916
:105170004FF03E0CCDF830C00D930E92FCF770F955
:10518000DDF804C00298049B059A0799CDF830C059
:105190000D930E920F92FCF763F9DDF80CC0049B9F
:1051A000059A06980799CDF830C00D930E920F928C
:1051B000FCF756F910B080BD80B582B040F278009F
:1051C000C2F20000019045F20041C4F2000101600A
:1051D00041F68021C0F20601416000218160C1607A
:1051E0004FF48042026141618161C1610162FCF75B
:1051F00019FB18B1FFE7FBF765FAFFE702B080BDC6
:1052000080B598B0002101911791169115911491D4
:1052100013911291119110910F910E910D910C918A
:105220000B910A91099108910791069105910491BA
:10523000039140F2D400C2F20000029042F6004214
:10524000C4F201020260C7224260816041F61F423F
:10525000C2600161416180218161FDF723FC18B1C9
:10526000FFE7FBF72FFAFFE74FF48050149040F26E
:10527000D400C2F2000014A9FDF78CFD18B1FFE7BD
:10528000FBF720FAFFE740F2D400C2F20000FEF77D
:10529000D1FD18B1FFE7FBF715FAFFE700201290E8
:1052A000139040F2D400C2F2000012A9FDF77AFB7D
:1052B00018B1FFE7FBF706FAFFE760200B9000202C
:1052C0000C900D900F901090119040F2D400C2F20B
:1052D00000000BA90C22FEF70BFD18B1FFE7FBF74E
:1052E000F1F9FFE7002003900490059006900790E5
:1052F0004FF4005108910A9040F2D400C2F200002D
:1053000003A9FDF7F5FA18B1FFE7FBF7DBF9FFE7B3
:1053100040F2D400C2F20000FEF75EFC18B080BD7F
:1053200080B58EB0002100910D910C910B910A91E6
:1053300009910891079106910591049103910291B9
:10534000019140F21C10C2F200004FF08042026056
:1053500047224260816040F2E732C26001618021F1
:105360008161FDF79FFB18B1FFE7FBF7ABF9FFE7A2
:105370004FF480500A9040F21C10C2F200000AA9BB
:10538000FDF708FD18B1FFE7FBF79CF9FFE740F2D6
:105390001C10C2F20000FEF74DFD18B1FFE7FBF74D
:1053A00091F9FFE700200890099040F21C10C2F22A
:1053B000000008A9FDF7F6FA18B1FFE7FBF782F93C
:1053C000FFE760200190002202920392059240F2D2
:1053D0001C10C2F2000001A9FEF78AFC18B1FFE719
:1053E000FBF770F9FFE740F21C10C2F2000001A9C0
:1053F0000422FEF77DFC18B1FFE7FBF763F9FFE736
:1054000040F21C10C2F2000001A90822FEF770FC55
:1054100018B1FFE7FBF756F9FFE740F21C10C2F2A4
:10542000000001A90C22FEF763FC18B1FFE7FBF7AF
:1054300049F9FFE740F21C10C2F20000FEF7CCFB76
:105440000EB080BD80B58EB005A801902421FAF77A
:1054500092FE0199002302930493039340F2641097
:10546000C2F2000040F20042C4F200020260436057
:1054700083604FF6FF72C260036180228261032263
:10548000059206934FF0010CCDF81CC0089306223C
:1054900009920A93CDF82CC00C930D92FDF73CFDB8
:1054A00018B1FFE7FBF70EF9FFE700200390049027
:1054B00040F26410C2F2000003A9FDF773FA18B1BC
:1054C000FFE7FBF7FFF8FFE70EB080BD80B58CB0BB
:1054D000002101910B910A91099108910791069180
:1054E000059104910391029140F2AC10C2F20000C8
:1054F00040F60002C4F2000202604722426081606E
:105500004FF6FF72C260016180218161FDF7CAFA26
:1055100018B1FFE7FBF7D6F8FFE74FF4805008908B
:1055200040F2AC10C2F2000008A9FDF733FC18B13C
:10553000FFE7FBF7C7F8FFE740F2AC10C2F200004C
:10554000FDF7CAFF18B1FFE7FBF7BCF8FFE7002043
:105550000690079040F2AC10C2F2000006A9FDF7D9
:1055600021FA18B1FFE7FBF7ADF8FFE7002202923E
:10557000012003900492059240F2AC10C2F20000A8
:1055800002A9FDF711FF18B1FFE7FBF79BF8FFE752
:105590000CB080BD80B58EB005A801902421FAF72B
:1055A000EAFD0199002302930493039340F2F4105F
:1055B000C2F2000040F60042C4F200020260436002
:1055C00083604FF6FF72C260036180228261032212
:1055D000059206934FF0010CCDF81CC008930622EB
:1055E00009920A93CDF82CC00C930D92FDF794FC10
:1055F00018B1FFE7FBF766F8FFE70020039004907F
:1056000040F2F410C2F2000003A9FDF7CBF918B183
:10561000FFE7FBF757F8FFE70EB080BD80B582B01B
:1056200000210191009140F23C20C2F2000041F2C1
:105630000002C4F20002026041F61F424260816033
:1056400042F20F71C16080218161FDF72BFA18B120
:10565000FFE7FBF737F8FFE72020009000200190DC
:1056600040F23C20C2F200006946FDF79BF918B1F8
:10567000FFE7FBF727F8FFE702B080BD80B582B0F7
:1056800000210191009140F28420C2F2000041F219
:105690000042C4F20002026040F2CF224260816008
:1056A00040F2E731C16080218161FDF7FBF918B15B
:1056B000FFE7FBF707F8FFE72020009000200190AC
:1056C00040F28420C2F200006946FDF76BF918B180
:1056D000FFE7FAF7F7FFFFE702B080BD80B582B0C1
:1056E00040F2CC20C2F20000019043F60001C4F267
:1056F000010101604FF41651416000218160C160D9
:1057000001610C2242618161C161FEF7BFFF18B1E6
:10571000FFE7FAF7D7FFFFE702B080BDFFE7FEE73C
:10572000FFE7FEE788B0079006910592079800F022
:10573000070004900498C0F10700052803D3FFE791
:105740000420019004E00498C0F107000190FFE7F5
:105750000198039004980430062803D8FFE700203E
:10576000009003E0049803380090FFE7009802904F
:1057700006980399012202FA01F101390840029BBF
:10578000984005999A40013A1140084308B0704783
:1057900080B582B000208DF80700FFE79DF8070074
:1057A000072827DCFFE79DF80700B030C0B200F003
:1057B0006BF80020009000F067F8102000F064F80B
:1057C00000988DF80600FFE79DF806007F280ADCA8
:1057D000FFE7002000F070F8FFE79DF806000130B9
:1057E0008DF80600F0E7FFE79DF8070001308DF81F
:1057F0000700D3E702B080BD80B58D2000F044F8EB
:10580000142000F041F8AF2000F03EF880BD000009
:1058100080B586B00590059840F22801C2F20001DB
:1058200008600A20FBF7FAFD00208DF813008DF8C0
:105830001300FFE79DF8130016281EDCFFE740F277
:105840002800C2F2000000689DF8132040F2000119
:10585000C2F2000111446A464FF480739360012341
:105860005360116078210022FCF72EF9FFE79DF8C4
:10587000130001308DF81300DCE70A20FBF7CEFDA2
:10588000FFF786FF06B080BD80B584B08DF80F00AD
:1058900040F22800C2F2000000686A464FF48071AE
:1058A0009160012353600DF10F01116078210022F6
:1058B000FCF70AF904B080BD80B584B08DF80F0004
:1058C00040F22800C2F2000000686A464FF480717E
:1058D0009160012353600DF10F0111607821402286
:1058E000FCF7F2F804B080BD40F22431C2F20001AE
:1058F0000020886043F23332C3F633724A6048F2C4
:105900000002C4F20E420A600022C4F22F424A6131
:105910000022C4F248320A610022C4F2C822CA61DD
:105920008861C86241F26F20C3F603300862704795
:1059300080B58CB00B900A9109920A980999FAF7F0
:1059400077FC08900B9800680899FAF777FC0790A5
:105950000B99069148680A6A02924A6A0592896A16
:1059600003914FF07C51FAF769FC0299FAF766FC53
:10597000039904900898FAF709FC01460498FAF78D
:105980005DFC0599FAF702FC069948620B98C1691B
:10599000406AFAF735FD20B9FFE70B99C8694862FC
:1059A0000BE00B988169406AFAF738FD20B9FFE7F0
:1059B0000B9988694862FFE7FFE707980B9A019205
:1059C000516AD26A0092FAF7E1FB0099FAF7DEFB1E
:1059D000019948630B984169406BFAF711FD20B9B2
:1059E000FFE70B99486948630BE00B980169406B2E
:1059F000FAF714FD20B9FFE70B9908694863FFE740
:105A0000FFE708980B99886209980B9908630B982F
:105A1000406B0CB080BD00007047000082B0019068
:105A2000019840F21801C2F200010968C90844F661
:105A3000D352C1F26202A1FB0221890948430090BE
:105A4000FFE700BFFFE70098411E00910028F8D152
:105A5000FFE702B07047000080B582B040F2D4008A
:105A6000C2F2000001900C21FEF73AFA0198016899
:105A700040F21B20086402B080BD000070470000A7
:105A800080B582B0009000980138B0F1807F03D3D8
:105A9000FFE70120019019E0009801384EF214014F
:105AA000CEF2000108604FF0FF300F2100F088FEB9
:105AB0004EF21801CEF20001002008604EF21002F2
:105AC000CEF20002072111600190FFE7019802B0B9
:105AD00080BD000080B5FCF751F980BD80B590B065
