:020000040800F2
:10000000D0070020F901000831280008C11F0008AE
:100010002D280008B5020008053700080000000080
:10002000000000000000000000000000E1360008B1
:10003000B90200080000000071360008E53600082B
:10004000130200081302000813020008130200083C
:10005000130200081302000813020008130200082C
:10006000130200081302000813020008130200081C
:10007000130200081302000813020008130200080C
:1000800013020008130200081302000813020008FC
:1000900013020008130200081302000813020008EC
:1000A00013020008130200081302000813020008DC
:1000B0001302000813020008ED36000813020008BE
:1000C00013020008130200081302000813020008BC
:1000D00013020008130200081302000813020008AC
:1000E000130200081302000813020008130200089C
:1000F000130200081302000813020008130200088C
:10010000130200081302000813020008130200087B
:100110001302000813020008F93600081302000851
:10012000130200081302000813020008130200085B
:1001300000F002F800F050F814A696E8000CB24463
:10014000B344DA4501D100F047F8BAE80F000FA632
:1001500096E83000A5EB040504EB0607AAEB0704BC
:10016000A7F101074FEA15154FEA3414A4F1010471
:10017000AC4201D300F030F813F0010F18BFFB1AA6
:1001800043F0010300F001F8DBE71847A446000044
:10019000C4460000103A24BF78C878C1FAD8520784
:1001A00024BF30C830C144BF04680C6070470000F1
:1001B000704700000023002400250026103A28BFC5
:1001C00078C1FBD8520728BF30C148BF0B607047C9
:1001D0001FB51FBD10B510BD00F031F81146FFF777
:1001E000F7FF03F093FA00F04FF803B4FFF7F2FFC4
:1001F00003BC00F057F80000094880470948004751
:10020000FEE7FEE7FEE7FEE7FEE7FEE7FEE7FEE7C6
:10021000FEE7FEE704480549054A064B7047000023
:10022000E936000831010008D0010020D007002085
:10023000D0030020D00300207047704770477546F8
:1002400000F02CF8AE4605006946534620F0070042
:10025000854618B020B5FFF7DDFFBDE820404FF020
:1002600000064FF000074FF000084FF0000BAC46BF
:10027000ACE8C009ACE8C009ACE8C009ACE8C0090A
:1002800021F007018D46704710B50446AFF300809A
:100290002046BDE81040FFF7A8BF000000487047A7
:1002A0002800002001491820ABBEFEE7260002000E
:1002B00070470000FEE7000070470000EFF3108079
:1002C00072B600BFFEE70000B0B5044600F010F9BA
:1002D000054640F20000C2F200000078611C18BF21
:1002E000044400BF00F004F9401BA042FAD3B0BDA3
:1002F0002DE9F04F82B00E68002E00F0EF80A0F1E3
:100300008042A2F58432870547EA922241F60047EF
:1003100040F2004EC4F201070625C4F2010EB842B5
:1003200008BF052500244FF001080F234FF0000AF5
:100330004FF0000B052A38BF1546009509E000BFB5
:100340000E680AF1010A36FA0AF204F1040400F018
:10035000C58008FA0AFC16EA0C09F1D04E684FF67F
:10036000FF72C1F21002964212DC122E56D8DFE85C
:1003700006F0350B45495555555555555555555567
:100380005555554D510000BFD1F80CB046E000BFA7
:100390004FF6FF72C1F2210296420FDC0022C1F239
:1003A000110296421AD00022C1F21202964215D0D2
:1003B0000022C1F22102964210D02FE00022C1F2A9
:1003C000220296420AD00022C1F23102964205D0A2
:1003D0000022C1F23202964220D100BF8A684AB19F
:1003E000012A14BFC0F814C0C0F810C04FF0080BA9
:1003F00014E000BF4FF0040B10E000BFCA6802F128
:10040000080B0BE04FF0000B08E000BFCA6802F1D8
:10041000040B03E0CA6802F10C0B00BF224606463B
:10042000B9F5807F24BF203A0436376803FA02F515
:10043000AF430BFA02F23A433260CA79D2067FF533
:100440007FAF41F21807C4F202073A684FF608433B
:1004500042F001023A603A68CFF6FF7302F00102FF
:100460000192019A2AF0030272440F25D75804F032
:100470000C06B540AF43009D05FA06F63743D7504A
:100480004E6840F20C45F202DEF8082054BF22EA22
:10049000090242EA0902C4F20105CEF808202A68DE
:1004A000B70254BF22EA090242EA09022A60DEF8D2
:1004B0000420B70354BF22EA090242EA0902CEF837
:1004C00004200F23DEF80020F70354BF22EA0902BC
:1004D00042EA0902CEF8002032E700BF02B0BDE8D0
:1004E000F08F0000002A08BF090401617047000076
:1004F00040F2CC10C2F2000000687047002804BF30
:1005000001207047F0B581B0044690F83D0028B94D
:10051000002084F83C00204600F050F9242084F8A4
:100520003D002068016821F001010160016841F48B
:1005300000410160016821F40041016000F01AFBF4
:10054000636848F2A16CC0F2010C40F60011C0F2E1
:100550003D0163453CBF48F28041C0F21E01884224
:1005600002D2012001B0F0BD4DF68361C4F21B310F
:10057000A0FB01122168970CD1F804E04FF49676A5
:100580002EF03F0545EA92454D60774348F6381610
:100590000D6AC0F24106A7FB067625F03F076345CA
:1005A00038BF960C721C3A430A62CA6948F2A066C8
:1005B0004CF6FF77C0F20106B34222EA07020BD8DD
:1005C00001385B00B0FBF3F001306FF31F300428FB
:1005D00098BF04201BE000BFA768013857B1192756
:1005E0007B43B0FBF3F001306FF31F3070B100F5C7
:1005F000804007E003EB4303B0FBF3F001306FF3FF
:100600001F3018B100F5004001E000BF0120104389
:10061000C8610868D4E9072320F0C00010431843DC
:100620000860886848F2FF3204F10C0790438CCFD1
:1006300018431043A6698860C86820F0FF0038435B
:100640003043C860086840F00100086000202021A5
:10065000206484F83D10206384F83E0001B0F0BDB2
:100660002DE9F04383B0994616460F460446FFF73E
:100670003FFF94F83D10202924D10546206800BF93
:10068000816989071AD5FFF733FF411B20681A29B2
:10069000F6D381698907F3D500202021206384F8EF
:1006A0003D1084F83E00216C41F02001216484F863
:1006B0003C00022003B0BDE8F08300BF94F83C107A
:1006C000012903D1022003B0BDE8F083012284F8A0
:1006D0003C200368DDE90B180A9ADB0703D10368A5
:1006E00043F001030360036823F4006303602120E7
:1006F00084F83D00402084F83E00002020646262BF
:100700006185608D394620850020CFF6FF70E0625C
:10071000204632464B46CDE9008501F053FC18B126
:10072000012003B0BDE8F083208D98B920464146F2
:100730002A4601F0ABFC88B3206C0428F0D1206875
:10074000016841F400710160012003B0BDE8F0834D
:100750000004EBD0204641462A4601F047FE00281F
:10076000EAD1616A2268084610F8013B1361238DC3
:100770006062581E2085678D013F678557697F0736
:10078000E6D50704E4D048781061881C6062981EA2
:100790002085618D01396185DAE700BF2068016835
:1007A00041F400710160202084F83D00002084F8AD
:1007B0003E0084F83C0003B0BDE8F08310B586B07D
:1007C000006845F20042C4F2000200219042049108
:1007D00002D006B010BD00BF41F21804C4F20204FA
:1007E000206802A940F008002060206800F008009E
:1007F000019001984FF44070029012200390032062
:10080000059040F60040C4F20100FFF771FD04209E
:10081000C4F20100016841F0E06141F002010160B1
:10082000606840F400106060606800F4001001909F
:10083000019806B010BD000040F2000040F2CC115B
:10084000C2F20000C2F2000100780A681044086099
:100850007047000080B542F20000C4F20200016857
:1008600041F010010160032000F08CF80F2000F02F
:1008700005F800F027F8002080BD000070B540F2B8
:100880000006C2F2000640F220013278C2F20001F6
:100890004FF47A730968B3FBF2F20446B1FBF2F14C
:1008A000084600F07BFB0F2C4FF0010508D838B943
:1008B0004FF0FF3021460022002500F037F8746029
:1008C000284670BD82B041F21800C4F202000168EF
:1008D000022241F001010160016801F00101019172
:1008E0000199416841F080514160406800F08050BA
:1008F000009000980420C4F20100016862F31A61BC
:10090000016002B070470000002848BF704700F047
:100910001F01012202FA01F11C2202EAD0004EF26C
:100920000012CEF2000281507047000010B54EF662
:100930000C5CCEF2000CDCF80030C3F3022E8EF01B
:100940000704042C28BF0424BEF103034FF0FF3E2C
:100950000EFA04F438BF0023A14399400EFA03F3C2
:100960009A43114300F00F0200F160430901043A79
:1009700003F564436244002848BF02F10C03197078
:1009800010BD00004EF60C51CEF200010A684FF681
:10099000FF031A4060F30A2242F0806040F0FD70CD
:1009A00008607047002804BF012070472DE9F0431C
:1009B00081B042F20008C4F202080446D8F80000F0
:1009C0000D4600F0070088420CD2D8F8000020F055
:1009D00007002843C8F80000D8F8000000F007001E
:1009E000A8426CD1206841F204098107C4F20209CF
:1009F00017D5410705D5D9F8001041F4E061C9F8D1
:100A00000010010705D5D9F8001041F46051C9F86C
:100A10000010D9F80010A26821F0F0011143C9F8C4
:100A20000010C00742D1D8F8000000F00700A8422B
:100A30000CD9D8F8000020F007002843C8F80000BF
:100A4000D8F8000000F00700A84238D1206841071C
:100A500007D5D9F80010E26821F4E0611143C9F824
:100A60000010000708D5D9F80000216920F4605073
:100A700040EAC100C9F80000D9F8002002F00C00DB
:100A8000082841F20020C0F27A0051D144F6000358
:100A9000C2F38341C0F60003595CD2033CD440F654
:100AA0000010C0F23D00484342E000BF60680228E9
:100AB0000AD001282AD159F8041C890308D401203E
:100AC00001B0BDE8F08300BF59F8041C8901F6D5D8
:100AD000D9F8001021F003010843C9F80000FFF71E
:100AE00007FD064641F28837D9F80000616800F03A
:100AF0000C00B0EB810F96D0FFF7FAFC801BB842D8
:100B0000F2D9032001B0BDE8F08300BF59F8041CFE
:100B10008907D4D5DCE700BFD9F8002044F2FE7382
:100B2000C2F34042C0F600039A5C4843B0FBF2F0C7
:100B3000D9F8001043F6DE72C1F30311C0F60002CB
:100B4000515C40F2200220FA01F140F20400C2F2AE
:100B500000000068C2F200021160FFF78FFE002063
:100B600001B0BDE8F083000040F22000C2F20000B6
:100B70000068704740F2200041F20401C2F2000018
:100B8000C4F202010068096843F6EE72C1F3022163
:100B9000C0F60002515CC84070470000002804BF46
:100BA000012070472DE9F04182B00446007841F2FF
:100BB0000006C007C4F202060CD0706800F00C00FA
:100BC000042840F081803068800303D560680028E5
:100BD00000F04E81207880071BD5706810F00C0F54
:100BE00009D0706800F00C00082840F08B80706815
:100BF000C00300F187803068800703D52069012891
:100C000040F036813068616920F0F80040EAC100A8
:100C100030602078000713D4207840072CD4E56991
:100C2000002D00F02081706800F00C00082840F0D2
:100C3000AF80012D40F00C81012002B0BDE8F081B1
:100C4000A069002800F08C800020C4F2422001211D
:100C5000C0F88014FFF74CFC054600BF706A80079F
:100C600000F1BA80FFF744FC401B0228F6D90320AC
:100C700002B0BDE8F08100BFF0695FEAC00808D4A7
:100C8000F06940F08050F061F06900F08050009011
:100C9000009847F20007C4F200073868C0054DD439
:100CA000386840F480703860FFF722FC054600BFCA
:100CB0003868C00542D4FFF71BFC401B6428F7D9F5
:100CC000032002B0BDE8F081706800F00C00082835
:100CD00003D17068C0033FF576AF6068002800F06C
:100CE0000981B0F5A02F00F01D81B0F5803F00F024
:100CF0001D81306820F480303060306820F480201E
:100D000017E100BF2069002840F20000C4F2422031
:100D100000F08C8001210160FFF7EAFB054600BF6F
:100D2000306880073FF56EAFFFF7E2FB401B0228FB
:100D3000F6D9032002B0BDE8F08100BFE0680028CA
:100D400000F09A80052800F0B180012800F0B28000
:100D5000306A20F001003062306A20F00400ACE01C
:100D60000020C4F242200021C0F88014FFF7C0FB2D
:100D7000054600BF706A80077FF54EAFFFF7B8FBEE
:100D8000401B0228F6D9032002B0BDE8F08100BF65
:100D90000027C4F2422700203866FFF7A9FB022D86
:100DA00005460DD13068800140F1D680FFF7A0FBE9
:100DB000401B02284FF00300F4D902B0BDE8F081D7
:100DC000306880014FD5FFF793FB401B02284FF09E
:100DD0000300F5D9F1E700BF40F22000C2F20000A5
:100DE000006844F6D351C1F26201A0FB0101480A38
:100DF000019000BF00BF0198411E002801913FF4FF
:100E00000BAF00BF0198411E002801913FF404AFD1
:100E100000BF0198411E002801913FF4FDAE00BFC4
:100E20000198411E00280191E4D1F5E600210160FE
:100E3000FFF75EFB054600BF306880077FF5E9AE2F
:100E4000FFF756FB401B02284FF00300F4D9B4E72C
:100E50007068216A00F480328A4209D1616A00F424
:100E60007010884204D1002002B0BDE8F08100BFBC
:100E7000012002B0BDE8F081306A20F0010030624C
:100E8000306A20F004003062FFF732FB054641F281
:100E9000883700BF306A800722D5FFF729FB401B47
:100EA000B8424FF00300F5D987E700BF306A40F041
:100EB00004003062306A40F001003062FFF718FB36
:100EC000054641F2883700BF306A800708D4FFF733
:100ED0000FFB401BB842F7D9032002B0BDE8F081F8
:100EE000B8F1000F3FF59BAEF06920F08050F06143
:100EF00095E600BF306820F480303060306820F420
:100F000080203060FFF7F4FA054600BF30688003A8
:100F10007FF560AEFFF7ECFA401B64284FF003004A
:100F2000F4D94AE7306840F480203060306840F4FB
:100F300080303060FFF7DCFA054600BF3068800380
:100F40003FF548AEFFF7D4FA401B6428F6D90320DA
:100F500002B0BDE8F08100BF206AB0F5803F05D146
:100F60007168A26821F40031114371607168626A8E
:100F700021F4741111430843706001203866FFF7B3
:100F8000B7FA0446306880013FF56DAFFFF7B0FA5D
:100F9000001B02284FF00300F4D90EE7411E002089
:100FA000B0EB116F1CBF012070474EF21002CEF261
:100FB000000251604EF62351CEF20001F0230B7077
:100FC0000721906011607047704700007047000073
:100FD00090F83C20012A4FF0020242D010B580F870
:100FE0003D200268D2F804E0D2F808C00C682EF068
:100FF0007003234340F6FF34C4F20004A24253605E
:1010000010DCB2F1804F1FD040F20043C4F2000365
:101010009A4219D040F60003C4F200039A4213D05A
:1010200017E000BF40F60043C4F200039A420BD021
:1010300043F20043C4F201039A4205D042F6004352
:10104000C4F201039A4204D149682CF08003194389
:1010500091600121002280F83D1080F83C20BDE81D
:101060001040104670470000002804BF0120704760
:1010700010B5044690F83D0028B9002084F83C00E3
:10108000204600F085F8022084F83D00206840F6F4
:10109000FF330268C4F2000343F2004C9842C4F2EA
:1010A000010C21DCB0F1804F2CD040F20041C4F2A1
:1010B0000001884226D040F60001C4F200018842B7
:1010C00020D0984224DCB0F1804F2FD040F2004174
:1010D000C4F20001884229D040F60001C4F20001A8
:1010E000884223D026E000BF40F60041C4F2000150
:1010F000884207D0604505D042F60041C4F20101A4
:101100008842DED1A16822F070020A439842DADDFB
:1011100040F60041C4F20001884207D0604505D086
:1011200042F60041C4F20101884203D1216922F450
:1011300040720A43A36922F08001D4F804E0E26817
:10114000194360450160C262C0F828E005D042F64C
:101150000041C4F20101884201D1616901630121AA
:101160004161002084F8461084F83E1084F83F1056
:1011700084F8401084F8411084F8421084F8431039
:1011800084F8441084F8451084F83D1010BD000028
:1011900080B586B0006841F20002C4F2000200216E
:1011A0009042059118D040F60001C4F20001884237
:1011B0002AD0B0F1804F54D141F21C00C4F2020099
:1011C000016841F001010160006800F00100019038
:1011D000019806B080BD00BF41F21C00C4F20200BD
:1011E0000168002241F0100101600068002100F058
:1011F0001000019001983620FFF798FB362006B0CA
:10120000BDE88040FFF780BB41F21C00C4F2020041
:10121000016841F004010160016801F004010191DD
:10122000019950F8041C41F0080140F8041C50F8E2
:10123000040C02A900F008000190019840200290DF
:101240000020CDE9030040F60040C4F20100FFF7A2
:101250004FF81E2000210022FFF768FB1E20FFF739
:1012600053FB06B080BD000090F83D1001291CBF63
:1012700001207047022180F83D10006840F6FF32DF
:10128000C168C4F20002904241F00101C1600FDC6C
:10129000B0F1804F1ED040F20041C4F200018842FC
:1012A00018D040F60001C4F20001884212D018E0C4
:1012B00040F60041C4F2000188420BD043F20041E5
:1012C000C4F20101884205D042F60041C4F2010196
:1012D000884206D1816801F00701062904BF002079
:1012E0007047016841F00101016000207047000073
:1012F0000146006841F21113C26822F00102C26087
:10130000026A1A4204D00122002081F83D20704771
:10131000026A40F244431A42F5D1026822F0010207
:1013200002600122002081F83D20704790F83C20A7
:10133000012A4FF0020200F0C58080B580F83D2000
:10134000D0F800C04FF67772DCF8083023EA0202CA
:10135000CCF808200B684F2B28DC1F2B44DD202BFA
:1013600045D0302B43D0402B40F0AE80D1F804E084
:10137000C968DCF82030DCF8202022F00102CCF82B
:101380002020DCF8182022F0F00242EA011123F0BC
:101390000A0242EA0E02CCF81810CCF82020DCF841
:1013A000081041F0470121F0300180E06F2B27DD6C
:1013B000B3F5005F48D0B3F5805F7AD0702B40F072
:1013C0008380D1E901E3C968DCF8082043EA0E0311
:1013D00022F47F4243EA01211143CCF80810DCF8E3
:1013E000081041F0770162E00BB1102B6CD1DCF8F2
:1013F000081021F07001194341F0070157E000BFC8
:10140000502B35D0602B5FD1D1F804E0C968DCF8EF
:101410002030DCF8202022F01002CCF82020DCF86C
:10142000182022F4704242EA013123F0A00242EA7D
:101430000E12CCF81810CCF82020DCF8081041F07F
:10144000670121F0100132E0D1E901E3C968DCF85D
:10145000082043EA0E0322F47F4243EA01211143AC
:10146000CCF80810DCF8081041F480411FE000BF00
:10147000D1F804E0C968DCF82030DCF8202022F044
:101480000102CCF82020DCF8182022F0F00242EA19
:10149000011123F00A0242EA0E02CCF81810CCF82F
:1014A0002020DCF8081041F0570121F02001CCF891
:1014B00008100022012180F83D10002180F83C1026
:1014C000BDE88040104670470122F3E770B540F256
:1014D0008805C2F20005A97840F23C14C2F200046B
:1014E0000131A042A97001D070BD00BF2878012849
:1014F00014D0002818BF70BD2046002100F044FD24
:101500002168E860086A20F00A000862086A40F072
:101510000200086228780130287070BD2046002142
:10152000002600F031FD28612046002100F022FA5B
:1015300021684FF4807028804E62D5E90301081AB3
:10154000686002F07EF94CF29C4246F67203CBF2E0
:101550002002C3F6917302F087F902F041F9A86006
:1015600070BD000090F83C30012B04BF0220704792
:101570004FEAB202032A2BD8F0B5DFE802F0032FBE
:101580004F6D00BF0368D1E900C5D1F80CE01C6ABB
:101590001A6A40F6FF3722F001021A621A4652F820
:1015A000186FC4F20007BB427ADCB3F1804F00F041
:1015B000898040F20047C4F20007BB4200F08280FD
:1015C00040F60007C4F20007BB427BD096E000BFA4
:1015D0000121002280F83C20084670470368D1E9C9
:1015E00000E6D1E902C11C6A1A6A360222F0100232
:1015F0001A621A4652F8185F4FF2FF07BE4325F4ED
:10160000734561F30F3624F0A0040EF00A0746EA92
:10161000050144EA071711601F623AE00768D1E943
:1016200000C5D1E902313C6A3A6A61F3071522F438
:1016300080723A623A4652F81C6F26F0F30645EA89
:1016400006014FEA5C0666F3492411603C621168AA
:1016500021F00C01116046E00368D1E900E6D1E910
:1016600002C11C6A1A6A360222F480521A621A46B1
:1016700052F81C5F4FF2FF07BE4325F4734561F338
:101680000F364FEA5E0746EA050167F34D341160F5
:101690001C6211684FEA0C2321F44061116022E0C2
:1016A00040F60047C4F20007BB420BD043F20047AC
:1016B000C4F20107BB4205D042F60047C4F201075D
:1016C000BB421BD126F00306354324F00A070CF079
:1016D0000A066EF3071537449D611F629F6927F064
:1016E0000C079F618B681168194311600021BDE8E8
:1016F000F040002280F83C200846704746F0010583
:10170000E3E70000002804BF0120704710B504463D
:1017100090F83D0028B9002084F83C00204600F0F5
:1017200085F8022084F83D00206840F6FF33026807
:10173000C4F2000343F2004C9842C4F2010C21DCD5
:10174000B0F1804F2CD040F20041C4F20001884239
:1017500026D040F60001C4F20001884220D0984211
:1017600024DCB0F1804F2FD040F20041C4F20001E0
:10177000884229D040F60001C4F20001884223D0FB
:1017800026E000BF40F60041C4F20001884207D0C5
:10179000604505D042F60041C4F201018842DED125
:1017A000A16822F070020A439842DADD40F6004157
:1017B000C4F20001884207D0604505D042F60041DE
:1017C000C4F20101884203D1216922F440720A4324
:1017D000A36922F08001D4F804E0E268194360456F
:1017E0000160C262C0F828E005D042F60041C4F2B0
:1017F0000101884201D16169016301214161002039
:1018000084F8461084F83E1084F83F1084F84010A5
:1018100084F8411084F8421084F8431084F844108E
:1018200084F8451084F83D1010BD0000704700009A
:1018300051B308290AD0042919BF00F1410200F16F
:10184000450300F13F0200F1430303E000F14002D1
:1018500000F1440312781B78012A4FF0010208BFFF
:10186000012B01D0104670470222082922D00429FA
:101870002CD180F83F2080F843204FEAB103032B9E
:101880004FF00102EED82BE090F83E2090F8423065
:10189000012A4FF0010208BF012BE3D1022280F898
:1018A0003E2080F842204FEAB103032B4FF00102A3
:1018B000D8D815E080F8402080F844204FEAB103E2
:1018C000032B4FF00102CDD80AE000BF80F8412081
:1018D00080F845204FEAB103032B4FF00102C1D835
:1018E00044F6100C0068C0F6000C5CF823C0C36816
:1018F00001F01F0143EA0C03C360036A02FA01F11D
:1019000023EA01020262026A114340F6FF32C4F286
:101910000002904201620FDCB0F1804F1ED040F215
:101920000041C4F20001884218D040F60001C4F220
:101930000001884212D016E040F60041C4F20001D6
:1019400088420BD043F20041C4F20101884205D025
:1019500042F60041C4F20101884204D1816801F0DD
:101960000701062903D0016841F00101016000224E
:10197000104670474FEAB102032A4FF0010C42D8DB
:1019800010B544F6200E0368C0F6000E5EF822E0A3
:10199000DA6802EA0E02DA6001F01F0E1C6A0CFA25
:1019A0000EF224EA02021A621A6A41F211141A6251
:1019B0001A6A224208D11A6A40F24444224203D1F0
:1019C0001A6822F001021A60BDE8104071B10829BE
:1019D00012D004294FF0010119BF80F8411080F89E
:1019E000451080F83F1080F843100AE0012180F88C
:1019F0003E1080F8421004E0012180F8401080F889
:101A000044104FF0000C60467047000010B50168AC
:101A100004460869800744BFC8685FEA807039D40B
:101A20000869400744BFC8685FEA40703ED408694F
:101A3000000744BFC8685FEA007045D40869C00663
:101A400044BFC8685FEAC0604AD40869C0071CBFC9
:101A5000C8685FEAC07051D10869000644BFC86811
:101A60005FEA006052D40869400644BFC8685FEA74
:101A7000406053D40869800646BFC8685FEA80604A
:101A800010BD6FF0200220460A61BDE81040FFF74C
:101A90009DBA00BF6FF002000861012020778869BD
:101AA000800743D02046FFF711FD45E06FF00400AA
:101AB000086102202077886910F4407F40D02046DA
:101AC000FFF704FD42E000BF6FF00800086104204A
:101AD0002077C86980073DD02046FFF7F7FC3FE03C
:101AE0006FF01000086108202077C86910F4407F6B
:101AF0003AD02046FFF7EAFC3CE000BF6FF001005F
:101B00000861204600F00AFA2168A5E76FF080001E
:101B100008612046FFF758FA2168A4E76FF04000FB
:101B20000861204600F04AFA2168A3E7204600F049
:101B300025F8204600F0F0F92168002020776FE7B3
:101B4000204600F01BF8204600F0E6F9216800204E
:101B500020776CE7204600F011F8204600F0DCF911
:101B600021680020207769E7204600F007F820462A
:101B700000F0D2F921680020207766E77047000066
:101B800090F83C30012B04BF022070474FEAB202AC
:101B9000032A00F225812DE9F041DFE802F0034B32
:101BA00095DF00BF036843F200461D6A1A6A25F0FC
:101BB000020522F001021A621A46D3F804C052F854
:101BC000188F8F68D1F800E0C4F20106B34245EAED
:101BD000070505D042F60047C4F20107BB4205D114
:101BE000CF6825F00C0527F004073D43B34205D02C
:101BF00042F60046C4F20106B34206D1D1E90567B8
:101C00002CF44074264346EA070C28F0730444EA97
:101C10000E07C3F804C09F614F6809695F631D62C6
:101C20009F6947F008079F619F6927F004079F613C
:101C3000CAE000BF036843F200461D6A1A6A25F035
:101C4000200522F010021A621A46D3F804C052F896
:101C5000188F8F68D1F800E0C4F20106B34245EA5C
:101C6000071505D042F60047C4F20107BB4207D171
:101C7000CF686FF0400425F0C00504EA071425433F
:101C8000B34205D042F60044C4F20104A34206D197
:101C9000D1E905462CF44067264347EA860C28F430
:101CA000E64444EA0E27C3F804C09F614F680969FF
:101CB0009F631D629F6947F400679F619F6927F4D6
:101CC00080679F617FE000BF036843F200461D6AA2
:101CD0001A6A25F4007522F480721A621A46D3F843
:101CE00004C052F81CEF8F68D1F80080C4F20106DE
:101CF000B34245EA072505D042F60047C4F2010782
:101D0000BB4208D1CF6840F2FF443F0225F4406552
:101D100027EA04042543B34205D042F60044C4F246
:101D20000104A34206D1D1E905462CF440572643CD
:101D300047EA061C2EF0730747EA0807C3F804C0F9
:101D4000DF614F680969DF631D62DF6947F00807DB
:101D5000DF61DF6927F00407DF6135E0036843F2E4
:101D60000047D3F820C01A6AC4F2010722F4805257
:101D70001A621A465C6852F81C5FD1F800E08E685F
:101D8000BB4205D042F60047C4F20107BB4204D172
:101D90004F6924F4804444EA87142CF4005747EA3E
:101DA000063725F4E64646EA0E265C60DE614E689C
:101DB00009691E641F62DF6947F40067DF61DF693C
:101DC00027F48067DF61090213681943116000215D
:101DD000BDE8F041002280F83C200846704700BF73
:101DE0000121002280F83C2008467047002804BFEB
:101DF0000120704710B5044690F83D0028B9002036
:101E000084F83C00204600F085F8022084F83D006C
:101E1000206840F6FF330268C4F2000343F2004C2E
:101E20009842C4F2010C21DCB0F1804F2CD040F27A
:101E30000041C4F20001884226D040F60001C4F2FD
:101E40000001884220D0984224DCB0F1804F2FD08E
:101E500040F20041C4F20001884229D040F600015E
:101E6000C4F20001884223D026E000BF40F60041C2
:101E7000C4F20001884207D0604505D042F6004117
:101E8000C4F201018842DED1A16822F070020A4347
:101E90009842DADD40F60041C4F20001884207D0E2
:101EA000604505D042F60041C4F20101884203D1E9
:101EB000216922F440720A43A36922F08001D4F818
:101EC00004E0E268194360450160C262C0F828E09E
:101ED00005D042F60041C4F20101884201D1616996
:101EE000016301214161002084F8461084F83E100E
:101EF00084F83F1084F8401084F8411084F84210B0
:101F000084F8431084F8441084F8451084F83D1098
:101F100010BD0000704700007047000040F28411BF
:101F2000C2F20001884218BF7047B0B541F2000408
:101F3000C4F201042046012100220025FEF7D2FA56
:101F4000204601210122FEF7CDFA142001F0DCFB2E
:101F5000204601210022FEF7C5FA40F23C10C2F2F1
:101F6000000001680A6A22F00A020A620A6A0A622A
:101F70000021FFF75DFC40F28800C2F200004570CE
:101F8000BDE8B040704700004FEAB101032984BFAB
:101F900000207047DFE801F0020E060A00683430C6
:101FA0000068704700683C30006870470068403047
:101FB000006870470068383000687047704700005C
:101FC000FEE700002DE9F04383B0044600680D46AB
:101FD00001680A9F0B9E41F480719946904601600A
:101FE00020464FF0011100223B46009600F0ACF86D
:101FF00050B120680068C00544BF4FF400702064F1
:10200000032003B0BDE8F083206805F0FE01016104
:102010000221C0F2010120463A46334600F07AF927
:1020200020B1012003B0BDE8F08300BF0020029082
:1020300020683246416902918069394602900298CF
:10204000204600F0D3F958B1206C0428E9D120686B
:10205000016841F400710160012003B0BDE8F08324
:102060002068B9F1010F0AD04FEA1821016120461A
:102070003946324600F0BAF90028E5D120685FFA07
:1020800088F10161002003B0BDE8F08370B50368FA
:10209000044653F8140F400711D40E46481C29D0AB
:1020A00086BB00BF1868400527D4FEF721FA2368D5
:1020B00053F8140F400737D518684007F2D50020B1
:1020C00070BD00BF18684007F9D41868400514D4E3
:1020D00018684007F3D4186840050ED41868400704
:1020E000EDD41868400508D4186840074FF0000088
:1020F00048BF70BD18684005E4D56FF48060186073
:10210000042012E0154603E053F8140F4007D6D41C
:1021100018684005F1D4FEF7EBF9401B2368B04284
:10212000F2D958694007EFD42020002120222163F2
:1021300084F83D2084F83E10226C10432064012076
:1021400084F83C1070BD00002DE9F04105460068A0
:102150001E46144601F47F0201338FB242D0DDF8EF
:102160001880B2F5803F40F0878040693840C01B3E
:10217000B0FA80F04009A04240F0C8804EB924E097
:1021800040693840C01BB0FA80F04009A04240F0DE
:10219000BD80FEF7ADF9A0EB08012868B142EFD988
:1021A00041693940C91BB1FA81F14909A142E7D11E
:1021B0009BE000BF40693840C01BB0FA80F0400986
:1021C000A0424FF0000040F0A280FEF791F928688D
:1021D00041693940C91BB1FA81F14909A142E9D1EC
:1021E00083E000BFB2F5803F24D100BF4169394090
:1021F000C91BB1FA81F14909A14240F087804169C8
:102200003940C91BB1FA81F14909A14240F07E80F1
:1022100041693940C91BB1FA81F14909A14275D11F
:1022200041693940C91BB1FA81F14909A142DDD0A8
:102230006CE000BF81693940C91BB1FA81F14909DD
:10224000A14263D181693940C91BB1FA81F14909C1
:10225000A1425BD181693940C91BB1FA81F14909B9
:10226000A14253D181693940C91BB1FA81F14909B1
:10227000A142DFD04AE000BF80693840C01BB0FAFD
:1022800080F04009A04241D146B923E0806938403E
:10229000C01BB0FA80F04009A04237D1FEF728F900
:1022A000A0EB08012868B142F0D981693940C91B07
:1022B000B1FA81F14909A142E8D116E080693840BC
:1022C000C01BB0FA80F04009A0424FF0000018BFD8
:1022D000BDE8F081FEF70CF9286881693940C91B17
:1022E000B1FA81F14909A142E8D1002020212863F7
:1022F00085F83D1085F83E00296C41F020012964E5
:1023000085F83C000120BDE8F08100BF0020BDE859
:10231000F0810000F0B581B0044600681D464369B5
:102320008FB203EA0701B94202D1002001B0F0BD2B
:102330004169164601323FD049053FD4CEB100BFB6
:10234000FEF7D6F8411B2068B14203D941693940F4
:10235000B94215D141693940B942E6D041694905D0
:10236000EED52BE041693940B942DED041694905DB
:1023700024D4FEF7BDF8206841693940B942F1D054
:10238000202023E041693940B942CED04169490556
:1023900014D441693940B942C7D0416949050DD4C7
:1023A00041693940B942C0D04169490506D4416903
:1023B0003940B942B9D041694905E3D5016841F4D2
:1023C000007101606FF480614161042000212022CE
:1023D000216384F83D2084F83E10226C1043206471
:1023E00084F83C10012001B0F0BD000070B5036816
:1023F000044653F8140F000611D40E46481C29D089
:1024000086BB00BF1868400527D4FEF771F8236823
:1024100053F8140F000637D518680006F2D50020CF
:1024200070BD00BF18680006F9D41868400514D4C0
:1024300018680006F3D4186840050ED41868000622
:10244000EDD41868400508D4186800064FF0000065
:1024500048BF70BD18684005E4D56FF4806018600F
:10246000042012E0154603E053F8140F0006D6D4FA
:1024700018684005F1D4FEF73BF8401B2368B042D2
:10248000F2D958690006EFD42020002120222163D0
:1024900084F83D2084F83E10226C10432064012013
:1024A00084F83C1070BD00002DE9F04F85B041F27A
:1024B0001800C4F20200016841F2000441F010016A
:1024C00001600168C4F2010401F010010191019959
:1024D0000168012241F02001016001684FF0010A0A
:1024E00001F0200101910199016841F004010160AE
:1024F000016801F0040101910199016841F00801AE
:1025000001600068012100F0080001900198204658
:10251000FDF7E8FF20464FF4FE5100224FF4FE582D
:102520004FF0000BFDF7DEFF04F58065284604211F
:1025300000224FF00409FDF7D5FF032001AE02276A
:10254000049020463146CDE901AA0397FDF7D0FE5D
:102550003E20CDE9010B204631460397FDF7C8FE2A
:1025600020463146CDE9018ACDE90377FDF7C0FE6B
:1025700028463146CDE9019ACDE90377FDF7B8FE4B
:1025800005B0BDE8F08F000080B540F2A00045F234
:102590000041C2F20000C4F2000141F68022002393
:1025A0004FF4804CC0F2060280E80E00C0E9033C04
:1025B000C0E90533C0E90733FDF7A0FF002808BFD5
:1025C00080BDBDE88040FDF779BE000010B594B035
:1025D00040F2F4000021C2F2000040F2E7340E9114
:1025E000CDE90C110991CDE90711CDE90511CDE92E
:1025F0000311CDE901114FF080424723C0E90214D5
:1026000001618021C0E900238161FEF72DFD0028D2
:1026100018BFFDF753FE4FF480500B9040F2F400CA
:10262000C2F200000BA9FEF781FE002818BFFDF7DB
:1026300045FE40F2F400C2F20000FFF7D7FB00288D
:1026400018BFFDF73BFE40F2F4000024C2F2000088
:1026500008A9CDE90844FEF7BBFC002818BFFDF728
:102660002DFE6020CDE9010440F2F400C2F200002A
:1026700001A9002203940594FFF782FA002818BFED
:10268000FDF71CFE40F2F400C2F2000001A9042292
:10269000FFF776FA002818BFFDF710FE40F2F400AD
:1026A000C2F2000001A90822FFF76AFA002818BF49
:1026B000FDF704FE40F2F404C2F2000401A9204632
:1026C0000C22FFF75DFA002818BFFDF7F7FD206820
:1026D0000021B0F1804F129102D014B010BD00BFA4
:1026E00041F21800C4F20200016841F004010160E7
:1026F000006810A900F004000F900F980F201090B0
:1027000002201190139040F60000C4F20100FDF782
:10271000EFFD14B010BD000010B58AB040F23C10BF
:102720000021C2F2000040F600024FF6FF7409914A
:10273000CDE90711CDE90411CDE90211CDE9001170
:10274000C4F200024723C0E9021401618021C0E9FC
:1027500000238161FEF788FC002818BFFDF7AEFD5D
:102760004FF48050069040F23C10C2F2000006A9DF
:10277000FEF7DCFD002818BFFDF7A0FD40F23C107D
:10278000C2F20000FEF7BEFF002818BFFDF796FD5D
:1027900040F23C100024C2F2000004A9CDE9044438
:1027A000FEF716FC002818BFFDF788FD0120CDE9D3
:1027B000010440F23C10C2F200006946002200947D
:1027C0000394FEF7CFFE002818BFFDF777FD0AB08F
:1027D00010BD000080B582B02020009040F284102F
:1027E0000021C2F2000041F2000242F20F7C01918E
:1027F000C4F2000241F61F43C0E9021C8021C0E977
:1028000000238161FEF730FC002818BFFDF756FD5C
:1028100040F28410C2F200006946FEF7D9FB00289E
:1028200018BFFDF74BFD02B080BD0000FEE70000C1
:10283000FEE700002DE9F04F85B040F29C05002432
:10284000C2F200054FF4807601270DF1120B0DF155
:1028500013084FF0000900BF09F1B00128688DF896
:10286000101004A9CDE90017782100220123029657
:10287000FDF7F6FE28680DF11101CDE9001778216A
:10288000002201238DF811400296FDF7E9FE286829
:1028900010218DF81210782100220123CDE900B714
:1028A0000296FDF7DDFE4FF0000A00BF2868782190
:1028B000402201238DF81340CDE900870296FDF7F1
:1028C000CFFE0AF101004FFA80FABAF1FF3FEDDCCA
:1028D000B9F1070F09F10109BED305B0BDE8F08FCA
:1028E00070B584B040F29C058D21C2F200052868C5
:1028F0008DF80D1001260DF10D014FF48074CDE916
:1029000000167821002201230294FDF7A9FE14216C
:1029100028688DF80E100DF10E01CDE90016782112
:10292000002201230294FDF79BFEAF2128688DF859
:102930000F100DF10F01CDE90016782100220123BF
:102940000294FDF78DFE04B070BD0000F0B583B0B9
:1029500040F29C05C2F2000528600A20FDF7B4FC95
:10296000286840F208074FF480740126C2F200077D
:10297000782100220123CDE900760294FDF770FE54
:102980002868791CCDE900167821002201230294E1
:10299000FDF766FE2868B91CCDE9001678210022F3
:1029A00001230294FDF75CFE2868F91CCDE90016AE
:1029B0007821002201230294FDF752FE2868391D78
:1029C000CDE900167821002201230294FDF748FE8C
:1029D0002868791DCDE90016782100220123029490
:1029E000FDF73EFE2868B91DCDE9001678210022CA
:1029F00001230294FDF734FE2868F91DCDE9001685
:102A00007821002201230294FDF72AFE286807F1AD
:102A10000801CDE900167821002201230294FDF778
:102A20001FFE286807F10901CDE900167821002270
:102A300001230294FDF714FE286807F10A01CDE98D
:102A400000167821002201230294FDF709FE286870
:102A500007F10B01CDE90016782100220123029431
:102A6000FDF7FEFD286807F10C01CDE9001678217D
:102A7000002201230294FDF7F3FD286807F10D0100
:102A8000CDE900167821002201230294FDF7E8FD2C
:102A9000286807F10E01CDE90016782100220123F4
:102AA0000294FDF7DDFD286807F10F01CDE900165E
:102AB0007821002201230294FDF7D2FD286807F156
:102AC0001001CDE900167821002201230294FDF7C0
:102AD000C7FD286807F11101CDE900167821002211
:102AE00001230294FDF7BCFD286807F11201CDE92E
:102AF00000167821002201230294FDF7B1FD286819
:102B000007F11301CDE90016782100220123029478
:102B1000FDF7A6FD286807F11401CDE9001678211C
:102B2000002201230294FDF79BFD286807F115019F
:102B3000CDE900167821002201230294FDF790FDD3
:102B4000286807F11601CDE900167821002201233B
:102B50000294FDF785FD0A20FDF7B6FB03B0BDE842
:102B6000F040FFF767BE00002DE9F04F8BB047B291
:102B7000C0F3C010DDF85090203A01EB400627EA80
:102B8000E7701027A6F1500147EA101400F00F0576
:102B9000102BD7B240F0C0800496264640F29C0429
:102BA000C2F2000420688DF81D104FF001080DF1ED
:102BB0001D014FF4807ACDE900187821002201230D
:102BC000CDF808A0FDF74CFD20680DF11E01CDE900
:102BD000001878210022012305968DF81E60CDF89B
:102BE00008A0FDF73DFD20680DF11F01CDE900189B
:102BF00078210022012306958DF81F50CDF808A0FA
:102C0000FDF72EFD44F21E2B3E01C0F6000B1BF813
:102C100006104F46B9F1000F00F00C81C94320683F
:102C20008DF8201008AD782140220123CDE900580D
:102C3000CDF808A0FDF714FD46F001001BF80000D8
:102C40004022C14320688DF8201078210123CDE96E
:102C50000058CDF808A0FDF703FD46F002001BF870
:102C600000004022C14320688DF820107821012304
:102C7000CDE90058CDF808A0FDF7F2FC46F00300BE
:102C80001BF800004022C14320688DF820107821F5
:102C90000123CDE90058CDF808A0FDF7E1FC46F08E
:102CA00004001BF800004022C14320688DF820106A
:102CB00078210123CDE90058CDF808A0FDF7D0FC1C
:102CC00046F005001BF800004022C14320688DF843
:102CD000201078210123CDE90058CDF808A0FDF798
:102CE000BFFC46F006001BF800004022C1432068EC
:102CF0008DF8201078210123CDE90058CDF808A0E7
:102D0000FDF7AEFC46F007001BF80000C143206849
:102D10008DF8201003E100BF40F29C06C2F20006CD
:102D200030688DF827104FF0010B0DF127014FF49B
:102D30008078CDE9001B782100220123CDF808809E
:102D4000FDF78EFC30680AA9CDE9001B782100222E
:102D500001238DF82840CDF80880FDF781FC30680C
:102D60000DF12901CDE9001B7821002201238DF806
:102D70002950CDF80880FDF773FC07EB470443F6B4
:102D8000F677C0F6000717F81410B9F1000F00F03D
:102D90008581C94330688DF82A100DF12A0A7821FF
:102DA00040220123CDE900ABCDF80880FDF758FCA7
:102DB00007EB44046078A578C1433068E77894F85D
:102DC00004908DF82A10782140220123CDE900AB30
:102DD000CDF80880FDF744FCE94330688DF82A10EF
:102DE000782140220123CDE900ABCDF80880FDF722
:102DF00037FCF94330688DF82A10782140220123EE
:102E0000CDE900ABCDF80880FDF72AFC6FEA090197
:102E100030688DF82A10782140220123CDE900ABDB
:102E2000CDF80880FDF71CFC6079C14330688DF84F
:102E30002A107CE120688DF821100DF12105782100
:102E400040220123CDE90058CDF808A0FDF708FC89
:102E500046F001001BF8001020688DF82110782141
:102E600040220123CDE90058CDF808A0FDF7F8FB7A
:102E700046F002001BF8001020688DF82110782120
:102E800040220123CDE90058CDF808A0FDF7E8FB6A
:102E900046F003001BF8001020688DF821107821FF
:102EA00040220123CDE90058CDF808A0FDF7D8FB5A
:102EB00046F004001BF8001020688DF821107821DE
:102EC00040220123CDE90058CDF808A0FDF7C8FB4A
:102ED00046F005001BF8001020688DF821107821BD
:102EE00040220123CDE90058CDF808A0FDF7B8FB3A
:102EF00046F006001BF8001020688DF8211078219C
:102F000040220123CDE90058CDF808A0FDF7A8FB29
:102F100046F007001BF8001020688DF8211078217A
:102F200040220123CDE90058CDF808A0FDF798FB19
:102F300004980125A0F14F0120688DF822100DF1B1
:102F400022014FF48078CDE9001578210022012379
:102F5000CDF80880FDF784FB059920688DF82310D3
:102F60000DF12301CDE90015782100220123CDF8D0
:102F70000880FDF775FB069920688DF8241009A9D3
:102F8000CDE90015782100220123CDF80880FDF756
:102F900067FB46F008001BF80010002F00F0CA8005
:102FA000C94320688DF825100DF1250778214022AE
:102FB0000123CDE90075CDF80880FDF751FB46F0FF
:102FC00009001BF800004022C14320688DF825103D
:102FD00078210123CDE90075CDF80880FDF740FB8D
:102FE00046F00A001BF800004022C14320688DF81B
:102FF000251078210123CDE90075CDF80880FDF773
:103000002FFB46F00B001BF800004022C143206854
:103010008DF8251078210123CDE90075CDF80880C1
:10302000FDF71EFB46F00C001BF800004022C143D8
:1030300020688DF8251078210123CDE90075CDF8A1
:103040000880FDF70DFB46F00D001BF80000402244
:10305000C14320688DF8251078210123CDE9007542
:10306000CDF80880FDF7FCFA46F00E001BF80000D2
:103070004022C14320688DF8251078210123CDE935
:103080000075CDF80880FDF7EBFA46F00F001BF84D
:103090000000C14320688DF82510C0E030688DF82D
:1030A0002B100DF12B0A782140220123CDE900AB32
:1030B000CDF80880FDF7D4FA07EB44046178306856
:1030C000A578E77894F804908DF82B1078214022A9
:1030D0000123CDE900ABCDF80880FDF7C1FA3068D7
:1030E0007821402201238DF82B50CDE900ABCDF89B
:1030F0000880FDF7B5FA30687821402201238DF869
:103100002B70CDE900ABCDF80880FDF7A9FA306847
:103110007821402201238DF82B90CDE900ABCDF82A
:103120000880FDF79DFA617930688DF82B10CDE9A4
:1031300000AB76E020688DF826100DF12607782187
:1031400040220123CDE90075CDF80880FDF788FA0B
:1031500046F009001BF8001020688DF82610782131
:1031600040220123CDE90075CDF80880FDF778FAFB
:1031700046F00A001BF8001020688DF82610782110
:1031800040220123CDE90075CDF80880FDF768FAEB
:1031900046F00B001BF8001020688DF826107821EF
:1031A00040220123CDE90075CDF80880FDF758FADB
:1031B00046F00C001BF8001020688DF826107821CE
:1031C00040220123CDE90075CDF80880FDF748FACB
:1031D00046F00D001BF8001020688DF826107821AD
:1031E00040220123CDE90075CDF80880FDF738FABB
:1031F00046F00E001BF8001020688DF8261078218C
:1032000040220123CDE90075CDF80880FDF728FAAA
:1032100046F00F001BF8001020688DF82610CDE94D
:103220000075782140220123CDF80880FDF718FAB7
:103230000BB0BDE8F08F00002DE9F04F87B0002BF8
:103240000691059000F0838010981C464008049079
:10325000981E019058421746591E4FF000085FFA19
:1032600080F942F2107A00264FF0000B039102928F
:1032700015E000BF0126DDE90421DDE9103502FB80
:10328000081140F03002C8B20699D2B20095FFF79B
:103290006BFC08F10108A0450BF1010B57D06FEA58
:1032A0000B00C0B2484501D1012029E001996FEA25
:1032B0000800A1EB0801C9B2032900EB040101D207
:1032C000012009E001F0FC02002301200433DFB2F9
:1032D000974200FB0AF0F9D1029F11F003010FD0D1
:1032E000012903D100EB8000400009E04FF47A721D
:1032F000424302294FF0640108BF00FB01F210466F
:10330000B7FBF0F04CF6CD41CCF6CC41A0FB01125E
:10331000D10801EB8101002EA0EB4100ABD1039954
:103320004145A8DD0028A5D1DDE90410DDE910360E
:1033300001FB08000699C0B220220096FFF714FC9A
:10334000002608F10108A0450BF1010BA7D107B039
:10335000BDE8F08F2DE9F04782B092461278002A3E
:103360004BD0DDF8288099460D46064608270C2BE1
:103370004FF0000408BF062716D100BFF0B2E9B233
:10338000D2B20C23CDF80080FFF7EEFB3E44F0B242
:1033900001347A28E0B288BF01351AF8002088BFCE
:1033A0000026002AEAD128E0B9F1100F16D100BF9B
:1033B000F0B2E9B2D2B21023CDF80080FFF7D4FB0F
:1033C0003E44F0B201347828E0B288BF01351AF8E3
:1033D000002088BF0026002AEAD10EE0F0B2D2B267
:1033E00029464B46CDF80080FFF7BEFB0134E0B222
:1033F0001AF800203E44002AF0D102B0BDE8F08760
:103400002DE9F04F89B00891139D069010460021D8
:103410001F46164600F0ABFB00280446BA461CBF08
:1034200001240AF1010A0028039618BF86F000461D
:103430003046029600F0E2FB8046680807905FEA9B
:103440000A6059D0E019059002380490002042F239
:1034500010791EE00121B8FBF1F14CF6CD42CCF61B
:10346000CC42A1FB0223DA0802EB8202A1EB42016B
:10347000DDE9062341F0300100FB0320CAB20899C0
:10348000DDE91337C0B20097FFF76EFBAE42584636
:1034900032D200F1010B5FFA8BF65FFA8AF5B54282
:1034A000D8D0049AC143121AD2B2032A059A0A4408
:1034B00002D201210AE000BF02F0FC030024012136
:1034C0000434E7B29F4201FB09F1F9D112F0030283
:1034D000C1D0012A04D101EB81014900BBE700BF43
:1034E0004FF47A734B43022A4FF0640208BF01FB8A
:1034F00002F31946AFE700BFDDE90601DDE9133746
:1035000001FB0A000899C0B22E220097FFF72CFB9E
:10351000404600F08FFB0146029800F0EBFCDDF81E
:103520004880B8F1000F00F093800746B8F1040F0F
:1035300008F0030102D20A2299B91CE008F0FC024B
:103540000023012042F2107604330546D8B290429F
:1035500005FB06F0F8D148F2A062C0F201026A430E
:1035600049B1012906D0642302EB82005A430229A3
:1035700008BF4200104600F075FB0146384600F0D7
:10358000EDFB00F03BFBB8F1000F61D00746069859
:103590004FF0000900F1050BA8F102000590C8F1F9
:1035A0000000C6B242F2107523E000BF0120B7FB55
:1035B000F0F04CF6CD41CCF6CC41A0FB0112D10885
:1035C00001EB8101079AA0EB410009EB0A0101FB25
:1035D00002B140F03000C2B2C8B20899DDE913343C
:1035E0000094FFF7C1FA09F101095FFA89F040453B
:1035F0002ED26FEA0900C1B2B142D7D00599A1EB32
:103600000901C9B2032900EB080101D2012009E038
:1036100001F0FC02002301200433DCB2944205FBDC
:1036200000F0F9D111F00301C1D0012904D100EB60
:1036300080004000BBE700BF4FF47A72424302298A
:103640004FF0640108BF00FB01F21046AFE700BF76
:103650000398002100F07DFA38B906980899DDE951
:1036600013372D220097FFF77FFA09B0BDE8F08FDE
:103670007047000010B540F28414C2F200042046E6
:10368000FDF736FE2046FDF7EFFD40F28800C2F25E
:103690000000806810BD000080B582B00021C4F237
:1036A000201100F064FA08A10AA2002818BF0A46F7
:1036B0004FF0000C002000210923CDF800C0FFF7D7
:1036C00049FE02B080BD00BF746F6F20636C6F73E2
:1036D0006500000073616665202020202000000046
:1036E00070470000FDF7A8B87047000040F23C109A
:1036F000C2F20000FEF78AB940F28410C2F2000064
:10370000FEF784B9FEE70000FDF72EBA92B0FDF790
:10371000A1F840F2A000C2F20000FFF717F9002460
:103720000120CDE90D44CDE90B4408900C904FF4F5
:10373000E0104FF480310225119008A8CDE909145A
:10374000CDE90F51FDF72AFA20B1EFF3108072B6E0
:10375000FEE700BF0F20CDE903054FF48060CDE9FF
:10376000060403A802210594FDF71CF920B1EFF32C
:10377000108072B6FEE700BFFEF796FEFEF704FF6C
:10378000FEF7CAFFFFF726F8FEF720FFFFF752F813
:10379000FFF7A6F840F28410C2F20000FDF764FDC6
:1037A00040F28A07002410250226C2F2000700BF5B
:1037B000FFF760FF0246002004210223CDE90065E7
:1037C0000294FFF71DFE3A78072006210523CDE974
:1037D0000054FFF731FDFFF74DFFFFF75DFFE7E70F
:1037E00021F0004201F00043A2F16052B2F5801FC7
:1037F00028BFD2F17F6C0BD95FEA001C43EAC202FA
:1038000042EB507018BF704728BF20F0010070478E
:10381000B2F5801FBCBF184670474FEA410C1CF53B
:10382000001F02D2084600F060BB70B500F0C6F879
:1038300000000089FFF7F6BF4FF00040A0F58000C0
:103840007047B0FA80F310FA03F10AD0C3F11D03F8
:1038500003F580634FEA03524FEA415002EBD12156
:1038600070474FF00000704770B5DFF848C11CEAA0
:10387000111E1EBF1CEA13159EEA0C0F95EA0C0FD1
:1038800000F06F8081EA03044EEAD47EAE4421EA60
:103890004C1123EA4C1341F4801143F48013AEF130
:1038A0007F7EA1FB024CA0FB0365361955EB0C058E
:1038B000A1FB034C4CF10003A0FB021C16EB0C0611
:1038C000654153F10003094218BF46F0010613F4A5
:1038D000007F0BD14FEA03314FEA053041EA155121
:1038E00040EA165034036FF003020AE04FEAC321A6
:1038F0004FEAC52041EA555140EA5650F4026FF0B4
:10390000020202EB2E4201EB025585EACE710AD08B
:103910005FEA440C18BF24F0004450F1000041F16C
:10392000000120EAD47040F2FE7C624500D270BDF6
:10393000A84214BF4FF080444FF04044002E08BF0F
:103940000024BEF1806FA8BFA1F1C041BDE8704066
:1039500080F2828001F1C04101F000414FF000008F
:1039600070470CEA13159EEA0C0F18BF95EA0C0F6E
:1039700006D081EA030E4FF000000EF0004170BD4A
:1039800000F01CF88900013E00F007B800F009B80B
:103990004FEA430C5FEA5C5C08D081EA030100F067
:1039A0005BB84FEA410C5FEA5C5CF6D102494FF02C
:1039B000000070470000FF070000F87F0EF1020EC4
:1039C0002EF0030E5EF8046B364205D4012A43EB59
:1039D000030515F5001F12D8012841EB010C1CF559
:1039E000001F0CD80ED14FEAD17C0CEB4C0C0CF123
:1039F000020C15F5001F08BF4CEBD37C04E04FF020
:103A0000080C01E04FEAD37C0CEB4C0526FA05F6D6
:103A100006F00706B6F1040C06D20EEB860CBDE8E4
:103A200070404CF0010C6047DFE80CF0090B02021B
:103A30004FF00041A1F500214FF0000070BD194684
:103A40001046012851EB010418BFD4F5001484BFBF
:103A5000002001F0004170BD0808A0F500114FEAF8
:103A60003101704790EA010F48BF81F0004100F139
:103A70004882421A3CBF801A89184FEAD052A2EB02
:103A8000D1534FF07F4C1CEA410F18BF9CEA026FE4
:103A900000F03B804FF0004C4CEA00204CEA012142
:103AA00021FA03FC10EB0C0C1ED202F1FF325FEA8C
:103AB0001C2040EBC25038BF70471CF07F0F4FEA0C
:103AC000400C18BFBCF17F4F38BF7047C3F12003D3
:103AD000994008BF20F00100BCF17F4F38BF70470C
:103AE000A0F1C04000F001BA4FEA3C00000A40EBF0
:103AF000C25028BF1CF0FF0F4FEA400CE6D018BFA1
:103B0000BCF17F4F38BF7047EAE79CEA026F05D0EF
:103B100010EA5C0F08BF00F00040704710B500F0DD
:103B20009EF900BF64FBBE3E10B500F033F80CBF39
:103B30000120002010BD10B500F02CF814BF0120AA
:103B4000002010BD10B500F0A1F88CBF01200020AE
:103B500010BD10B500F09AF82CBF0120002010BD58
:103B600010B500F0C7F894BF0120002010BD10B5BB
:103B700000F0C0F834BF0120002010BD401058BF35
:103B8000C0F14040491058BFC1F140418142EFF3BC
:103B90000080704750EA010C00F113801CF5000F03
:103BA00058BFBCF5000F01D48842704707D710F505
:103BB000000F58BF11F5000F15D488427047894295
:103BC00070471CF5000F04D5BCF5000FF7D58142F6
:103BD00070474FF0807C1CEB400F38BF1CEB410F4F
:103BE00001D28142704710B500F039F992244900A2
:103BF0004FF000504FF08051FFF7C0BF41000B0E57
:103C0000D3F19E0208D950F400034FEA032323FAAC
:103C100002F048BF4042704710B500F020F900BFE5
:103C200049922480002070476FF0004282EA200011
:103C30007047000010F0004148BF4042B0FA80F3E6
:103C400010FA03F2C3F19D030BD051EAC35101EB0B
:103C50001220530638BF704700F1010008BF20F062
:103C600001007047B0FA80F310FA03F2C3F19D032C
:103C70000AD0D90501EB1220530638BF704700F176
:103C8000010008BF20F001007047000050EA010C5D
:103C900000F113801CF5000F58BFBCF5000F01D4D4
:103CA0008842704707D710F5000F58BF11F5000F75
:103CB00015D488427047894270471CF5000F04D51F
:103CC000BCF5000FF7D5814270474FF0807C1CEBAC
:103CD000400F38BF1CEB410F01D28142704710B535
:103CE00000F0BDF8922449004FF080504FF0005191
:103CF000FFF744BF50EA010C00F113801CF5000FE0
:103D000058BFBCF5000F01D48842704707D710F5A3
:103D1000000F58BF11F5000F15D488427047894233
:103D200070471CF5000F04D5BCF5000FF7D5814294
:103D300070474FF0807C1CEB400F38BF1CEB410FED
:103D400001D28142704710B500F089F892244900F1
:103D50004FF000504FF08051FFF710BF4FF47F0C31
:103D60001CEAD0121EBF1CEAD11392EA0C0F93EA90
:103D70000C0F00F0478090EA010F48BF42F48072B8
:103D80004FF0004C4CEA00204CEA012102EB030208
:103D9000A0FB0113A2F50002002918BF43F00103A4
:103DA0005B0028BF4FEA330342EB22425FEA132C49
:103DB0004CEBC2502EBFBCEB436FB2F57C0F70478B
:103DC0004FEA036CBCF1004F08BF20F00100B2F5D0
:103DD0007C0F38BF70470BD582F0FF0212F5803F91
:103DE000C8BF704700F1C040D8BF00F00040704726
:103DF00000F5000C5FEA4C0C48BF7047B0F1C040C2
:103E000000F073B80CEAD11390EA010F48BF42F4F6
:103E10008072624538BF634504D280EA010000F039
:103E20000040704710B500F01AF800BF8900013E4D
:103E300000F007B800F009B85FEA410C5FEA1C6CBB
:103E400008D080EA010000F050B85FEA400C5FEA59
:103E50001C6CF6D14FF00040A0F5800070470EF1C9
:103E6000020E2EF0030E5EF8044B244204D44FEAF7
:103E70004102B2F17F4F11D84FEA4003B3F17F4FB7
:103E80000CD80ED14FEAD07C0CEB4C0C0CF1020C90
:103E9000B2F17F4F08BF4CEBD17C04E04FF0080C2F
:103EA00001E04FEAD17C0CEB4C0324FA03F404F05C
:103EB0000704B4F1040C06D20EEB840CBDE81040EC
:103EC0004CF0010C6047DFE80CF0070802024FF0ED
:103ED0000040A0F5800010BD0846420018BFD2F196
:103EE000807288BF00F0004010BDFF2141EAD05031
:103EF000C005704790EA010F48BF81F000413FF5CF
:103F0000B8AD421A04D882F00042A0EB020011447E
:103F10004FEAD052A2EBD1534FF07F4C1CEA410F35
:103F200018BF9CEA026F4AD04FF0004C4CEA0020C8
:103F30004CEA012121FA03FCB0EB0C0C0FD412F077
:103F4000FE0F36D05FEA4C001DD5001240EBC25088
:103F500038BF70471CF03F0F18BF70470BE05FEA97
:103F60001C20A2F1010240EBC25038BF70471CF088
:103F70007F0F18BF7047C3F12003994014BF401E44
:103F800020F0010070474FEA1223800808BF7047F5
:103F9000B0FA80FCA2EB0C02CCF1280C60FA0CF019
:103FA00093EA122F04BF00EBC25070474FEAC37070
:103FB0007047130A5FEADC1008BF7047F6E79CEA17
:103FC000026F04D010EA5C0F08BF0020704710B5E4
:103FD000FFF745FF40DFF63E81F0004070470000EC
:103FE00000000000000001020304060708090000A9
:103FF0000000010203040000000000000000002F88
:10400000000000000700070000147F147F14002444
:104010002A7F2A1200626408132300364955225071
:1040200000000503000000001C22410000004122A6
:104030001C000014083E08140008083E0808000090
:1040400000A0600000080808080800006060000088
:10405000002010080402003E5149453E0000427F06
:104060004000004261514946002141454B31001852
:1040700014127F10002745454539003C4A49493014
:1040800000017109050300364949493600064949CE
:10409000291E0000363600000000563600000008D9
:1040A00014224100001414141414000041221408B6
:1040B00000020151090600324959513E007C12119B
:1040C000127C007F49494936003E41414122007F30
:1040D0004141221C007F49494941007F09090901EA
:1040E000003E4149497A007F0808087F0000417F6F
:1040F0004100002040413F01007F08142241007F21
:1041000040404040007F020C027F007F0408107F87
:10411000003E4141413E007F09090906003E4151F0
:10412000215E007F091929460046494949310001AD
:10413000017F0101003F4040403F001F2040201F01
:10414000003F4038403F00631408146300070870C4
:10415000080700615149454300007F414100005577
:104160002A552A55000041417F0000040201020443
:104170000040404040400000010204000020545430
:104180005478007F48444438003844444420003880
:104190004444487F00385454541800087E090102F2
:1041A0000018A4A4A47C007F080404780000447DC7
:1041B0004000004080847D00007F10284400000003
:1041C000417F4000007C04180478007C08040478D7
:1041D00000384444443800FC2424241800182424C3
:1041E00018FC007C080404080048545454200004BF
:1041F0003F444020003C4040207C001C2040201CCC
:10420000003C4030403C004428102844001CA0A042
:10421000A07C004464544C4414141414141400007E
:10422000000000000000000000000000000000008E
:1042300000F8000000000000003330000000001013
:104240000C06100C0600000000000000000040C03A
:104250007840C0784000043F04043F04040000702C
:1042600088FC08300000001820FF211E0000F00824
:10427000F000E018000000211C031E211E0000F0C9
:104280000888700000001E21232419272110101611
:104290000E00000000000000000000000000000010
:1042A00000E018040200000000071820400000028F
:1042B0000418E00000000040201807000000404003
:1042C00080F0804040000202010F01020200000065
:1042D00000F0000000000101011F010101000000C9
:1042E00000000000000080B070000000000000002E
:1042F00000000000000000010101010101010000B7
:10430000000000000000003030000000000000004D
:10431000000080601804006018060100000000E042
:1043200010080810E000000F102020100F000010EF
:1043300010F8000000000020203F20200000007046
:10434000080808887000003028242221300000303E
:104350000888884830000018202020110E00000036
:10436000C02010F8000000070424243F240000F8B7
:104370000888880808000019212020110E0000E09C
:10438000108888180000000F112020110E0000383E
:104390000808C83808000000003F00000000007056
:1043A000880808887000001C222121221C0000E0DF
:1043B00010080810E0000000312222110F00000058
:1043C00000C0C0000000000000303000000000000D
:1043D000008000000000000080600000000000007D
:1043E0008040201008000001020408102000404016
:1043F0004040404040000404040404040400000859
:10440000102040800000002010080402010000700D
:1044100048080808F0000000003036010000C030F5
:10442000C828E810E0000718272423140B00000018
:10443000C038E0000000203C23020227382008F8A2
:10444000888888700000203F202020110E00C03096
:10445000080808083800071820202010080008F86D
:1044600008080810E000203F202020100F0008F866
:104470008888E8081000203F20202320180008F832
:104480008888E8081000203F200003000000C030AA
:1044900008080838000007182020221E020008F82B
:1044A00008000008F808203F210101213F200008F2
:1044B00008F8080800000020203F2020000000002D
:1044C0000808F8080800C08080807F00000008F815
:1044D00088C028180800203F20012638200008F84E
:1044E000080000000000203F20202020300008F8B5
:1044F000F800F8F80800203F003F003F200008F8CF
:1045000030C00008F808203F200007183F00E010E6
:1045100008080810E0000F10202020100F0008F8F5
:1045200008080808F000203F210101010000E01008
:1045300008080810E0000F18242438504F0008F82D
:10454000888888887000203F2000030C302000708D
:104550008808080838000038202121221C0018088B
:1045600008F8080818000000203F2000000008F8A4
:1045700008000008F808001F202020201F000878ED
:10458000880000C83808000007380E010000F8084D
:1045900000F80008F800033C0700073C0300081877
:1045A00068808068180820302C03032C30200838DD
:1045B000C800C83808000000203F20000000100894
:1045C0000808C838080020382621202018000000DC
:1045D00000FE020202000000007F40404000000C8C
:1045E00030C000000000000000010638C0000002DA
:1045F0000202FE000000004040407F00000000007A
:10460000040202020400000000000000000000009C
:104610000000000000008080808080808080000298
:104620000204000000000000000000000000000084
:104630008080808000000019242222223F2008F878
:10464000008080000000003F112020110E000000BB
:10465000008080800000000E11202020110000004A
:1046600000808088F800000E112020103F200000FC
:10467000808080800000001F222222221300008000
:1046800080F0888888180020203F2020000000004B
:10469000808080808000006B94949493600008F880
:1046A000008080800000203F210000203F2000800B
:1046B0009898000000000020203F2020000000000B
:1046C00000809898000000C08080807F000008F87B
:1046D000000080808000203F24022D302000000850
:1046E00008F8000000000020203F2020000080800B
:1046F000808080808000203F20003F20003F80801D
:10470000008080800000203F210000203F2000002A
:10471000808080800000001F202020201F008080DB
:1047200000808000000080FFA12020110E0000000A
:10473000008080808000000E112020A0FF808080FB
:1047400080008080800020203F21200001000000A8
:10475000808080808000003324242424190000807D
:1047600080E0808000000000001F2020000080808A
:10477000000000808000001F202020103F2080804B
:1047800080000080808000010E30080601008080DB
:104790000080008080800F300C030C300F00008000
:1047A0008000808080000020312E0E31200080802B
:1047B00080000080808080818E701806010000805B
:1047C0008080808080000021302C22213000000079
:1047D0000000807C020200000000003F4040000218
:1047E000027C800000000040403F0000000000000C
:1047F0000000FF00000000000000FF0000000102B8
:1048000002030405060708090A0B0C0D0E0F101011
:10481000020000000400000008000000100000007A
:10482000FDFFFFFFFBFFFFFFF7FFFFFFEFFFFFFFB6
:1048300050480008000000202800000094010008F3
:104840007848000828000020A8070000B4010008EC
:104850000100000010000000AED580A83FD300404A
:10486000A1C8DA1281CFD9F1DB40A4A68D14AF0024
:084870000024F4000000000028
:0400000508000131BD
:00000001FF
