:020000040800F2
:100000004807002045010008714700085D3C0008D2
:100010006D470008B10900089D5700080000000066
:100020000000000000000000000000003D56000835
:10003000C109000800000000B15500084156000841
:100040005F0100085F0100085F0100085F01000810
:100050005F0100085F0100085F0100085F01000800
:100060005F0100085F0100085F0100085F010008F0
:100070005F0100085F010008B50900085F01000882
:100080005F0100085F0100085F0100085F010008D0
:100090005F0100085F0100085F0100085F010008C0
:1000A0005F0100085F0100085F0100085F010008B0
:1000B0005F01000849560008555600085F01000816
:1000C0005F0100085F0100085F0100085F01000890
:1000D0005F010008915700085F0100085F010008F8
:1000E0005F0100085F0100085F0100085F01000870
:1000F0005F0100085F0100085F0100085F01000860
:100100005F0100085F010008615600085F010008F8
:100110005F0100085F0100086D560008795600086D
:100120005F0100085F0100085F0100085F0100082F
:10013000DFF80CD000F0F2FB00480047C55700087C
:10014000480700200648804706480047FEE7FEE7CC
:10015000FEE7FEE7FEE7FEE7FEE7FEE7FEE7FEE777
:100160004556000831010008F0B480EA0102D40FBE
:100170004200B2EB410F02D20246084611464A0045
:1001800042D0C30DDDB2C1F3C752AD1A202D35DA0E
:10019000C1F3160141F4000204B15242C5F1200638
:1001A00002FA06F12A411044B3EBD05F23D0C4B168
:1001B000012DA0EBC35009DCF0BC4FF0004202EA75
:1001C000C352DBB200F5000000F0D7B9400000F1E7
:1001D000807000EBC350A0F1807040EAD1704900FC
:1001E00009E0490841EAC071A0EBC35000F50000E6
:1001F000400800EBC350F0BC00F0B6B961420122E8
:1002000002EB4101001BF6E7F0BC704781F00041B2
:10021000AAE780F00040A7E780EA010210B502F0EB
:100220000043400022D04A001FD0010E01EB1261B2
:10023000C0F35600C2F3560240F4000042F400023C
:10024000A0FB022000047F39140400D0401C50EAB7
:10025000124001D44000491EC2B20C0604EBD0107B
:10026000401C4008802A02D003E0002010BD20F08E
:100270000100002900DA0020184310BD30B480EAE4
:10028000010202F0004530F0004221F0004013D09E
:1002900090B1C30DD40DC2F31601C0F31600E41AD9
:1002A00041F4000140F400027D34914201D3641C0A
:1002B00000E04900002C02DA30BC002070474FF407
:1002C00000000023914201D3891A034340084FEAFA
:1002D0004101F7D151B1914202D14FF0004105E007
:1002E00002D24FF0010101E06FF0010103EBC450B5
:1002F000284430BC00F038B92DE9FE4F81EA0304F0
:1003000004F0004421F0004100944FF0000B23F072
:10031000004350EA01045ED052EA03045BD0C3F309
:100320000A54C1F30A552C44A4F2F3340194A0FBFF
:100330000254C1F3130141F48011C3F3130343F4D6
:10034000801301FB024400FB034E840A970A44EA2F
:10035000815447EA8357A4FB076802958D0A05FB81
:1003600007854FEA932C04FB0C542705029D4FEAA6
:10037000065847EA1637B5EB08056EEB070C870EF3
:10038000920E47EA811742EA8312A7FB0201B6EBFD
:100390000B0164EB00042B0D43EA0C335E1844EBB5
:1003A0001C50DA465146E7FB0201C5F313044FEA3D
:1003B0000B3343EA14534FEA0432019C43EA060329
:1003C000A4F10C040294009CCDE900B400F012F9F1
:1003D00003B0BDE8F08F00200146F9E7002801DBFB
:1003E000C0F10040002901DBC1F10041814201D28E
:1003F0000120704700207047002801DBC0F1004059
:10040000002901DBC1F10041814201D30120704785
:1004100000207047C10F80EAE0700844CA079623A5
:10042000002100F0AAB896230022114600F0A5B8DA
:100430000EB540F2334102910021CDE900110A4688
:100440000B4600F0D7F803B000BD00F0004220F0EA
:100450000040C10DC0F3160040F400007F2901DA0E
:1004600000207047962903DCC1F19601C84001E0E5
:1004700096398840002AF4D04042704700F000428C
:1004800030F000400AD0C10D01F56071C0F31600D4
:1004900042EA0151C208400711437047002001465B
:1004A000704701F0004330B421F0004150EA0102EE
:1004B00006D00A0DA2F56072C1F31301002A02DC16
:1004C00030BC00207047440F44EAC104C100E0186A
:1004D00030BC00EBC25000F047B830B50B460146C7
:1004E00000202022012409E021FA02F59D4205D3D3
:1004F00003FA02F5491B04FA02F52844151EA2F17D
:100500000102F1DC30BD2DE9F05F05460020924686
:100510009B4688460646814640241BE028464146C5
:100520004746224600F021FA53465A46C01A9141E6
:1005300010D311461846224600F008FA2D1A67EB30
:1005400001084F4622460120002100F0FFF917EB79
:1005500000094E41201EA4F10104DFDC484631466B
:100560002A464346BDE8F09F0029A8BF7047401CBB
:10057000490008BF20F00100704710B4B0FA80FCB9
:1005800000FA0CF050EA010404BF10BC704749B1F6
:10059000CCF1200421FA04F411FA0CF118BF012166
:1005A00021430843A3EB0C01CB1D4FEA00614FEA46
:1005B000102042BF002010BC704700EBC350104415
:1005C0000029A4BF10BC7047401C490008BF20F0A0
:1005D000010010BC704710B5141E73F1000408DA56
:1005E000401C41F1000192185B411A4301D120F0F7
:1005F000010010BD2DE9F04D92469B4611B1B1FAB4
:1006000081F202E0B0FA80F22032904600F09EF9CA
:1006100004460F4640EA0A0041EA0B0153465A4697
:10062000084313D0114653EA010019D0C8F1400223
:10063000504600F09AF905460E4650465946424645
:1006400000F084F9084305D0012004E02046394633
:10065000BDE8F08D0020054346EAE0762C433743A1
:100660000A986305E40AA0EB08000022FD0A44EAA8
:1006700047540A3002D500200146E9E70105101968
:100680006941DDE9084500196941BDE8F04DA2E77F
:100690002DE9FE4F804681EA0300C00F0C46009012
:1006A00021F0004123F00045B8EB0200A94105D23A
:1006B0004046214690461C460B46024623F0004029
:1006C000104347D0270DC7F30A00C3F30A51029025
:1006D000401A019040286BDAC3F3130040F4801BEA
:1006E0000098924620B10023D2EB030A63EB0B0B78
:1006F00001985946C0F14002504600F027F90646DD
:100700000D4650465946019A00F03FF910EB08009B
:100710006141002487EA115284EAE7731A4340D00A
:10072000009A62B3019A012A4FEA075215DC001BB6
:1007300061EB02014FF0004202EA0752CDE90042AC
:10074000001C41F5801132462B46FFF753FF03B0E2
:10075000BDE8F08F40462146F9E7001B61EB02013E
:10076000001C41F5801300185B412018A2F500170A
:1007700047EB030140EAD570B6196D4111E06D08F1
:100780004FEA360645EAC0754FEA0752001B61EB97
:100790000201001C41F5801149084FEA30000019A0
:1007A000514132462B4603B0BDE8F04FFFF713BF6F
:1007B0000098012240000023D0EB020263EBE073BB
:1007C000009821464FEAE074B8EB000061EB0401A9
:1007D000E9E783F000435BE781F0004158E72DE94A
:1007E000F04D81EA030404F0004B21F0004514466B
:1007F0004FF0000A23F0004150EA050220D054EAED
:1008000001021DD0C5F30A570246C5F31303C1F315
:100810001300C1F30A5640F4801543F48013A7EB8C
:100820000608101BD64608F2FD3873EB050002D30C
:1008300008F1010801E092185B41B8F1000F03DAFA
:1008400000200146BDE8F08D00204FF480110646DF
:1008500084460EE0171B73EB050705D3121B63EBF1
:10086000050306434CEA010C49084FEA3000921890
:100870005B4150EA0107EDD152EA030012D082EA4F
:10088000040083EA0501084305D0101BAB4106D2E2
:100890000122002306E000224FF0004302E06FF047
:1008A000010253101AEB06004CEB085110EB0A0042
:1008B00041EB0B01BDE8F04DFFF78DBEC1F30A52CD
:1008C000C1F3130140F2FF3341F480119A4202DA7E
:1008D00000200146704740F233439A42A2F233426D
:1008E00002DC524200F041B800F030B830B5041ECE
:1008F00071F1000404DB4FF00044404264EB01015D
:10090000141E73F1000405DB1C464FF000435242F5
:1009100063EB0403994208BF904230BD1CB50948FF
:100920000090094801900546009C06E0E06840F010
:10093000010394E8070098471034AC42F6D3FFF760
:10094000FBFB0000506A0008706A0008202A04DBE4
:10095000203A00FA02F1002070479140C2F12003D2
:1009600020FA03F3194390407047202A04DB203A11
:1009700021FA02F00021704721FA02F3D040C2F1BF
:1009800020029140084319467047202A06DBCB1706
:10099000203A41FA02F043EAE07306E041FA02F33A
:1009A000D040C2F120029140084319467047000030
:1009B000FEE7000040F24800C2F2000000F04CB92F
:1009C00070470000B0B540F27014C2F20004204637
:1009D0003C2101F077FD40F20025C2F200052846D7
:1009E0003C2101F06FFD204601F01CFB284601F080
:1009F00019FB40F29020C2F20000BDE8B04001F0C7
:100A000011BB0000EFF3108072B600BFFEE70000DC
:100A1000B0B541F20005C4F20105044628460221A2
:100A200000F0C0FB20702846042100F0BBFB607082
:100A30002846082100F0B6FBA0702846102100F0DF
:100A4000B1FB21786278E07021B1BAB12079607190
:100A5000B0BD00BFA178B0FA80F500290B464FEA7F
:100A6000551518BF0123002A03EA05020ED0DAB19A
:100A70000020207120796071B0BD00BFA1780843CB
:100A8000E4D10420207120796071B0BDB2B10120A1
:100A900020716079012815D00328D7D10620207154
:100AA00020796071B0BD00BF002908BF0028CDD1FA
:100AB0000320207120796071B0BD00BF41B10028D2
:100AC000C4D1E6E70520207120796071B0BD00BF78
:100AD0000028BBD00220207120796071B0BD0000D9
:100AE000014690F82100022816D10868D1E90FC309
:100AF000026822F00E020260026822F00102026027
:100B0000012000FA03F2CCF8042081F82100002033
:100B1000002281F8202070470420886301200022F1
:100B200081F820207047000090F82110022927D179
:100B3000026840F2040C1368C4F2020C23F00E03A6
:100B4000136013680CF17C018A4223F001011160EB
:100B50001AD940F20841C4F202018A4248D040F258
:100B60001C41C4F202018A4246D040F23041C4F234
:100B700002018A4244D14FF48073CCF800345CE027
:100B800004218163012070474321C4F202018A429B
:100B90000EDD6B21C4F202018A421BDC4421C4F247
:100BA00002018A423CD05821C4F202018A4233E059
:100BB0000821C4F202018A4236D01C21C4F202018B
:100BC0008A4237D03021C4F202018A4224D14FF444
:100BD000807230E06C21C4F202018A4226D080216A
:100BE000C4F202018A4217D14FF0807223E000BFA5
:100BF0000123CCF8003420E01023CCF800341CE0B2
:100C00000CF588614FF480338A4208BF4FF480535B
:100C1000CCF8003411E000BF4FF480320BE000BF8D
:100C20004FF4805207E000BF012204E04FF480122D
:100C300001E000BF1022CCF80020012180F8211033
:100C4000426B002180F8201022B180B5904700212E
:100C5000BDE880400846704710B5D0E90FE3D0F8F2
:100C600000C0DEF80020DCF80010DA4054072DD573
:100C700011F004042AD0DCF80010890605D4DCF851
:100C8000001021F00401CCF800100422C4F202028A
:100C900002F17C018C454BD940F20841C4F20201BB
:100CA0008C4500F0AF8040F21C41C4F202018C453B
:100CB00000F0AC8040F23041C4F202018C4540F0BB
:100CC000A9804FF48061C2F80014F3E0940745D581
:100CD00011F0020442D0DCF80010890608D4DCF8D8
:100CE000001021F00A01CCF80010012180F8211039
:100CF0000422C4F2020202F17C018C454CD940F27C
:100D00000841C4F202018C4500F0B48040F21C415D
:100D1000C4F202018C4500F0AF8040F23041C4F2D1
:100D200002018C4540F0AA804FF40071AEE000BF94
:100D30004321C4F202018C4544DD6B21C4F202015F
:100D40008C4551DC4421C4F202018C4500F0A280A4
:100D50005821C4F202018C4568E000BF120740F13F
:100D6000C18011F0080108BF10BDDCF8001021F0AF
:100D70000E01CCF80010012101FA03F2CEF8042094
:100D8000816380F82110016B0022002980F8202067
:100D900040F09280A6E000BF4321C4F202018C45DE
:100DA00048DD6B21C4F202018C4555DC4421C4F2BC
:100DB00002018C4500F084805821C4F202018C4568
:100DC00072E000BF0821C4F202018C4566D01C21EC
:100DD000C4F202018C456BD03021C4F202018C4573
:100DE00024D14FF4806164E06C21C4F202018C458F
:100DF00056D08021C4F202018C4517D14FF080619A
:100E000057E000BF0421C2F8001453E04021C2F8AB
:100E100000144FE002F588634FF480219C4508BF21
:100E20004FF48041C2F8001444E000BF4FF4802129
:100E30003FE000BF0821C4F202018C4544D01C21D0
:100E4000C4F202018C4545D03021C4F202018C4528
:100E50002AD14FF400713EE06C21C4F202018C45AE
:100E600034D08021C4F202018C451DD14FF00071B5
:100E700031E000BF022109E0202107E002F588638C
:100E80004FF400319C4508BF4FF40051C2F80014E4
:100E900022E000BF4FF480410BE000BF042108E0D6
:100EA0004FF4800105E000BF4FF4003113E000BFB4
:100EB00040211160C16AA9B1BDE81040084700BFD8
:100EC0004FF4005107E000BF022104E04FF400118D
:100ED00001E000BF20211160816A0022002980F812
:100EE0002020E9D110BD0000014600284FF001008C
:100EF00008BF70472DE9F04740F2000CC4F2020C25
:100F00000A684FF6F8330CF5816ECBF6FD73724527
:100F100038BF03F5806303EB020E4CF6CD43CCF6ED
:100F2000CC43AEFB033E6FF003060CF5806506EA8A
:100F30009E06D1E901A9D1F80C803CBF0025C4F27E
:100F40000205C1E90F56022681F82160166843F6B2
:100F5000F075AE4346EA0A06D1E9045746EA0906A7
:100F600046EA0806D1E906432E43374327433B436D
:100F7000136000228A6381F8210081F8202000207C
:100F8000BDE8F04770470000B0B5044600F016F920
:100F9000054640F20400C2F200000078611C18BF50
:100FA000044400BF00F00AF9401BA042FAD3B0BDD0
:100FB0002DE9F04F82B00E68002E00F0EF80A0F116
:100FC0008042A2F58432870547EA922241F6004723
:100FD00040F2004EC4F201070625C4F2010EB842E9
:100FE00008BF052500244FF001080F234FF0000A29
:100FF0004FF0000B052A38BF1546009509E000BFE9
:101000000E680AF1010A36FA0AF204F1040400F04B
:10101000C58008FA0AFC16EA0C09F1D04E684FF6B2
:10102000FF72C1F21002964212DC122E56D8DFE88F
:1010300006F0350B4549555555555555555555559A
:101040005555554D510000BFD1F80CB046E000BFDA
:101050004FF6FF72C1F2210296420FDC0022C1F26C
:10106000110296421AD00022C1F21202964215D005
:101070000022C1F22102964210D02FE00022C1F2DC
:10108000220296420AD00022C1F23102964205D0D5
:101090000022C1F23202964220D100BF8A684AB1D2
:1010A000012A14BFC0F814C0C0F810C04FF0080BDC
:1010B00014E000BF4FF0040B10E000BFCA6802F15B
:1010C000080B0BE04FF0000B08E000BFCA6802F10C
:1010D000040B03E0CA6802F10C0B00BF224606466F
:1010E000B9F5807F24BF203A0436376803FA02F549
:1010F000AF430BFA02F23A433260CA79D2067FF567
:101100007FAF41F21807C4F202073A684FF608436E
:1011100042F001023A603A68CFF6FF7302F0010232
:101120000192019A2AF0030272440F25D75804F065
:101130000C06B540AF43009D05FA06F63743D7507D
:101140004E6840F20C45F202DEF8082054BF22EA55
:10115000090242EA0902C4F20105CEF808202A6811
:10116000B70254BF22EA090242EA09022A60DEF805
:101170000420B70354BF22EA090242EA0902CEF86A
:1011800004200F23DEF80020F70354BF22EA0902EF
:1011900042EA0902CEF8002032E700BF02B0BDE803
:1011A000F08F00008068084018BF012070470000E1
:1011B000002A08BF090401617047000040F2403076
:1011C000C2F2000000687047002804BF0120704789
:1011D000F0B581B0044690F83D0028B9002084F8AD
:1011E0003C00204600F050F9242084F83D0020689F
:1011F000016821F001010160016841F400410160D2
:10120000016821F40041016000F01AFB636848F2B4
:10121000A16CC0F2010C40F60011C0F23D01634523
:101220003CBF48F28041C0F21E01884202D2012038
:1012300001B0F0BD4DF68361C4F21B31A0FB011279
:101240002168970CD1F804E04FF496762EF03F0514
:1012500045EA92454D60774348F638160D6AC0F26C
:101260004106A7FB067625F03F07634538BF960C7D
:10127000721C3A430A62CA6948F2A0664CF6FF77CC
:10128000C0F20106B34222EA07020BD801385B0024
:10129000B0FBF3F001306FF31F30042898BF042037
:1012A0001BE000BFA768013857B119277B43B0FB8B
:1012B000F3F001306FF31F3070B100F5804007E0AC
:1012C00003EB4303B0FBF3F001306FF31F3018B1B1
:1012D00000F5004001E000BF01201043C86108682C
:1012E000D4E9072320F0C000104318430860886841
:1012F00048F2FF3204F10C0790438CCF184310439F
:10130000A6698860C86820F0FF0038433043C86091
:10131000086840F00100086000202021206484F863
:101320003D10206384F83E0001B0F0BD2DE9F0438C
:1013300083B0994616460F460446FFF73FFF94F8E0
:101340003D10202924D10546206800BF8169890706
:101350001AD5FFF733FF411B20681A29F6D381699C
:101360008907F3D500202021206384F83D1084F8FC
:101370003E00216C41F02001216484F83C000220F1
:1013800003B0BDE8F08300BF94F83C10012903D1FD
:10139000022003B0BDE8F083012284F83C200368FA
:1013A000DDE90B180A9ADB0703D1036843F0010358
:1013B0000360036823F400630360212084F83D0088
:1013C000402084F83E000020206462626185608DC8
:1013D000394620850020CFF6FF70E0622046324675
:1013E0004B46CDE9008502F03BFC18B1012003B06B
:1013F000BDE8F083208D98B9204641462A4602F088
:1014000093FC88B3206C0428F0D12068016841F473
:1014100000710160012003B0BDE8F0830004EBD04F
:10142000204641462A4602F02FFE0028EAD1616A92
:101430002268084610F8013B1361238D6062581E34
:101440002085678D013F678557697F07E6D50704CB
:10145000E4D048781061881C6062981E2085618DF8
:1014600001396185DAE700BF2068016841F4007145
:101470000160202084F83D00002084F83E0084F8BC
:101480003C0003B0BDE8F08310B586B0006845F2BB
:101490000042C4F2000200219042049102D006B042
:1014A00010BD00BF41F21804C4F20204206802A972
:1014B00040F008002060206800F0080001900198CA
:1014C0004FF440700290122003900320059040F6E4
:1014D0000040C4F20100FFF76BFD0420C4F20100DC
:1014E000016841F0E06141F002010160606840F490
:1014F00000106060606800F400100190019806B070
:1015000010BD000040F2040040F24031C2F2000081
:10151000C2F2000100780A681044086070470000B9
:1015200080B542F20000C4F20200016841F01001EF
:101530000160032000F08CF80F2000F005F800F0A7
:1015400027F8002080BD000070B540F20406C2F20A
:10155000000640F224013278C2F200014FF47A739F
:101560000968B3FBF2F20446B1FBF2F1084600F061
:101570008FFB0F2C4FF0010508D838B94FF0FF3022
:1015800021460022002500F037F87460284670BD1F
:1015900082B041F21800C4F202000168022241F058
:1015A00001010160016801F00101019101994168A7
:1015B00041F080514160406800F0805000900098F8
:1015C0000420C4F20100016862F31A61016002B0F4
:1015D00070470000002848BF704700F01F0101223B
:1015E00002FA01F11C2202EAD0004EF20012CEF201
:1015F000000281507047000010B54EF60C5CCEF230
:10160000000CDCF80030C3F3022E8EF00704042C2B
:1016100028BF0424BEF103034FF0FF3E0EFA04F48A
:1016200038BF0023A14399400EFA03F39A431143B4
:1016300000F00F0200F160430901043A03F564432E
:101640006244002848BF02F10C03197010BD00006D
:101650004EF60C51CEF200010A684FF6FF031A4015
:1016600060F30A2242F0806040F0FD70086070472D
:10167000002804BF012070472DE9F04381B042F2F9
:101680000008C4F202080446D8F800000D4600F035
:10169000070088420CD2D8F8000020F00700284349
:1016A000C8F80000D8F8000000F00700A8426CD18C
:1016B000206841F204098107C4F2020917D54107E5
:1016C00005D5D9F8001041F4E061C9F80010010710
:1016D00005D5D9F8001041F46051C9F80010D9F8C7
:1016E0000010A26821F0F0011143C9F80010C007F2
:1016F00042D1D8F8000000F00700A8420CD9D8F871
:10170000000020F007002843C8F80000D8F80000C7
:1017100000F00700A84238D12068410707D5D9F862
:101720000010E26821F4E0611143C9F800100007DD
:1017300008D5D9F80000216920F4605040EAC100C2
:10174000C9F80000D9F8002002F00C00082841F286
:101750000020C0F27A0051D146F62023C2F3834123
:10176000C0F60003595CD2033CD440F60010C0F22E
:101770003D00484342E000BF606802280AD00128CB
:101780002AD159F8041C890308D4012001B0BDE80E
:10179000F08300BF59F8041C8901F6D5D9F8001070
:1017A00021F003010843C9F80000FFF707FD0646D2
:1017B00041F28837D9F80000616800F00C00B0EB06
:1017C000810F96D0FFF7FAFC801BB842F2D90320B4
:1017D00001B0BDE8F08300BF59F8041C8907D4D5D7
:1017E000DCE700BFD9F8002046F61E23C2F34042D2
:1017F000C0F600039A5C4843B0FBF2F0D9F8001041
:1018000046F2FE12C1F30311C0F60002515C40F231
:10181000240220FA01F140F20800C2F20000006840
:10182000C2F200021160FFF78FFE002001B0BDE898
:10183000F083000040F22400C2F20000006870470C
:1018400040F2240041F20401C2F20000C4F202019D
:101850000068096846F20E22C1F30221C0F60002B8
:10186000515CC8407047000040F2240041F204017E
:10187000C2F20000C4F202010068096846F20E22BA
:10188000C1F3C221C0F60002515CC840704700009D
:10189000002804BF012070472DE9F04182B00446C2
:1018A000007841F20006C007C4F202060CD070684E
:1018B00000F00C00042840F081803068800303D5DC
:1018C0006068002800F04E81207880071BD5706882
:1018D00010F00C0F09D0706800F00C00082840F0E0
:1018E0008B807068C00300F187803068800703D563
:1018F0002069012840F036813068616920F0F800E5
:1019000040EAC10030602078000713D420784007F7
:101910002CD4E569002D00F02081706800F00C00E7
:10192000082840F0AF80012D40F00C81012002B06A
:10193000BDE8F081A069002800F08C800020C4F28E
:1019400042200121C0F88014FFF738FC054600BF93
:10195000706A800700F1BA80FFF730FC401B022854
:10196000F6D9032002B0BDE8F08100BFF0695FEA5C
:10197000C00808D4F06940F08050F061F06900F0D0
:1019800080500090009847F20007C4F200073868C2
:10199000C0054DD4386840F480703860FFF70EFC05
:1019A000054600BF3868C00542D4FFF707FC401B5E
:1019B0006428F7D9032002B0BDE8F081706800F018
:1019C0000C00082803D17068C0033FF576AF60684B
:1019D000002800F00981B0F5A02F00F01D81B0F5BE
:1019E000803F00F01D81306820F480303060306826
:1019F00020F4802017E100BF2069002840F2000099
:101A0000C4F2422000F08C8001210160FFF7D6FB78
:101A1000054600BF306880073FF56EAFFFF7CEFB8D
:101A2000401B0228F6D9032002B0BDE8F08100BFB8
:101A3000E068002800F09A80052800F0B1800128B5
:101A400000F0B280306A20F001003062306A20F08D
:101A50000400ACE00020C4F242200021C0F8801451
:101A6000FFF7ACFB054600BF706A80077FF54EAFFD
:101A7000FFF7A4FB401B0228F6D9032002B0BDE803
:101A8000F08100BF0027C4F2422700203866FFF72C
:101A900095FB022D05460DD13068800140F1D680BE
:101AA000FFF78CFB401B02284FF00300F4D902B073
:101AB000BDE8F081306880014FD5FFF77FFB401B08
:101AC00002284FF00300F5D9F1E700BF40F22400EF
:101AD000C2F20000006844F6D351C1F26201A0FBDB
:101AE0000101480A019000BF00BF0198411E002873
:101AF00001913FF40BAF00BF0198411E00280191F6
:101B00003FF404AF00BF0198411E002801913FF44B
:101B1000FDAE00BF0198411E00280191E4D1F5E619
:101B200000210160FFF74AFB054600BF30688007CF
:101B30007FF5E9AEFFF742FB401B02284FF00300A0
:101B4000F4D9B4E77068216A00F480328A4209D17E
:101B5000616A00F47010884204D1002002B0BDE830
:101B6000F08100BF012002B0BDE8F081306A20F0B2
:101B700001003062306A20F004003062FFF71EFB83
:101B8000054641F2883700BF306A800722D5FFF74B
:101B900015FB401BB8424FF00300F5D987E700BFA3
:101BA000306A40F004003062306A40F00100306278
:101BB000FFF704FB054641F2883700BF306A800713
:101BC00008D4FFF7FBFA401BB842F7D9032002B054
:101BD000BDE8F081B8F1000F3FF59BAEF06920F051
:101BE0008050F06195E600BF306820F480303060AE
:101BF000306820F480203060FFF7E0FA054600BF2F
:101C0000306880037FF560AEFFF7D8FA401B642888
:101C10004FF00300F4D94AE7306840F48020306088
:101C2000306840F480303060FFF7C8FA054600BFE6
:101C3000306880033FF548AEFFF7C0FA401B6428C8
:101C4000F6D9032002B0BDE8F08100BF206AB0F5EC
:101C5000803F05D17168A26821F4003111437160A1
:101C60007168626A21F474111143084370600120A5
:101C70003866FFF7A3FA0446306880013FF56DAF80
:101C8000FFF79CFA001B02284FF00300F4D90EE77F
:101C9000411E0020B0EB116F1CBF012070474EF2B7
:101CA0001002CEF2000251604EF62351CEF2000136
:101CB000F0230B700721906011607047704700009F
:101CC0007047000090F83C20012A04BF02207047B2
:101CD000B0B501F108053CCDD1E900CE23F47C5329
:101CE00022F470521A432EF4F0431A432CF4E043CA
:101CF0001A4324F4C0431A432A43C96922F4804298
:101D0000036811435964002180F83C10BDE8B040DD
:101D10000846704790F83C20012A4FF0020242D05A
:101D200010B580F83D200268D2F804E0D2F808C06F
:101D30000C682EF07003234340F6FF34C4F2000415
:101D4000A242536010DCB2F1804F1FD040F200433A
:101D5000C4F200039A4219D040F60003C4F2000313
:101D60009A4213D017E000BF40F60043C4F20003CC
:101D70009A420BD043F20043C4F201039A4205D0C9
:101D800042F60043C4F201039A4204D149682CF0A0
:101D90008003194391600121002280F83D1080F8F2
:101DA0003C20BDE81040104670470000002804BFEA
:101DB0000120704710B5044690F83D0028B9002076
:101DC00084F83C00204600F085F8022084F83D00AD
:101DD000206840F6FF330268C4F2000343F2004C6F
:101DE0009842C4F2010C21DCB0F1804F2CD040F2BB
:101DF0000041C4F20001884226D040F60001C4F23E
:101E00000001884220D0984224DCB0F1804F2FD0CE
:101E100040F20041C4F20001884229D040F600019E
:101E2000C4F20001884223D026E000BF40F6004102
:101E3000C4F20001884207D0604505D042F6004157
:101E4000C4F201018842DED1A16822F070020A4387
:101E50009842DADD40F60041C4F20001884207D022
:101E6000604505D042F60041C4F20101884203D129
:101E7000216922F440720A43A36922F08001D4F858
:101E800004E0E268194360450160C262C0F828E0DE
:101E900005D042F60041C4F20101884201D16169D6
:101EA000016301214161002084F8461084F83E104E
:101EB00084F83F1084F8401084F8411084F84210F0
:101EC00084F8431084F8441084F8451084F83D10D9
:101ED00010BD000080B586B0006840F6FF72C4F205
:101EE000000200219042059124DD41F20001C4F27C
:101EF0000001884256D041F20041C4F200018842FC
:101F000068D042F60041C4F20101884248D141F252
:101F10001C00C4F2020050F8041C41F4006140F8B7
:101F2000041C50F8040C00F400600190019806B005
:101F300080BD00BFB0F1804F64D040F60001C4F214
:101F4000000188422CD141F21C00C4F20200016859
:101F500041F004010160016801F00401019101995F
:101F600050F8041C41F0080140F8041C50F8040C1F
:101F700002A900F008000190019840200290002082
:101F8000CDE9030040F60040C4F20100FFF710F86D
:101F90001E2000210022FFF72FFB1E20FFF71AFB57
:101FA00006B080BD41F21C00C4F2020001680022AC
:101FB00041F0100101600068002100F01000019064
:101FC00001983620FFF718FB362006B0BDE88040A8
:101FD000FFF700BB41F21C00C4F2020001680022BE
:101FE00041F0200101600068002100F02000019014
:101FF00001983720FFF700FB372006B0BDE880408E
:10200000FFF7E8BA41F21C00C4F20200016841F097
:1020100001010160006800F001000190019806B024
:1020200080BD000090F83D1001291CBF01207047C1
:10203000022180F83D10006840F6FF32C168C4F20A
:102040000002904241F00101C1600FDCB0F1804F0D
:102050001ED040F20041C4F20001884218D040F680
:102060000001C4F20001884212D018E040F600419D
:10207000C4F2000188420BD043F20041C4F20101D6
:10208000884205D042F60041C4F20101884206D1DF
:10209000816801F00701062904BF0020704701682C
:1020A00041F0010101600020704700000146006816
:1020B00041F21113C26822F00102C260026A1A42A0
:1020C00004D00122002081F83D207047026A40F2CE
:1020D00044431A42F5D1026822F001020260012253
:1020E000002081F83D20704790F83C20012A4FF0F5
:1020F000020200F0C58080B580F83D20D0F800C015
:102100004FF67772DCF8083023EA0202CCF8082098
:102110000B684F2B28DC1F2B44DD202B45D0302BA8
:1021200043D0402B40F0AE80D1F804E0C968DCF821
:102130002030DCF8202022F00102CCF82020DCF84E
:10214000182022F0F00242EA011123F00A0242EACA
:102150000E02CCF81810CCF82020DCF8081041F062
:10216000470121F0300180E06F2B27DDB3F5005FE0
:1021700048D0B3F5805F7AD0702B40F08380D1E9EE
:1021800001E3C968DCF8082043EA0E0322F47F4229
:1021900043EA01211143CCF80810DCF8081041F0A3
:1021A000770162E00BB1102B6CD1DCF8081021F044
:1021B0007001194341F0070157E000BF502B35D0A3
:1021C000602B5FD1D1F804E0C968DCF82030DCF87E
:1021D000202022F01002CCF82020DCF8182022F475
:1021E000704242EA013123F0A00242EA0E12CCF81A
:1021F0001810CCF82020DCF8081041F0670121F01D
:10220000100132E0D1E901E3C968DCF8082043EAB3
:102210000E0322F47F4243EA01211143CCF8081057
:10222000DCF8081041F480411FE000BFD1F804E061
:10223000C968DCF82030DCF8202022F00102CCF85C
:102240002020DCF8182022F0F00242EA011123F0ED
:102250000A0242EA0E02CCF81810CCF82020DCF872
:10226000081041F0570121F02001CCF8081000229D
:10227000012180F83D10002180F83C10BDE880402D
:10228000104670470122F3E7002804BF0120704781
:102290002DE9F04F81B0044690F83D008B4628B9F7
:1022A000002084F83C00204600F0B0F8022084F8BA
:1022B0003D00206844F20702816840F6FF339143F5
:1022C00081600268C4F2000343F2004C9842C4F2F9
:1022D000010C21DCB0F1804F2CD040F20041C4F25F
:1022E0000001884226D040F60001C4F20001884275
:1022F00020D0984224DCB0F1804F2FD040F2004132
:10230000C4F20001884229D040F60001C4F2000165
:10231000884223D026E000BF40F60041C4F200010D
:10232000884207D0604505D042F60041C4F2010161
:102330008842DED1A16822F070020A439842DADDB9
:1023400040F60041C4F20001884207D0604505D044
:1023500042F60041C4F20101884203D1216922F40E
:1023600040720A43A36922F080016268E56819435C
:1023700060450160C562826205D042F60041C4F248
:102380000101884201D161690163012141618268D3
:102390008369D0F820C0DBE9005EDBE9027845EA1A
:1023A000020ADBF818504FF6FF7923EA090347EADF
:1023B00005254FF6FC47BD43DBE9077643EA0803F2
:1023C000DBF810202B4343EA072343EA02122CF0E8
:1023D0002203DBF8147043EA0E0342EA063243EAB2
:1023E0000713C0F808A08261036284F8461084F8DD
:1023F0003E1084F83F1084F8421084F8431084F8AB
:102400003D10002001B0BDE8F08F000010B586B08F
:10241000006840F60041C4F2000188424FF000011C
:10242000CDE90411CDE902111ED040F20041C4F201
:102430000001884244D141F21800C4F20200416810
:102440001D2441F002014160416801F00201019147
:102450000199016841F004010160006800F0040086
:1024600001900198C02017E041F21800C4F2020068
:102470004168322441F008014160416801F00801DF
:1024800001910199016841F004010160006800F0C8
:102490000400019001980320029000200390012085
:1024A000049040F60000C4F2010002A9FEF780FD8E
:1024B000204600210022FFF79FF82046FFF78AF808
:1024C00006B010BD80B590F83E2090F83F3090F8EF
:1024D00042E090F843C004290AD0B9B9012A4FF06C
:1024E000010208BFBEF1010F34D0104680BD00BF0D
:1024F000012B4FF0010208BFBCF1010FF5D1022101
:1025000080F83F1080F8431000681EE0012A4FF069
:10251000010208BF012BE8D1BEF1010FE5D1BCF1EA
:10252000010FE2D1022280F83E2080F83F2080F89F
:10253000422080F8432091B10068016A21F0010136
:102540000162016A41F00101016210216FF0100285
:1025500009E000BF022180F83E1080F842100068B8
:1025600001216FF00102036A1A400262026A1143FC
:1025700001620168002241F001010160104680BD46
:1025800070B540F2B814C2F20004A04200D070BD91
:1025900040F22805C2F200052878012814D000284E
:1025A00018BF70BD2046002100F06AFE21686861F6
:1025B000086A20F00A000862086A40F00200086217
:1025C00028780130287070BD20460021002600F0D8
:1025D00057FEA8612046002100F022FA21684FF43E
:1025E000807028804E62D5E90501081A6860FDF701
:1025F0001FFF4CF29C4246F67203CBF22002C3F658
:102600009173FDF779FEFDF74CFFA86070BD0000E7
:1026100090F83C30012B04BF022070474FEAB20211
:10262000032A2BD8F0B5DFE802F0032F4F6D00BF6F
:102630000368D1E900C5D1F80CE01C6A1A6A40F6BB
:10264000FF3722F001021A621A4652F8186FC4F2DC
:102650000007BB427ADCB3F1804F00F0898040F282
:102660000047C4F20007BB4200F0828040F600073A
:10267000C4F20007BB427BD096E000BF01210022DC
:1026800080F83C20084670470368D1E900E6D1E9AC
:1026900002C11C6A1A6A360222F010021A621A4635
:1026A00052F8185F4FF2FF07BE4325F4734561F3FC
:1026B0000F3624F0A0040EF00A0746EA050144EAAA
:1026C000071711601F623AE00768D1E900C5D1E938
:1026D00002313C6A3A6A61F3071522F480723A6269
:1026E0003A4652F81C6F26F0F30645EA06014FEA17
:1026F0005C0666F3492411603C62116821F00C010C
:10270000116046E00368D1E900E6D1E902C11C6A24
:102710001A6A360222F480521A621A4652F81C5F74
:102720004FF2FF07BE4325F4734561F30F364FEABE
:102730005E0746EA050167F34D3411601C621168BB
:102740004FEA0C2321F44061116022E040F600477B
:10275000C4F20007BB420BD043F20047C4F20107AA
:10276000BB4205D042F60047C4F20107BB421BD171
:1027700026F00306354324F00A070CF00A066EF330
:10278000071537449D611F629F6927F00C079F6101
:102790008B681168194311600021BDE8F0400022E8
:1027A00080F83C200846704746F00105E3E700004A
:1027B000002804BF0120704710B5044690F83D0082
:1027C00028B9002084F83C00204600F085F802205B
:1027D00084F83D00206840F6FF330268C4F200032D
:1027E00043F2004C9842C4F2010C21DCB0F1804F5E
:1027F0002CD040F20041C4F20001884226D040F6BD
:102800000001C4F20001884220D0984224DCB0F1DB
:10281000804F2FD040F20041C4F20001884229D0FD
:1028200040F60001C4F20001884223D026E000BF38
:1028300040F60041C4F20001884207D0604505D04F
:1028400042F60041C4F201018842DED1A16822F0C3
:1028500070020A439842DADD40F60041C4F20001FA
:10286000884207D0604505D042F60041C4F201011C
:10287000884203D1216922F440720A43A36922F0FD
:102880008001D4F804E0E268194360450160C26247
:10289000C0F828E005D042F60041C4F201018842A8
:1028A00001D16169016301214161002084F8461072
:1028B00084F83E1084F83F1084F8401084F84110EA
:1028C00084F8421084F8431084F8441084F84510CA
:1028D00084F83D1010BD00007047000051B3082976
:1028E0000AD0042919BF00F1410200F1450300F1AB
:1028F0003F0200F1430303E000F1400200F1440312
:1029000012781B78012A4FF0010208BF012B01D079
:10291000104670470222082922D004292CD180F8C1
:102920003F2080F843204FEAB103032B4FF0010210
:10293000EED82BE090F83E2090F84230012A4FF07C
:10294000010208BF012BE3D1022280F83E2080F86B
:1029500042204FEAB103032B4FF00102D8D815E013
:1029600080F8402080F844204FEAB103032B4FF059
:102970000102CDD80AE000BF80F8412080F8452050
:102980004FEAB103032B4FF00102C1D846F6302CB9
:102990000068C0F6000C5CF823C0C36801F01F019A
:1029A00043EA0C03C360036A02FA01F123EA01025D
:1029B0000262026A114340F6FF32C4F20002904202
:1029C00001620FDCB0F1804F1ED040F20041C4F232
:1029D0000001884218D040F60001C4F2000188428C
:1029E00012D016E040F60041C4F2000188420BD03C
:1029F00043F20041C4F20101884205D042F6004191
:102A0000C4F20101884204D1816801F0070106295E
:102A100003D0016841F001010160002210467047B7
:102A20004FEAB102032A4FF0010C42D810B546F626
:102A3000402E0368C0F6000E5EF822E0DA6802EA73
:102A40000E02DA6001F01F0E1C6A0CFA0EF224EA84
:102A500002021A621A6A41F211141A621A6A2242B6
:102A600008D11A6A40F24444224203D11A6822F083
:102A700001021A60BDE8104071B1082912D0042982
:102A80004FF0010119BF80F8411080F8451080F81F
:102A90003F1080F843100AE0012180F83E1080F8D2
:102AA000421004E0012180F8401080F844104FF0FB
:102AB000000C60467047000010B5016804460869C4
:102AC000800744BFC8685FEA807039D4086940074E
:102AD00044BFC8685FEA40703ED40869000744BF3D
:102AE000C8685FEA007045D40869C00644BFC8687A
:102AF0005FEAC0604AD40869C0071CBFC8685FEAC3
:102B0000C07051D10869000644BFC8685FEA006020
:102B100052D40869400644BFC8685FEA406053D495
:102B20000869800646BFC8685FEA806010BD6FF024
:102B3000200220460A61BDE81040FFF7C1B800BF7F
:102B40006FF002000861012020778869800743D078
:102B50002046FFF715FD45E06FF0040008610220F4
:102B60002077886910F4407F40D02046FFF708FDA9
:102B700042E000BF6FF00800086104202077C869B8
:102B800080073DD02046FFF7FBFC3FE06FF01000D0
:102B9000086108202077C86910F4407F3AD02046A9
:102BA000FFF7EEFC3CE000BF6FF00100086120463B
:102BB00000F0E6FA2168A5E76FF080000861204682
:102BC000FFF77CF82168A4E76FF040000861204619
:102BD00000F070FB2168A3E7204600F091F8204642
:102BE00000F05CFA2168002020776FE7204600F0B3
:102BF00087F8204600F052FA2168002020776CE721
:102C0000204600F07DF8204600F048FA21680020B8
:102C1000207769E7204600F073F8204600F03EFA7E
:102C200021680020207766E770B586B00068002133
:102C3000B0F1804FCDE904110391029122D042F608
:102C40000041C4F20101884258D141F21800C4F297
:102C50000200016841F004010160006802A900F06F
:102C60000400019001984FF400600290022003904C
:102C70000320059040F60000C4F20100FEF798F929
:102C800006B070BD41F21800C4F20200016840F6BF
:102C9000000441F0040101600168C4F2010401F084
:102CA000040101910199016802AD41F00801016040
:102CB0000068022600F008000190019848F20C001C
:102CC00002902046294603960596FEF771F90820E2
:102CD000CDE9020604F5806029460596FEF768F9FD
:102CE0000420C4F2010001684FF6FF42CFF6FF0254
:102CF000114041F0E06141F48071016006B070BDA7
:102D00007047000090F83C30012B04BF0220704750
:102D10004FEAB202032A00F225812DE9F041DFE8F3
:102D200002F0034B95DF00BF036843F200461D6AC3
:102D30001A6A25F0020522F001021A621A46D3F837
:102D400004C052F8188F8F68D1F800E0C4F2010671
:102D5000B34245EA070505D042F60047C4F2010731
:102D6000BB4205D1CF6825F00C0527F004073D4391
:102D7000B34205D042F60046C4F20106B34206D182
:102D8000D1E905672CF44074264346EA070C28F085
:102D9000730444EA0E07C3F804C09F614F680969D1
:102DA0005F631D629F6947F008079F619F6927F075
:102DB00004079F61CAE000BF036843F200461D6A32
:102DC0001A6A25F0200522F010021A621A46D3F87A
:102DD00004C052F8188F8F68D1F800E0C4F20106E1
:102DE000B34245EA071505D042F60047C4F2010791
:102DF000BB4207D1CF686FF0400425F0C00504EA5C
:102E000007142543B34205D042F60044C4F201043E
:102E1000A34206D1D1E905462CF44067264347EA90
:102E2000860C28F4E64444EA0E27C3F804C09F61E8
:102E30004F6809699F631D629F6947F400679F613E
:102E40009F6927F480679F617FE000BF036843F2BA
:102E500000461D6A1A6A25F4007522F480721A620F
:102E60001A46D3F804C052F81CEF8F68D1F80080DE
:102E7000C4F20106B34245EA072505D042F60047F1
:102E8000C4F20107BB4208D1CF6840F2FF443F02C1
:102E900025F4406527EA04042543B34205D042F6F1
:102EA0000044C4F20104A34206D1D1E905462CF442
:102EB0004057264347EA061C2EF0730747EA0807E7
:102EC000C3F804C0DF614F680969DF631D62DF6911
:102ED00047F00807DF61DF6927F00407DF6135E0AD
:102EE000036843F20047D3F820C01A6AC4F201070E
:102EF00022F480521A621A465C6852F81C5FD1F8BC
:102F000000E08E68BB4205D042F60047C4F20107DC
:102F1000BB4204D14F6924F4804444EA87142CF462
:102F2000005747EA063725F4E64646EA0E265C6077
:102F3000DE614E6809691E641F62DF6947F400673D
:102F4000DF61DF6927F48067DF61090213681943D5
:102F500011600021BDE8F041002280F83C200846C5
:102F6000704700BF0121002280F83C2008467047CE
:102F7000002804BF0120704710B5044690F83D00BA
:102F800028B9002084F83C00204600F085F8022093
:102F900084F83D00206840F6FF330268C4F2000365
:102FA00043F2004C9842C4F2010C21DCB0F1804F96
:102FB0002CD040F20041C4F20001884226D040F6F5
:102FC0000001C4F20001884220D0984224DCB0F114
:102FD000804F2FD040F20041C4F20001884229D036
:102FE00040F60001C4F20001884223D026E000BF71
:102FF00040F60041C4F20001884207D0604505D088
:1030000042F60041C4F201018842DED1A16822F0FB
:1030100070020A439842DADD40F60041C4F2000132
:10302000884207D0604505D042F60041C4F2010154
:10303000884203D1216922F440720A43A36922F035
:103040008001D4F804E0E268194360450160C2627F
:10305000C0F828E005D042F60041C4F201018842E0
:1030600001D16169016301214161002084F84610AA
:1030700084F83E1084F83F1084F8401084F8411022
:1030800084F8421084F8431084F8441084F8451002
:1030900084F83D1010BD000070470000704700002C
:1030A00041B1082910D0042914BF00F1410200F1F8
:1030B0003F020BE090F83E20012A1CBF0120704720
:1030C000022280F83E2013E000F140021278012A2B
:1030D0001CBF012070470222082907D0042914BF11
:1030E00080F8412080F83F2002E000BF80F84020B7
:1030F000006801F01F010122036A02FA01F123EACC
:1031000001020262026A114340F6FF32C4F2000279
:10311000904201620EDCB0F1804F25D040F20041B8
:10312000C4F2000188421FD040F60001C4F2000141
:1031300018E000BF40F60041C4F20001884213D0FD
:1031400043F20042C4F2010242F600419042C4F24E
:10315000010101D088420CD1436C904243F40043FA
:10316000436401D0884204D1816801F00701062937
:1031700003D0016841F001010160002070470000A8
:103180002DE9F04140F24821C2F20001884251D0BD
:1031900040F29021C2F20001884218BFBDE8F081E0
:1031A00040F23C30C2F20000017840F20022C2F24C
:1031B000000201311268017040F27011506A40F251
:1031C0002037C2F20001C2F20007096838704C6A69
:1031D0000023C0B27C7053624B62FDF724F940F2C9
:1031E0000008C4F2C8284146FDF716F80025C4F2CD
:1031F000A0152946FDF742F80026C4F230163146E4
:10320000FDF73CF84FF07A51FDF706F87860E0B230
:10321000FDF709F94146FCF7FFFF2946FDF72EF8B7
:103220003146FDF72BF84FF07A51FCF7F5FFB86007
:10323000BDE8F08141F20004C4F2010420460121FE
:103240000022FDF7B5FF204601210122FDF7B0FF66
:10325000142002F0A5FA204601210022FDF7A8FF64
:1032600040F2B810C2F200000268116A21F00A01AF
:103270001162136A00211362BDE8F041FFF72EBB13
:103280004FEAB101032984BF00207047DFE801F055
:10329000020E060A006834300068704700683C304F
:1032A0000068704700684030006870470068383038
:1032B00000687047704700007047000070470000CA
:1032C000B0B582B0044600680168C368426901F085
:1032D0002F05202D03F0200506D12DB1204602B088
:1032E000BDE8B04002F0D4B95FEA017C1EBF02F035
:1032F000010E03F4907212EB0E0243D1226BCD0645
:1033000018D5012A16D113F0100213D00021019113
:1033100001680191416801910199406940063BD4DF
:10332000A08DE18DE28D002A18BF884240F0F28125
:1033300002B0B0BD0A0640F1E78013F0800200F051
:10334000E38094F841102129F2D1A168B1F5805FA2
:1033500003D12169002900F06382216A4A1C22629C
:1033600009784160E18C01390A04E184E0D1C16847
:1033700021F08001C160C16841F04001C16002B02C
:10338000B0BD00BFCA0718BF13F4807240F0D080F0
:103390004A0700F1D380D8E0E06B016849688AB23F
:1033A000002AC5D0A38D9A42C2D2E1858069202827
:1033B00000F09E80206850E8030F216820F48070A0
:1033C00041E80302DAB1206850E8030F216820F4D5
:1033D000807041E8030292B1206850E8030F216831
:1033E00020F4807041E803024AB1206850E8030FDE
:1033F000216820F4807041E80302002ADAD12068B5
:1034000050E8050F216820F0010041E80502C2B331
:10341000206850E8050F216820F0010041E805020E
:103420007AB3206850E8050F216820F0010041E8D8
:10343000050232B3206850E8050F216820F0010032
:1034400041E80502002ADAD11BE000BF206850E8FD
:10345000050F216820F0400041E80502DAB120683C
:1034600050E8050F216820F0400041E8050292B1C4
:10347000206850E8050F216820F0400041E805026F
:103480004AB1206850E8050F216820F0400041E86B
:103490000502002ADAD1202084F8420000202063AF
:1034A000206850E8030F216820F0100041E8030273
:1034B000DAB1206850E8030F216820F0100041E8DD
:1034C000030292B1206850E8030F216820F0100039
:1034D00041E803024AB1206850E8030F216820F058
:1034E000100041E80302002ADAD1E06BFDF7F8FA98
:1034F00002206063A08DE18D401A81B2204602B0A7
:10350000BDE8B040FFF7D8BE49067FF511AF13F014
:1035100040013FF40DAFC16821F04001C16020219E
:10352000204684F8411002B0BDE8B04000F094BBE2
:10353000626C42F0010262644A0706D5BEF1000FD8
:1035400003D0626C42F0020262648A0706D5BEF1C3
:10355000000F03D0626C42F004026264BCF1000F01
:1035600006D55EEA050203D0626C42F0080262648E
:10357000626C002A3FF4DCAE890604D51DB12046FA
:1035800002F086F820684069616C00F0400001F0AC
:103590000801401800F0B680206850E8030F216849
:1035A00020F4907041E80302BAB3206850E8030F9A
:1035B000216820F4907041E8030272B3206850E85B
:1035C000030F216820F4907041E803022AB32068B9
:1035D00050E8030F216820F4907041E80302002AAC
:1035E000DAD11AE0206850E8050F216820F00100C8
:1035F00041E80502DAB1206850E8050F216820F0A3
:10360000010041E8050292B1206850E8050F2168E9
:1036100020F0010041E805024AB1206850E8050F9A
:10362000216820F0010041E80502002ADAD1206B70
:10363000012824D1206850E8030F216820F01000F1
:1036400041E80302DAB1206850E8030F216820F056
:10365000100041E8030292B1206850E8030F21688E
:1036600020F0100041E803024AB1206850E8030F3F
:10367000216820F0100041E80302002ADAD120205E
:1036800084F842000020206320684069400640F131
:10369000C180206850E8050F216820F0400041E813
:1036A0000502DAB1206850E8050F216820F04000DB
:1036B00041E8050292B1206850E8050F216820F02A
:1036C000400041E805024AB1206850E8050F216832
:1036D00020F0400041E80502002ADAD1E06B002822
:1036E00000F0988045F28561C0F600014163FDF766
:1036F0001BFA00283FF41CAEE06B416B02B0BDE842
:10370000B04008472046FFF7D9FD0020606402B0B2
:10371000B0BD00BF401A00BF216851E8031F2268F6
:1037200021F4907142E80313BBB3216851E8031FF1
:10373000226821F4907142E8031373B3216851E8C1
:10374000031F226821F4907142E803132BB3216810
:1037500051E8031F226821F4907142E80313002B03
:10376000DAD11AE0216851E8051F226821F0010131
:1037700042E80513DBB1216851E8051F226821F0FA
:10378000010142E8051393B1216851E8051F226841
:1037900021F0010142E805134BB1216851E8051FF2
:1037A000226821F0010142E80513002BDAD1202123
:1037B00084F8421000212163216851E8031F226828
:1037C00021F0100142E80313DBB1216851E8031F27
:1037D000226821F0100142E8031393B1216851E8F7
:1037E000031F226821F0100142E803134BB1216846
:1037F00051E8031F226821F0100142E80313002B57
:10380000DAD1022281B22046626302B0BDE8B04044
:10381000FFF752BD204602B0BDE8B040FFF74EBDF5
:10382000216A31F8022B6FF35F224260216299E531
:10383000002804BF0120704710B5044690F84100ED
:1038400028B9002084F84000204600F063F82420C6
:1038500084F841002068D4E90212C36823F40053BD
:10386000C360036923F440531A430261D4E904237B
:103870001143C268194341F20C639A431143C1607A
:103880004169A26921F44071114343F60002C4F278
:1038900001029042416103D0FDF7D2FF02E000BF78
:1038A000FDF7E2FFD4E90023192148439900B0FB5A
:1038B000F1F048F21F5CC5F2EB1CA0FB0C314FF697
:1038C0009C734909C0F6FF7301FB0300322303EB2D
:1038D0000010A0FB0C03F02000EA531000EB0110D5
:1038E000C3F34311084490601069202120F49040F4
:1038F0001061506920F02A005061D06840F40050F7
:10390000D0600020606484F8411084F84210606345
:1039100010BD00002DE9F04186B040F600050446D8
:10392000C4F20105006805F540510027884204975C
:1039300002D006B0BDE8F08141F21800C4F20200E6
:10394000016802AE41F48041016001684FF40078E3
:1039500001F4804101910199016841F00401016085
:103960000068314600F004000190019802200390A5
:10397000032005902846CDF80880FDF719FB4FF489
:103980008060CDE90207284631460497FDF710FB19
:1039900040F248054420C2F20005C4F202001021A2
:1039A0004FF4006285E883002846C5E90378C5E93D
:1039B0000527EF61FDF798FA002818BFFDF722F8F8
:1039C000252000210022A5636C62FDF715FE25204D
:1039D000FDF700FE06B0BDE8F08100007047000072
:1039E0002DE9F04381B0044690F84100202840F0D2
:1039F000B180884600294FF0010000F0D6801646BD
:103A0000002A00F0D2800020606421201D4684F846
:103A10004100FDF7D3FBA684E684A1680646B1F514
:103A2000805F03D12069002800F0988047464FF05E
:103A30000008E18C2068002900F0968005F101095A
:103A40000BE000BF47B317F8011B4160E18C01395F
:103A5000E184E18C002900F0878001680906F1D437
:103A6000B9F1000F0AD0EDB1FDF7A8FB801BA84209
:103A700018D8206801680906F6D5E3E70168090649
:103A8000E0D4016809065CBF01685FEA0161D9D42E
:103A900001680906F2D5D5E738F8021B00276FF355
:103AA0005F21D2E7206850E8030F216820F4D0702E
:103AB00041E80302BAB3206850E8030F216820F4FC
:103AC000D07041E8030272B3206850E8030F216808
:103AD00020F4D07041E803022AB3206850E8030FB5
:103AE000216820F4D07041E80302002ADAD11AE0FC
:103AF000206850E8050F216820F0010041E8050228
:103B0000DAB1206850E8050F216820F0010041E893
:103B1000050292B1206850E8050F216820F00100ED
:103B200041E805024AB1206850E8050F216820F0FD
:103B3000010041E80502002ADAD1202084F8410082
:103B400084F84200002084F84000032001B0BDE862
:103B5000F08300BF022001B0BDE8F0830027E18CB4
:103B6000206800297FF46AAF0168490619D4FDB1C5
:103B7000691C0DD10168490613D4016849065CBF70
:103B800001685FEA41610CD401684906F2D508E09A
:103B9000FDF714FB801BA8420AD820680068400685
:103BA000F6D5202084F84100002001B0BDE8F08364
:103BB000206850E8030F216820F4D07041E8030228
:103BC000002A3ED0206850E8030F216820F4D0700E
:103BD00041E80302AAB3206850E8030F216820F4EB
:103BE000D07041E8030262B3206850E8030F2168F7
:103BF00020F4D07041E80302002AD9D121E000BFAF
:103C0000206850E8050F216820F0010041E8050216
:103C1000002A3FF492AF206850E8050F216820F099
:103C2000010041E80502002A3FF487AF206850E810
:103C3000050F216820F0010041E80502002A3FF449
:103C40007CAF206850E8050F216820F0010041E8B2
:103C50000502002AD4D170E770470000FEE700009B
:103C60002DE9F04383B0044600680D4601680A9FC1
:103C70000B9E41F4807199469046016020464FF0BA
:103C8000011100223B46009600F0ACF850B12068CC
:103C90000068C00544BF4FF400702064032003B0E7
:103CA000BDE8F083206805F0FE0101610221C0F249
:103CB000010120463A46334600F07AF920B101204E
:103CC00003B0BDE8F08300BF0020029020683246B8
:103CD000416902918069394602900298204600F0BD
:103CE000D3F958B1206C0428E9D12068016841F467
:103CF00000710160012003B0BDE8F0832068B9F1D4
:103D0000010F0AD04FEA1821016120463946324698
:103D100000F0BAF90028E5D120685FFA88F1016166
:103D2000002003B0BDE8F08370B50368044653F883
:103D3000140F400711D40E46481C29D086BB00BF83
:103D40001868400527D4FDF739FA236853F8140F93
:103D5000400737D518684007F2D5002070BD00BF76
:103D600018684007F9D41868400514D4186840074B
:103D7000F3D4186840050ED418684007EDD41868CD
:103D8000400508D4186840074FF0000048BF70BDD8
:103D900018684005E4D56FF480601860042012E0D4
:103DA000154603E053F8140F4007D6D418684005B1
:103DB000F1D4FDF703FA401B2368B042F2D95869E9
:103DC0004007EFD4202000212022216384F83D20E9
:103DD00084F83E10226C10432064012084F83C10CB
:103DE00070BD00002DE9F041054600681E461446EE
:103DF00001F47F0201338FB242D0DDF81880B2F5B2
:103E0000803F40F0878040693840C01BB0FA80F0A6
:103E10004009A04240F0C8804EB924E040693840D3
:103E2000C01BB0FA80F04009A04240F0BD80FDF711
:103E3000C5F9A0EB08012868B142EFD941693940C2
:103E4000C91BB1FA81F14909A142E7D19BE000BF4A
:103E500040693840C01BB0FA80F04009A0424FF0E2
:103E6000000040F0A280FDF7A9F9286841693940B7
:103E7000C91BB1FA81F14909A142E9D183E000BF30
:103E8000B2F5803F24D100BF41693940C91BB1FA66
:103E900081F14909A14240F0878041693940C91B3D
:103EA000B1FA81F14909A14240F07E80416939406F
:103EB000C91BB1FA81F14909A14275D14169394063
:103EC000C91BB1FA81F14909A142DDD06CE000BF04
:103ED00081693940C91BB1FA81F14909A14263D115
:103EE00081693940C91BB1FA81F14909A1425BD10D
:103EF00081693940C91BB1FA81F14909A14253D105
:103F000081693940C91BB1FA81F14909A142DFD069
:103F10004AE000BF80693840C01BB0FA80F0400919
:103F2000A04241D146B923E080693840C01BB0FAB5
:103F300080F04009A04237D1FDF740F9A0EB08011D
:103F40002868B142F0D981693940C91BB1FA81F1C1
:103F50004909A142E8D116E080693840C01BB0FA97
:103F600080F04009A0424FF0000018BFBDE8F0818A
:103F7000FDF724F9286881693940C91BB1FA81F13C
:103F80004909A142E8D100202021286385F83D108D
:103F900085F83E00296C41F02001296485F83C0039
:103FA0000120BDE8F08100BF0020BDE8F0810000E5
:103FB000F0B581B0044600681D4643698FB203EA3C
:103FC0000701B94202D1002001B0F0BD4169164697
:103FD00001323FD049053FD4CEB100BFFDF7EEF826
:103FE000411B2068B14203D941693940B94215D11A
:103FF00041693940B942E6D041694905EED52BE027
:1040000041693940B942DED04169490524D4FDF700
:10401000D5F8206841693940B942F1D0202023E029
:1040200041693940B942CED04169490514D441694A
:104030003940B942C7D0416949050DD44169394079
:10404000B942C0D04169490506D441693940B942F5
:10405000B9D041694905E3D5016841F400710160B7
:104060006FF480614161042000212022216384F8E3
:104070003D2084F83E10226C1043206484F83C10EC
:10408000012001B0F0BD000070B50368044653F88C
:10409000140F000611D40E46481C29D086BB00BF61
:1040A0001868400527D4FDF789F8236853F8140FE2
:1040B000000637D518680006F2D5002070BD00BF95
:1040C00018680006F9D41868400514D4186800066A
:1040D000F3D4186840050ED418680006EDD41868AB
:1040E000400508D4186800064FF0000048BF70BDB6
:1040F00018684005E4D56FF480601860042012E071
:10410000154603E053F8140F0006D6D4186840058E
:10411000F1D4FDF753F8401B2368B042F2D9586937
:104120000006EFD4202000212022216384F83D20C6
:1041300084F83E10226C10432064012084F83C1067
:1041400070BD000010B540F22814C2F200042046F1
:104150000021FEF7A5FF20460421FEF7A1FF20461F
:104160000821FEF79DFF20460C21BDE81040FEF718
:1041700097BF000080B582B041F21400C4F2020083
:104180000168002241F0010101600068002100F097
:104190000100019001980E20FDF72EFA0E2002B0CA
:1041A000BDE88040FDF716BA2DE9F04F85B041F229
:1041B0001800C4F20200016841F2000441F010014D
:1041C00001600168C4F2010401F01001019101993C
:1041D0000168012241F02001016001684FF0010AED
:1041E00001F0200101910199016841F00401016091
:1041F000016801F0040101910199016841F0080191
:1042000001600068012100F008000190019820463B
:10421000FCF7CEFF20464FF4FE5100224FF4FE582B
:104220004FF0000BFCF7C4FF04F58065284604211D
:1042300000224FF00409FCF7BBFF032001AE022768
:10424000049020463146CDE901AA0397FCF7B0FE61
:104250003E20CDE9010B204631460397FCF7A8FE2E
:1042600020463146CDE9018ACDE90377FCF7A0FE6F
:1042700028463146CDE9019ACDE90377FCF798FE4F
:1042800005B0BDE8F08F000080B540F28C0045F22B
:104290000041C2F20000C4F2000141F68022002376
:1042A0004FF4804CC0F2060280E80E00C0E9033CE7
:1042B000C0E90533C0E90733FCF786FF002808BFD3
:1042C00080BDBDE88040FCF79DBB000010B596B0F6
:1042D00040F2E00042F600420021C2F20000C4F2C7
:1042E0000102C72341F61F444FF0800C1591CDE920
:1042F00013111191CDE90F11CDE90D11CDE90B117C
:10430000CDE90911CDE90711CDE90511CDE9031179
:10431000CDE90111C0E90023C0E90214C0E904118C
:10432000C0F818C0FDF742FD002818BFFCF76AFB73
:104330004FF48050129040F2E000C2F2000012A947
:10434000FDF7D2FE002818BFFCF75CFB40F2E0004E
:10435000C2F20000FEF70CFE002818BFFCF752FB6B
:1043600040F2E0000024C2F2000010A9CDE91044A0
:10437000FDF7D0FC002818BFFCF744FB6020CDE916
:10438000090440F2E000C2F2000009A90C220B94DB
:10439000CDE90D440F94FEF7B5FC002818BFFCF7DB
:1043A00031FB00200590CDE90300CDE901004FF479
:1043B0000051089040F2E0000691C2F2000001A90D
:1043C000FDF780FC002818BFFCF71CFB40F2E00062
:1043D000C2F20000FEF728FC16B010BD10B58EB07A
:1043E00040F228100021C2F2000040F2E7340D91A3
:1043F000CDE90B110991CDE90711CDE90511CDE901
:104400000311CDE901114FF080424723C0E90214A6
:1044100001618021C0E900238161FDF7C7FC00280C
:1044200018BFFCF7EFFA4FF480500A9040F22810C2
:10443000C2F200000AA9FDF757FE002818BFFCF7DA
:10444000E1FA40F22810C2F20000FEF791FD0028C8
:1044500018BFFCF7D7FA40F228100024C2F200007F
:1044600008A9CDE90844FDF755FC002818BFFCF762
:10447000C9FA6020CDE9010440F22810C2F2000020
:1044800001A9002203940594FEF73CFC002818BF04
:10449000FCF7B8FA40F22810C2F2000001A9042289
:1044A000FEF730FC002818BFFCF7ACFA40F22810E9
:1044B000C2F2000001A90822FEF724FC002818BF60
:1044C000FCF7A0FA40F22810C2F2000001A90C2269
:1044D000FEF718FC002818BFFCF794FA40F22810E9
:1044E000C2F20000FEF7A0FB0EB010BD80B58CB08C
:1044F00040F2701040F200420021C2F20000C4F20B
:104500000002C0E9002180224FF6FF73826103227E
:10451000C0E90213CDE9032101220623CDE90011F0
:104520000161CDE90521CDE90731CDE9092103A9D3
:104530000B93FDF7A9FE002818BFFCF763FA40F2C1
:104540007010C2F200006946FDF7E4FB002818BFB6
:10455000FCF758FA0CB080BD10B58AB040F2B81024
:104560000021C2F2000040F600024FF6FF740991EC
:10457000CDE90711CDE90411CDE90211CDE9001112
:10458000C4F200024723C0E9021401618021C0E99E
:1045900000238161FDF70AFC002818BFFCF732FAFE
:1045A0004FF48050069040F2B810C2F2000006A905
:1045B000FDF79AFD002818BFFCF724FA40F2B81066
:1045C000C2F20000FEF7F4F8002818BFFCF71AFA50
:1045D00040F2B8100024C2F2000004A9CDE904445E
:1045E000FDF798FB002818BFFCF70CFA0120CDE975
:1045F000010440F2B810C2F20000694600220094A3
:104600000394FEF705F8002818BFFCF7FBF90AB081
:1046100010BD000080B58CB040F2002040F6004292
:104620000021C2F20000C4F20002C0E90021802291
:104630004FF6FF7382610322C0E90213CDE9032123
:1046400001220623CDE900110161CDE90521CDE963
:104650000731CDE9092103A90B93FDF715FE0028C9
:1046600018BFFCF7CFF940F20020C2F20000694603
:10467000FDF750FB002818BFFCF7C4F90CB080BD53
:1046800080B582B02020009040F248200021C2F284
:10469000000041F2000242F20F7C0191C4F20002DC
:1046A00041F61F43C0E9021C8021C0E9002381615B
:1046B000FDF77CFB002818BFFCF7A4F940F2482066
:1046C000C2F200006946FDF725FB002818BFFCF781
:1046D00099F902B080BD000080B582B02020009022
:1046E00040F290200021C2F2000041F2004240F26C
:1046F000E73C0191C4F2000240F2CF23C0E9021C62
:104700008021C0E900238161FDF750FB002818BF1C
:10471000FCF778F940F29020C2F200006946FDF7FC
:10472000F9FA002818BFFCF76DF902B080BD00004F
:1047300080B540F2D82043F60001C2F20000C4F276
:10474000010100234FF00C0C4FF4165280E80E00CC
:10475000C0E90333C0E905C3C361FFF769F8002866
:1047600008BF80BDBDE88040FCF74CB9FEE7000003
:10477000FEE700002DE9F04F85B040F2440500242B
:10478000C2F200054FF4807601270DF1120B0DF1F6
:1047900013084FF0000900BF09F1B00128688DF837
:1047A000101004A9CDE900177821002201230296F8
:1047B000FCF7BCFD28680DF11101CDE90017782147
:1047C000002201238DF811400296FCF7AFFD286806
:1047D00010218DF81210782100220123CDE900B7B5
:1047E0000296FCF7A3FD4FF0000A00BF286878216D
:1047F000402201238DF81340CDE900870296FCF793
:1048000095FD0AF101004FFA80FABAF1FF3FEDDCA5
:10481000B9F1070F09F10109BED305B0BDE8F08F6A
:1048200070B584B040F244058D21C2F200052868BD
:104830008DF80D1001260DF10D014FF48074CDE9B6
:1048400000167821002201230294FCF76FFD142149
:1048500028688DF80E100DF10E01CDE900167821B3
:10486000002201230294FCF761FDAF2128688DF836
:104870000F100DF10F01CDE9001678210022012360
:104880000294FCF753FD04B070BD0000F0B583B096
:1048900040F24405C2F2000528600A20FCF774FBD0
:1048A000286840F20C074FF480740126C2F200071A
:1048B000782100220123CDE900760294FCF736FD31
:1048C0002868791CCDE90016782100220123029482
:1048D000FCF72CFD2868B91CCDE9001678210022D0
:1048E00001230294FCF722FD2868F91CCDE900168B
:1048F0007821002201230294FCF718FD2868391D55
:10490000CDE900167821002201230294FCF70EFD68
:104910002868791DCDE90016782100220123029430
:10492000FCF704FD2868B91DCDE9001678210022A6
:1049300001230294FCF7FAFC2868F91DCDE9001662
:104940007821002201230294FCF7F0FC286807F18B
:104950000801CDE900167821002201230294FCF71A
:10496000E5FC286807F10901CDE90016782100224D
:1049700001230294FCF7DAFC286807F10A01CDE96B
:1049800000167821002201230294FCF7CFFC28684E
:1049900007F10B01CDE900167821002201230294D2
:1049A000FCF7C4FC286807F10C01CDE9001678215A
:1049B000002201230294FCF7B9FC286807F10D01DD
:1049C000CDE900167821002201230294FCF7AEFC09
:1049D000286807F10E01CDE9001678210022012395
:1049E0000294FCF7A3FC286807F10F01CDE900163B
:1049F0007821002201230294FCF798FC286807F133
:104A00001001CDE900167821002201230294FCF761
:104A10008DFC286807F11101CDE9001678210022EC
:104A200001230294FCF782FC286807F11201CDE90A
:104A300000167821002201230294FCF777FC2868F5
:104A400007F11301CDE90016782100220123029419
:104A5000FCF76CFC286807F11401CDE900167821F9
:104A6000002201230294FCF761FC286807F115017C
:104A7000CDE900167821002201230294FCF756FCB0
:104A8000286807F11601CDE90016782100220123DC
:104A90000294FCF74BFC0A20FCF776FA03B0BDE861
:104AA000F040FFF767BE00002DE9F04F8BB047B232
:104AB000C0F3C010DDF85090203A01EB400627EA21
:104AC000E7701027A6F1500147EA101400F00F0517
:104AD000102BD7B240F0C0800496264640F2440422
:104AE000C2F2000420688DF81D104FF001080DF18E
:104AF0001D014FF4807ACDE90018782100220123AE
:104B0000CDF808A0FCF712FC20680DF11E01CDE9DC
:104B1000001878210022012305968DF81E60CDF83B
:104B200008A0FCF703FC20680DF11F01CDE9001877
:104B300078210022012306958DF81F50CDF808A09A
:104B4000FCF7F4FB46F23E4B3E01C0F6000B1BF8AF
:104B500006104F46B9F1000F00F00C81C9432068E0
:104B60008DF8201008AD782140220123CDE90058AE
:104B7000CDF808A0FCF7DAFB46F001001BF80000B6
:104B80004022C14320688DF8201078210123CDE90F
:104B90000058CDF808A0FCF7C9FB46F002001BF84E
:104BA00000004022C14320688DF8201078210123A5
:104BB000CDE90058CDF808A0FCF7B8FB46F003009B
:104BC0001BF800004022C14320688DF82010782196
:104BD0000123CDE90058CDF808A0FCF7A7FB46F06B
:104BE00004001BF800004022C14320688DF820100B
:104BF00078210123CDE90058CDF808A0FCF796FBF9
:104C000046F005001BF800004022C14320688DF8E3
:104C1000201078210123CDE90058CDF808A0FCF739
:104C200085FB46F006001BF800004022C1432068C7
:104C30008DF8201078210123CDE90058CDF808A087
:104C4000FCF774FB46F007001BF80000C143206826
:104C50008DF8201003E100BF40F24406C2F20006C6
:104C600030688DF827104FF0010B0DF127014FF43C
:104C70008078CDE9001B782100220123CDF808803F
:104C8000FCF754FB30680AA9CDE9001B782100220B
:104C900001238DF82840CDF80880FCF747FB3068E9
:104CA0000DF12901CDE9001B7821002201238DF8A7
:104CB0002950CDF80880FCF739FB07EB470446F292
:104CC0001627C0F6000717F81410B9F1000F00F00E
:104CD0008581C94330688DF82A100DF12A0A7821A0
:104CE00040220123CDE900ABCDF80880FCF71EFB84
:104CF00007EB44046078A578C1433068E77894F8FE
:104D000004908DF82A10782140220123CDE900ABD0
:104D1000CDF80880FCF70AFBE94330688DF82A10CB
:104D2000782140220123CDE900ABCDF80880FCF7C3
:104D3000FDFAF94330688DF82A10782140220123CA
:104D4000CDE900ABCDF80880FCF7F0FA6FEA090175
:104D500030688DF82A10782140220123CDE900AB7C
:104D6000CDF80880FCF7E2FA6079C14330688DF82D
:104D70002A107CE120688DF821100DF121057821A1
:104D800040220123CDE90058CDF808A0FCF7CEFA67
:104D900046F001001BF8001020688DF821107821E2
:104DA00040220123CDE90058CDF808A0FCF7BEFA57
:104DB00046F002001BF8001020688DF821107821C1
:104DC00040220123CDE90058CDF808A0FCF7AEFA47
:104DD00046F003001BF8001020688DF821107821A0
:104DE00040220123CDE90058CDF808A0FCF79EFA37
:104DF00046F004001BF8001020688DF8211078217F
:104E000040220123CDE90058CDF808A0FCF78EFA26
:104E100046F005001BF8001020688DF8211078215D
:104E200040220123CDE90058CDF808A0FCF77EFA16
:104E300046F006001BF8001020688DF8211078213C
:104E400040220123CDE90058CDF808A0FCF76EFA06
:104E500046F007001BF8001020688DF8211078211B
:104E600040220123CDE90058CDF808A0FCF75EFAF6
:104E700004980125A0F14F0120688DF822100DF152
:104E800022014FF48078CDE900157821002201231A
:104E9000CDF80880FCF74AFA059920688DF82310B0
:104EA0000DF12301CDE90015782100220123CDF871
:104EB0000880FCF73BFA069920688DF8241009A9B0
:104EC000CDE90015782100220123CDF80880FCF7F8
:104ED0002DFA46F008001BF80010002F00F0CA80E1
:104EE000C94320688DF825100DF12507782140224F
:104EF0000123CDE90075CDF80880FCF717FA46F0DC
:104F000009001BF800004022C14320688DF82510DD
:104F100078210123CDE90075CDF80880FCF706FA69
:104F200046F00A001BF800004022C14320688DF8BB
:104F3000251078210123CDE90075CDF80880FCF714
:104F4000F5F946F00B001BF800004022C143206831
:104F50008DF8251078210123CDE90075CDF8088062
:104F6000FCF7E4F946F00C001BF800004022C143B6
:104F700020688DF8251078210123CDE90075CDF842
:104F80000880FCF7D3F946F00D001BF80000402222
:104F9000C14320688DF8251078210123CDE90075E3
:104FA000CDF80880FCF7C2F946F00E001BF80000AF
:104FB0004022C14320688DF8251078210123CDE9D6
:104FC0000075CDF80880FCF7B1F946F00F001BF82A
:104FD0000000C14320688DF82510C0E030688DF8CE
:104FE0002B100DF12B0A782140220123CDE900ABD3
:104FF000CDF80880FCF79AF907EB44046178306833
:10500000A578E77894F804908DF82B107821402249
:105010000123CDE900ABCDF80880FCF787F93068B3
:105020007821402201238DF82B50CDE900ABCDF83B
:105030000880FCF77BF930687821402201238DF845
:105040002B70CDE900ABCDF80880FCF76FF9306824
:105050007821402201238DF82B90CDE900ABCDF8CB
:105060000880FCF763F9617930688DF82B10CDE981
:1050700000AB76E020688DF826100DF12607782128
:1050800040220123CDE90075CDF80880FCF74EF9E8
:1050900046F009001BF8001020688DF826107821D2
:1050A00040220123CDE90075CDF80880FCF73EF9D8
:1050B00046F00A001BF8001020688DF826107821B1
:1050C00040220123CDE90075CDF80880FCF72EF9C8
:1050D00046F00B001BF8001020688DF82610782190
:1050E00040220123CDE90075CDF80880FCF71EF9B8
:1050F00046F00C001BF8001020688DF8261078216F
:1051000040220123CDE90075CDF80880FCF70EF9A7
:1051100046F00D001BF8001020688DF8261078214D
:1051200040220123CDE90075CDF80880FCF7FEF898
:1051300046F00E001BF8001020688DF8261078212C
:1051400040220123CDE90075CDF80880FCF7EEF888
:1051500046F00F001BF8001020688DF82610CDE9EE
:105160000075782140220123CDF80880FCF7DEF895
:105170000BB0BDE8F08F00002DE9F04F87B0002B99
:105180000691059000F0838010981C46400804901A
:10519000981E019058421746591E4FF000085FFABA
:1051A00080F942F2107A00264FF0000B0391029230
:1051B00015E000BF0126DDE90421DDE9103502FB21
:1051C000081140F03002C8B20699D2B20095FFF73C
:1051D0006BFC08F10108A0450BF1010B57D06FEAF9
:1051E0000B00C0B2484501D1012029E001996FEAC6
:1051F0000800A1EB0801C9B2032900EB040101D2A8
:10520000012009E001F0FC02002301200433DFB299
:10521000974200FB0AF0F9D1029F11F003010FD071
:10522000012903D100EB8000400009E04FF47A72BD
:10523000424302294FF0640108BF00FB01F210460F
:10524000B7FBF0F04CF6CD41CCF6CC41A0FB0112FF
:10525000D10801EB8101002EA0EB4100ABD10399F5
:105260004145A8DD0028A5D1DDE90410DDE91036AF
:1052700001FB08000699C0B220220096FFF714FC3B
:10528000002608F10108A0450BF1010BA7D107B0DA
:10529000BDE8F08F2DE9F04782B092461278002ADF
:1052A0004BD0DDF8288099460D46064608270C2B82
:1052B0004FF0000408BF062716D100BFF0B2E9B2D4
:1052C000D2B20C23CDF80080FFF7EEFB3E44F0B2E3
:1052D00001347A28E0B288BF01351AF8002088BF6F
:1052E0000026002AEAD128E0B9F1100F16D100BF3C
:1052F000F0B2E9B2D2B21023CDF80080FFF7D4FBB0
:105300003E44F0B201347828E0B288BF01351AF883
:10531000002088BF0026002AEAD10EE0F0B2D2B207
:1053200029464B46CDF80080FFF7BEFB0134E0B2C2
:105330001AF800203E44002AF0D102B0BDE8F08700
:105340002DE9F04F89B00891139D06901046002179
:105350001F461646FBF742F800280446BA461CBF13
:1053600001240AF1010A0028039618BF86F00046BE
:1053700030460296FBF769F88046680807905FEAB6
:105380000A6059D0E019059002380490002042F2DA
:1053900010791EE00121B8FBF1F14CF6CD42CCF6BC
:1053A000CC42A1FB0223DA0802EB8202A1EB42010C
:1053B000DDE9062341F0300100FB0320CAB2089961
:1053C000DDE91337C0B20097FFF76EFBAE425846D7
:1053D00032D200F1010B5FFA8BF65FFA8AF5B54223
:1053E000D8D0049AC143121AD2B2032A059A0A44A9
:1053F00002D201210AE000BF02F0FC0300240121D7
:105400000434E7B29F4201FB09F1F9D112F0030223
:10541000C1D0012A04D101EB81014900BBE700BFE3
:105420004FF47A734B43022A4FF0640208BF01FB2A
:1054300002F31946AFE700BFDDE90601DDE91337E6
:1054400001FB0A000899C0B22E220097FFF72CFB3F
:105450004046FAF7DFFF01460298FAF7D7FEDDF87B
:105460004880B8F1000F00F093800746B8F1040FB0
:1054700008F0030102D20A2299B91CE008F0FC02EC
:105480000023012042F2107604330546D8B2904240
:1054900005FB06F0F8D148F2A062C0F201026A43AF
:1054A00049B1012906D0642302EB82005A43022944
:1054B00008BF42001046FAF7B6FF01463846FAF731
:1054C000ABFEFAF7C2FFB8F1000F61D007460698AD
:1054D0004FF0000900F1050BA8F102000590C8F19A
:1054E0000000C6B242F2107523E000BF0120B7FBF6
:1054F000F0F04CF6CD41CCF6CC41A0FB0112D10826
:1055000001EB8101079AA0EB410009EB0A0101FBC5
:1055100002B140F03000C2B2C8B20899DDE91334DC
:105520000094FFF7C1FA09F101095FFA89F04045DB
:105530002ED26FEA0900C1B2B142D7D00599A1EBD2
:105540000901C9B2032900EB080101D2012009E0D9
:1055500001F0FC02002301200433DCB2944205FB7D
:1055600000F0F9D111F00301C1D0012904D100EB01
:1055700080004000BBE700BF4FF47A72424302292B
:105580004FF0640108BF00FB01F21046AFE700BF17
:1055900003980021FAF730FF38B906980899DDE939
:1055A00013372D220097FFF77FFA09B0BDE8F08F7F
:1055B0007047000010B540F24824C2F200042046B3
:1055C000FCF774FD2046FCF72DFD40F22800C2F2E6
:1055D0000000806810BD000080B582B00021C4F2D8
:1055E0002011FAF7FBFE08A10AA2002818BF0A46FC
:1055F0004FF0000C002000210923CDF800C0FFF778
:1056000049FE02B080BD00BF746F6F20636C6F7382
:1056100065000000736166652020202020000000E6
:1056200010B540F2E004C2F2000420460C21FDF760
:1056300037FD20684FF40771016410BD704700000A
:10564000FBF760BF7047000040F27010C2F200002C
:10565000FDF732BA40F2B810C2F20000FDF72CBAE2
:1056600040F20020C2F20000FDF726BA40F24820C6
:10567000C2F20000FDF720BA40F29020C2F2000012
:10568000FDF71ABA406A0021C185C184FDF716BE34
:1056900081B090F84210222921D183680246B3F5E7
:1056A000805F09D152F8281F52F8183C002B63D0B4
:1056B00003685B680AE000BF52F8281F13B903694A
:1056C000002BF5D003685B6803F07F030B70116853
:1056D00001311160C18D01390A04C18502D001B0C8
:1056E000704700BF0168CA6822F02002CA60CA6819
:1056F00022F48072CA604A6922F001024A612021C4
:1057000080F8421000214163026B012A3CD1016301
:10571000016851E8031F026821F0100142E80313F9
:10572000DBB1016851E8031F026821F0100142E873
:10573000031393B1016851E8031F026821F01001BF
:1057400042E803134BB1016851E8031F026821F0DE
:10575000100142E80313002BDAD101680A68D2066F
:1057600006D5002200920A680092496800910099CB
:10577000818D01B0FDF7A0BD026852686FF35F2212
:1057800021F8022B8162A5E701B0FEF727B90000DE
:1057900040F2D820C2F20000FDF792BDFEE7000003
:1057A000FCF748B880B582B0019040F2D820C2F230
:1057B000000001A901224FF6FF73FEF711F90198CD
:1057C00002B080BD92B0FBF7ABFE40F28C00C2F29B
:1057D0000000FFF75BF800240120CDE90D44CDE97E
:1057E0000B4408900C904FF4E0104FF480310225E8
:1057F000119008A8CDE90914CDE90F51FCF748F83C
:1058000020B1EFF3108072B6FEE700BF0F20CDE9A4
:1058100003054FF48060CDE9060403A80221059436
:10582000FBF726FF20B1EFF3108072B6FEE700BF52
:10583000FEF7BAFCFEF79EFCFEF726FDFEF78CFE97
:10584000FEF71EFFFEF7CAFDFEF750FEFEF7E2FE72
:10585000FEF742FFFEF76CFFFEF738FDFEF78AFF0A
:10586000FEF7DEFF40F24820C2F20000FCF7DAFB50
:10587000FEF768FCFBF7A6F8FFF7D2FE40F23C39D2
:1058800040F2203A40F2300B40F22C35002610272F
:105890000224C2F20009C2F2000AC2F2000B0FF2A7
:1058A0006808C2F2000500BFFFF784FE0246002030
:1058B00004210223CDE900470296FFF741FD99F844
:1058C0000020072006210523CDE90076FFF754FCD0
:1058D000FFF770FEFFF780FEDAF804203C20062177
:1058E0000223CDE900470296FFF72AFDDBF800000E
:1058F000FAF7C4FD024640460B4600F007F828467A
:10590000FBF786F8D0E700BF25660A000FB4054B09
:1059100010B503A9044A029800F0DAF810BC5DF84B
:1059200014FB0000A55700080000002002E008C892
:10593000121F08C1002AFAD170477047002001E009
:1059400001C1121F002AFBD1704700002DE9FF5F43
:1059500082B00021DDE90430020DDDF840B00343E0
:1059600018D044F61050A2F2FF3242431514119899
:1059700001281FD0A5EB0B00401C5FEA000A4FF086
:1059800000064E4FDFF83891B046504615D5CAF1A3
:10599000000413E0119801244AA3012801D16FEA01
:1059A0000B010298119AC0E90031C0E9024206B029
:1059B000BDE8F09FCBF10000DFE704460021404A3C
:1059C000491842EB0450CDE9001012E0E00707D07F
:1059D00032463B4640464946FAF78EFC80468946A9
:1059E00032463B4610461946FAF786FC06460F46F5
:1059F0006410002CEAD1DDE90401DDE90023BAF1ED
:105A0000000F06DAFAF778FC42464B46FAF774FCC8
:105A100005E0FAF7E4FE42464B46FAF7E0FE04469C
:105A20000E460022284BFAF761FF03D84FF0FF30F3
:105A3000014607E00022254B20463146FAF728FEB2
:105A4000FAF73CFF102409E0002C0ADB0A220023AD
:105A5000FAF759FD039B30321A55641E50EA0102D1
:105A6000F2D1641C039AC4F111031444119A012A5F
:105A700003D0012208430DD10AE0084304D00020DE
:105A80004FF0110B119072E7A3EB0B056D1E0DE0AB
:105A90005B4504DD4FF0000205F1010504E003DA87
:105AA0004FF00002A5F10105002AECD002981199EF
:105AB000C0E90231C0E9004579E700000000144068
:105AC0000000F03F300000000000F0430000E03F25
:105AD0002DE9FF4F95B09B468946064600250FE20B
